:020000040800F2
:10000000800700208901000855100008A904000895
:100010005110000855020008371D000800000000BC
:10002000000000000000000000000000791000083F
:100030005902000800000000571000088D11000848
:10004000A3010008A3010008A3010008A301000800
:10005000A3010008A3010008A3010008A3010008F0
:10006000A3010008A3010008A3010008A3010008E0
:10007000A3010008A3010008A3010008A3010008D0
:10008000A3010008A3010008A3010008A3010008C0
:10009000A3010008A3010008A3010008A3010008B0
:1000A000A3010008A3010008A3010008A3010008A0
:1000B000A3010008A3010008A3010008A301000890
:1000C000A3010008A3010008A3010008A301000880
:1000D000A3010008511C0008A3010008A3010008A7
:1000E000A3010008A3010008A301000800F002F822
:1000F00000F03AF80AA090E8000C82448344AAF188
:100100000107DA4501D100F02FF8AFF2090EBAE885
:100110000F0013F0010F18BFFB1A43F0010318473B
:10012000C8580000E8580000103A24BF78C878C1C9
:10013000FAD8520724BF30C830C144BF04680C60ED
:10014000704700000023002400250026103A28BF35
:1001500078C1FBD8520728BF30C148BF0B60704739
:100160001FB51FBD10B510BD00F046F81146FFF7D2
:10017000F7FF01F053FE00F064F803B4FFF7F2FF5D
:1001800003BC01F0DAFD0000094880470948004738
:10019000FEE7FEE7FEE7FEE7FEE7FEE7FEE7FEE737
:1001A000FEE7FEE704480549054A064B7047000094
:1001B00091110008ED000008800100208007002058
:1001C000800300208003002070477047704770470D
:1001D000704710B500F008F8006810BD10B504466F
:1001E00000F002F8046010BD004870471C010020B8
:1001F000004870471C0100207546FFF7F9FFAE4626
:1002000005006946534620F00700854618B020B522
:10021000FFF7C8FFBDE820404FF000064FF0000791
:100220004FF000084FF0000B21F00701AC46ACE89E
:10023000C009ACE8C009ACE8C009ACE8C0098D460B
:10024000704710B50446AFF300802046BDE810406B
:10025000FFF793BF00BFFEE770472DE9F047064662
:100260000F46904699460025444641E07A1B91B2DC
:10027000321B90B24A4600F090F97A1B91B23219C3
:1002800090B24A4600F089F93A1991B2721B90B2C5
:100290004A4600F082F93A1B91B2721B90B24A466C
:1002A00000F07BF97A1991B2321990B24A4600F007
:1002B00074F93A1B91B2721990B24A4600F06DF986
:1002C0003A1991B2721990B24A4600F066F97A1959
:1002D00091B2321B90B24A4600F05FF96D1C05FBEB
:1002E00005F004FB040108FB08F0814200DD641EF8
:1002F000A542BBDDBDE8F0872DE9F04102460025AF
:100300000026002000230024002791F803C00CF0F1
:100310000F0591F803C00CF0100CBCF1000F03D0D6
:1003200091F802C04CEA050591F800C0BCF1000F3D
:1003300031D0146800202BE04FF0010C0CFA00F3D0
:10034000B1F800C00CEA03069E4220D183004FF0B2
:100350000F0C0CFA03F7BC4305FA03FC4CEA040447
:1003600091F803C0BCF1280F06D14FF0010C0CFA34
:1003700000FCC2F814C00AE091F803C0BCF1480FB9
:1003800005D14FF0010C0CFA00FCC2F810C0401C63
:100390000828D1D31460B1F800C0BCF1FF0F34DDE0
:1003A000546800202EE000F1080C4FF0010808FA14
:1003B0000CF3B1F800C00CEA03069E4221D1830081
:1003C0004FF00F0C0CFA03F7BC4305FA03FC4CEAA0
:1003D000040491F803C0BCF1280F05D100F1080C0A
:1003E00008FA0CF8C2F8148091F803C0BCF1480F69
:1003F00007D100F1080C4FF0010808FA0CF8C2F818
:100400001080401C0828CED35460BDE8F081000065
:10041000F0B50A46002300240021002500F0004624
:10042000B6F1004F02D11D4EF16901E01B4E71681B
:10043000C0F3034583B200F44016B6F5401F08D15F
:1004400021F07061154E766826F07066134F7E605D
:1004500012E000F48016B6F5801F06D1032606FAD6
:1004600005F4A14341F0706106E0460D360103FA40
:1004700006F6B14341F0706122B1460D360103FA30
:1004800006F6314300F00046B6F1004F02D1034EAC
:10049000F16101E0014E7160F0BD0000000001401B
:1004A000416170470161704700BFFEE72DE9F041EF
:1004B00004460D4616461F462A2000F06DFDA11C7D
:1004C00088B200F059FDB11C88B200F055FD2B2018
:1004D00000F062FD691C88B200F04EFD791C88B204
:1004E00000F04AFD2C2000F057FDBDE8F0812DE919
:1004F000FF4F85B081468A460020039083460798C7
:10050000A0EB09050898A0EB0A06CDF80890CDF8F5
:1005100004A0002D01DD012705E00DB9002702E050
:100520004FF0FF376D42002E02DD4FF0010806E06C
:1005300016B94FF0000802E04FF0FF387642B5429E
:1005400001DD2C4600E03446002004901EE0019AB4
:1005500091B2029A90B2129A00F01FF803982844C0
:100560000390B3440398A04205DD0398001B039059
:10057000029838440290A34504DDABEB040B0198CC
:10058000404401900498401C80B20490611C04987F
:100590008842DCDB09B0BDE8F08F70B504460D463B
:1005A00016462B46224629462046FFF77FFF304657
:1005B00000F0E2FC70BD2DE9FF4F85B081468A4610
:1005C0000020039083460798A0EB09050898A0EB4C
:1005D0000A06CDF80890CDF804A0002D01DD012712
:1005E00005E00DB9002702E04FF0FF376D42002E05
:1005F00002DD4FF0010806E016B94FF0000802E0F6
:100600004FF0FF387642B54201DD2C4600E034461B
:10061000002004901EE0019A91B2029A90B2129AC0
:1006200001F002F9039828440390B3440398A042D0
:1006300005DD0398001B0390029838440290A345FF
:1006400004DDABEB040B0198404401900498401C7E
:1006500080B20490611C04988842DCDB09B0BDE8DC
:10066000F08F2DE9F04706460F4614461D46DDF88B
:1006700020A0681E83B2601E82B239463046FFF762
:1006800015FFB8460EE0B14606E0504600F074FC97
:1006900009F101001FFA80F9A145F6DB08F101001C
:1006A0001FFA80F8A845EEDBBDE8F08708B5012108
:1006B0000C2000F0D1FCDF20ADF8000010208DF8F8
:1006C000030003208DF8020069461148FFF714FE6D
:1006D000DF210F48FFF7E6FE2020ADF8000048209C
:1006E0008DF8030003208DF8020069460848FFF7E3
:1006F00003FE0120ADF8000048208DF80300032020
:100700008DF8020069460348FFF7F6FD08BD0000BA
:1007100000080140000C014010B5FFF7C7FF04219D
:100720007A48FFF7BDFE642001F02CFB04217748D6
:10073000FFF7B8FE642001F025FB10217348FFF796
:10074000B1FE642001F01EFB112000F025FC782092
:1007500001F018FBB12000F01FFC052000F015FC93
:100760003C2000F012FC3C2000F00FFCB22000F016
:1007700013FC052000F009FC3C2000F006FC3C20A6
:1007800000F003FCB32000F007FC052000F0FDFBA7
:100790003C2000F0FAFB3C2000F0F7FB052000F0C5
:1007A000F4FB3C2000F0F1FB3C2000F0EEFBB42019
:1007B00000F0F2FB032000F0E8FBC02000F0ECFBAF
:1007C000282000F0E2FB082000F0DFFB042000F00E
:1007D000DCFBC12000F0E0FBC02000F0D6FBC22013
:1007E00000F0DAFB0D2000F0D0FB002000F0CDFB84
:1007F000C32000F0D1FB8D2000F0C7FB2A2000F0C1
:10080000C4FBC42000F0C8FB8D2000F0BEFBEE202E
:1008100000F0BBFBC52000F0BFFB1A2000F0B5FBC9
:10082000362000F0B9FB002000F0AFFBE02000F024
:10083000B3FB042000F0A9FB222000F0A6FB072058
:1008400000F0A3FB0A2000F0A0FB2E2000F09DFB8F
:10085000302000F09AFB252000F097FB2A2000F0C2
:1008600094FB282000F091FB262000F08EFB2E2028
:1008700000F08BFB3A2000F088FB002000F085FBA5
:10088000012000F082FB032000F07FFB132000F02A
:100890007CFBE12000F080FB042000F076FB1620BA
:1008A00000F073FB062000F070FB0D2000F06DFBE4
:1008B0002D2000F06AFB262000F067FB232000F0CB
:1008C00064FB272000F061FB272000F05EFB252061
:1008D00000F05BFB2D2000F058FB3B2000F055FBA7
:1008E000002000F052FB012000F04FFB042000F03C
:1008F0004CFB132000F049FB3A2000F04DFB052093
:1009000000F043FB292000F047FB10BD0008014028
:100910002DE9FF4F83B005468A461746119CAB462A
:10092000204604EBD071C1F347063046F11706EBC1
:100930005171C910614389B20191A7F12000C7B27A
:100940000AEB0400401E83B2A819401E82B2514631
:100950002846FFF7ABFD4FF000094AE0102C06D106
:10096000264800EB071010F8090002900BE0202C3D
:1009700006D1234800EB871010F80900029002E02E
:1009800007B0BDE8F08F4FF000082AE0129868B970
:10099000012000FA08F00299084018B1069800F00A
:1009A000EBFA1AE0109800F0E7FA16E0012000FADE
:1009B00008F00299084020B151462846069AFFF7F0
:1009C000ECFD681C85B2A5EB0B00B04205D15D467D
:1009D0000AF101001FFA80FA06E008F1010000F0B8
:1009E000FF08B8F1080FD1DB00BF09F101001FFAC1
:1009F00080F901988145B1DB00BFC1E7923700085B
:100A0000823D00082DE9FE4F8046894615469A46EC
:100A1000DDE90D470C9E2AE0102C09D153462A46E9
:100A200049464046CDE90147009600F025F819E017
:100A3000182C09D153462A4649464046CDE901477C
:100A4000009600F09BF80DE0202C09D153462A4671
:100A500049464046CDE90147009600F019F901E00A
:100A6000BDE8FE8FAD1C08EB04001FFA80F8287863
:100A70000028D1D100BFF3E72DE9FE4F0646894695
:100A800092469B460D9C00962046E11704EB51715F
:100A9000C910614389B2019105200290002565E0EB
:100AA00005EB0510344911F810009AF8001088423F
:100AB00059D105EB0510304901EB400040789AF818
:100AC000011088424FD109EB0400401E83B2301957
:100AD000401E82B249463046FFF7E8FC00273FE05F
:100AE0004FF0000836E00E9898B905EB0510224942
:100AF00001EB4000801CC05D012101FA08F10840B3
:100B000018B1584600F038FA20E00C9800F034FA9A
:100B10001CE005EB0510184901EB4000801CC05D8E
:100B2000012101FA08F1084020B15A4649463046F1
:100B3000FFF733FD701C86B20098301AA04205D131
:100B4000009E09F101001FFA80F906E008F101009A
:100B500000F0FF08B8F1080FC5DB00BF781CC7B272
:100B600001988742BCDB00BF681C85B202988542B1
:100B700096DBBDE8FE8F0000425500082DE9FE4FD0
:100B80000646894692469B460D9C00962046E117F4
:100B900004EB5171C910614389B2019105200290A3
:100BA00000256DE005EB850000EB4510374911F895
:100BB00010009AF8001088425FD105EB850000EB29
:100BC0004510324901EB400040789AF80110884204
:100BD00053D109EB0400401E83B23019401E82B28B
:100BE00049463046FFF762FC002743E04FF000081B
:100BF0003AE00E98A8B905EB850000EB45102349B3
:100C000001EB4000801CC05D012101FA08F10840A1
:100C100018B1584600F0B0F922E00C9800F0ACF999
:100C20001EE005EB850000EB4510184901EB400084
:100C3000801CC05D012101FA08F1084020B15A462C
:100C400049463046FFF7A9FC701C86B20098301A5E
:100C5000A04205D1009E09F101001FFA80F906E0CB
:100C600008F1010000F0FF08B8F1080FC1DB00BF78
:100C7000781CC7B201988742B8DB00BF681C85B2F8
:100C8000029885428EDBBDE8FE8F0000EC5500081F
:100C90002DE9FE4F0646894692469B460D9C0096DE
:100CA0002046E11704EB5171C910614389B20191EB
:100CB00005200290002565E005EB8510344911F808
:100CC00010009AF80010884259D105EB8510304980
:100CD00001EB400040789AF8011088424FD109EBAF
:100CE0000400401E83B23019401E82B2494630468D
:100CF000FFF7DCFB00273FE04FF0000836E00E98DE
:100D000098B905EB8510224901EB4000801CC05DBD
:100D1000012101FA08F1084018B1584600F02CF9F9
:100D200020E00C9800F028F91CE005EB851018492C
:100D300001EB4000801CC05D012101FA08F1084070
:100D400020B15A4649463046FFF727FC701C86B250
:100D50000098301AA04205D1009E09F101001FFA47
:100D600080F906E008F1010000F0FF08B8F1080F73
:100D7000C5DB00BF781CC7B201988742BCDB00BF4F
:100D8000681C85B20298854296DBBDE8FE8F0000A4
:100D90005E5700082DE9FF4F85B0074690461C4678
:100DA000DDE91396304606EBD071C1F3470B2149BC
:100DB000404601F063FD039001F014FD80B2049001
:100DC000002531E0601B401EC1B20A2001F074F919
:100DD0000499B1FBF0F00A21B0FBF1F201FB120A19
:100DE000A01EA84210D10020A11E01FB0B71CDE96D
:100DF0000096029088B22E22129B0699FFF788FD7A
:100E0000681CC5B2601CC4B200200AF13001CAB22D
:100E100005FB0B71CDE90096029088B2129B0699F2
:100E2000FFF776FD681CC5B2A542CBDB09B0BDE873
:100E3000F08F00000000C8422DE9FF4F85B0074643
:100E400091461D46DDE913A600200490304606EBCE
:100E5000D071C1F3470B002434E0281B401EC1B2FF
:100E60000A2001F029F9B9FBF0F00A21B0FBF1F2F8
:100E700001FB12080498A0B9681EA04211DDB8F168
:100E8000000F0CD1002004FB0B71CDE900A60290ED
:100E900088B22022129B0699FFF73AFD10E001204C
:100EA0000490002008F13001CAB204FB0B71CDE9B7
:100EB00000A6029088B2129B0699FFF729FD00BF99
:100EC000601CC4B2AC42C8DB09B0BDE8F08F2DE9AC
:100ED000F05F0746884615461E46DDF82890002438
:100EE00008EB0600401E83B27819401E82B24146CC
:100EF0003846FFF7DBFAA24619E04FF0000B10E08E
:100F000019F8140000F041F8012101EB440119F82F
:100F1000010000F03AF8601C84B20BF101001FFAE6
:100F200080FBB345ECDB0AF101001FFA80FAAA4509
:100F3000E3DBBDE8F09F2DE9FE4F06460F46144661
:100F40009846DDE90D5ADDF8309010E0CDE9015A00
:100F5000CDF800902278434639463046FFF7D8FC5A
:100F6000284605EBD07106EB61018EB2641C207837
:100F70000028EBD1BDE8FE8F10B50446201200F02A
:100F80001BF8E0B200F018F810BD10B5044620467A
:100F900000F012F810BD000010B504460821054805
:100FA000FFF77EFA204600F007F808210148FFF716
:100FB00079FA10BD0008014070B50446402112487E
:100FC000FFF76EFA002517E001210F48FFF768FAD6
:100FD00004F0800020B102210B48FFF763FA03E020
:100FE00002210948FFF75CFA01210748FFF75AFA86
:100FF0006006040E681CC5B2082DE5DB40210248DE
:10100000FFF750FA70BD00000008014008B501214B
:10101000052000F021F801210B48FFF7F9F94FF402
:101020000040ADF8000010208DF8030003208DF87B
:10103000020069460548FFF75FF94FF40041034895
:10104000FFF730FA08BD0000000230000008014040
:1010500000BFFEE77047704729B1064A9269024314
:10106000044B9A6104E0034A92698243014B9A61FE
:101070007047000000100240704710B500F002F801
:1010800010BD00000CB500200190009033480068AE
:1010900040F480303149086000BF3048006800F4F7
:1010A000003000900198401C0190009818B90198F8
:1010B000B0F5A06FF1D12948006800F4003010B1FC
:1010C0000120009001E0002000900098012843D109
:1010D0002348006840F01000214908600846006875
:1010E00020F0030008600846006840F00200086035
:1010F0001A484068194948600846406848600846F0
:10110000406840F4806048600846406820F47C10E5
:1011100048600846406840F4E810486008460068A7
:1011200040F08070086000BF0C48006800F000705C
:101130000028F9D00948406820F0030007494860BA
:101140000846406840F00200486000BF034840681D
:1011500000F00C000828F9D10CBD0000001002407E
:1011600000200240042808D14FF0E021096941F035
:1011700004014FF0E022116107E04FF0E02109691E
:1011800021F004014FF0E022116170477047000028
:1011900010B51348006840F0010011490860084686
:1011A0004068104908400E494860084600680E49EA
:1011B00008400B4908600846006820F48020086059
:1011C0000846406820F4FE0048604FF41F00886025
:1011D000FFF753FF4FF000600449086010BD0000A6
:1011E000001002400000FFF8FFFFF6FE08ED00E0EF
:1011F0002DE9F04F89B04FF0000800BF4FF6FF70A7
:10120000A0238022002100900846FFF72AFA002040
:1012100010214FF6FF724FF47843CDE90021029080
:10122000FEA228210520FFF786FE4FF47842142104
:10123000084600F016FB0020FC4981F820004862B7
:10124000D5E2FA48416801208847F84890F8200024
:1012500000F0C000402877D1F44890F8200020F03A
:101260004000F24981F820000846808904A921F84D
:101270002800EE48C08A01EB8801488008F101008F
:1012800000F0FF08B8F1010F09D0B8F1020F13D038
:10129000B8F1030F1DD0B8F1040F0CD126E04FF6C2
:1012A000FF721421084600F0DCFA4FF47842142152
:1012B0006C2000F0D6FA98E24FF6FF7214216C20F1
:1012C00000F0CFFA4FF478428C21142000F0C9FAD4
:1012D0008BE24FF6FF728C21142000F0C2FA4FF41B
:1012E00078428C216C2000F0BCFA7EE2BDF8101030
:1012F000BDF81420881A002801DB014600E04142B5
:101300000C46BDF81220BDF81610501A002801DB5B
:10131000014600E041420D4664436D43601900F010
:1013200036FFCDE9000100F0D2FECDE9020100F068
:1013300001FF1FFA80F9BDF81810BDF81C20881AAB
:10134000002802DB014601E050E241420C46BDF8B4
:101350001A20BDF81E10501A002801DB014600E0DB
:1013600041420D4664436D43601900F010FFCDE922
:10137000000100F0ACFECDE9020100F0DBFE1FFA37
:1013800080FA504601F066FA0390484601F062FA8E
:101390000290039901F048F9834601F0B7F8064638
:1013A0000F464FF06632A24B3046394600F002FF3E
:1013B0000CD3A04AA04B3046394600F08BFF05D332
:1013C000B9F1000F02D0BAF1000F2ED14FF0000892
:1013D0004FF6FF728C216C2000F043FA4FF47842F4
:1013E0001421084600F03DFA002010214FF6FF724C
:1013F0004FF47843CDE90021029090A228210520E6
:10140000FFF799FD002010214FF6FF724FF478434B
:10141000CDE9002102908DA23C210520FFF78BFD34
:101420004FF47A7000F0AEFCE1E1BDF81010BDF8A9
:101430001820881A002801DB014600E041420C46D2
:10144000BDF81220BDF81A10501A002801DB014621
:1014500000E041420D4664436D43601900F097FE81
:10146000CDE9000100F033FECDE9020100F062FE9B
:101470001FFA80F9BDF81410BDF81C20881A002846
:1014800001DB014600E041420C46BDF81620BDF8E4
:101490001E10501A002801DB014600E041420D46B3
:1014A00064436D43601900F072FECDE9000100F065
:1014B0000EFECDE9020100F03DFE1FFA80FA504613
:1014C00001F0C8F90390484601F0C4F9029003996D
:1014D00001F0AAF8834601F019F806460F464FF0CE
:1014E0006632534B3046394600F064FE06D3514A0B
:1014F000514B3046394600F0EDFE2ED24FF0000839
:101500004FF6FF728C216C2000F0ABF94FF478425B
:101510001421084600F0A5F9002010214FF6FF72B3
:101520004FF47843CDE90021029044A22821052000
:10153000FFF701FD002010214FF6FF724FF47843B2
:10154000CDE90021029041A23C210520FFF7F3FCE8
:101550004FF47A7000F016FC49E1BDF81410BDF8A4
:101560001820881A002801DB014600E041420C46A1
:10157000BDF81620BDF81A10501A002801DB0146EC
:1015800000E041420D4664436D43601900F0FFFDE9
:10159000CDE9000100F09BFDCDE9020100F0CAFD9C
:1015A0001FFA80F9BDF81010BDF81C20881A002819
:1015B00001DB014600E041420C46BDF81220BDF8B7
:1015C0001E10501A002801DB014600E041420D4682
:1015D00064436D43601900F0DAFDCDE9000100F0CD
:1015E00076FDCDE9020100F0A5FD1FFA80FA504614
:1015F00001F030F90390484601F02CF9029003996C
:1016000001F012F8834600F081FF06460F464FF0C6
:101610006632074B3046394620E00000506C656169
:1016200073652061646A75737421000014000020E2
:101630006666EE3FCDCCCCCCCCCCF03F41646A7535
:1016400073742046696C656421200000506C6561EC
:1016500073652041646A75737421000000F0AAFD6F
:1016600006D3634A634B3046394600F033FE30D22E
:101670004FF000084FF6FF728C216C2000F0F1F85B
:101680004FF478421421084600F0EBF800201021B6
:101690004FF6FF724FF47843CDE900210290AFF28C
:1016A000640228210520FFF746FC002010214FF698
:1016B000FF724FF47843CDE900210290AFF274023B
:1016C0003C210520FFF737FC4FF47A7000F05AFBFD
:1016D0008DE0BDF81410BDF81020881A01F0A2F8B2
:1016E00083465946444800F09FFF44494862BDF88C
:1016F0001410BDF81020881801F094F801903F48AC
:10170000416A019801F0BAF883464FF0864101F032
:1017100081F94FF08041029000F086FF039001F0C4
:1017200045F800B235498885BDF81A10BDF8122079
:10173000881A01F077F883465946314800F074FF63
:101740002E498862BDF81A10BDF81220881801F0E1
:1017500069F801902948816A019801F08FF82949B8
:10176000029001F057F983464FF0804100F05CFF92
:10177000039001F01BF800B22049C8854FF6FF72B4
:101780008C216C2000F06DF8002010214FF6FF72C4
:101790004FF47843CDE9002102901BA228210520B7
:1017A000FFF7C9FB002010214FF6FF724FF478437A
:1017B000CDE90021029018A23C210520FFF7BBFBD8
:1017C0004FF47A7000F0DEFA002010214FF6FF721D
:1017D0004FF47843CDE9002102900FA22821052083
:1017E000FFF7A9FB09B0BDE8F08F00BF00BF28E5F7
:1017F000CDCCCCCCCCCCF03F0000B04214000020CB
:101800000000F042000020432041646A7573742098
:101810004F4B2120202000002020202020202020AD
:10182000202020202020000070B504460D461646DA
:10183000324629462046FEF7B0FE611C88B2324689
:101840002946FEF7AAFE681C81B232462046FEF702
:10185000A4FE6A1C91B2621C90B23246FEF79DFE55
:1018600070BDF8B504460D46164604F10D018AB266
:10187000193988B22B4629460096FEF738FE05F145
:101880000D0083B2193881B2224620460096FEF739
:101890002EFE6A1C91B2621C90B23246FEF77DFEAB
:1018A0006A1C91B2621E90B23246FEF776FE6A1E44
:1018B00091B2621C90B23246FEF76FFE6A1E91B280
:1018C000621E90B23246FEF768FE33460622294673
:1018D0002046FEF7C2FCF8BD05480649486288204C
:1018E000888505488862A920C885002070470000C7
:1018F00087C011BD140000206F6333BD70B506466C
:101900000025002400201F4908601F49C1F88401F8
:101910001C491C310860304600F074F9062000F0C4
:1019200057FA00201849C1F88001012000F050FA50
:1019300001201449086000F04BFA00201249C1F858
:10194000800100BF15E04FF6FF7000EA440400205C
:101950000C490860012000F03BFA01200A49C1F857
:10196000800108486C38006808B1601C84B2681CAB
:10197000C5B2102DE7DB2411012002491C3108609B
:10198000204670BD80012142000021422DE9FE4326
:1019900080460027002406E04046FFF7AFFF2DF801
:1019A0001400601C84B2052CF6DB002416E0601CD9
:1019B00085B20FE03DF814003DF81510884207DDB0
:1019C0003DF814603DF815002DF814002DF8156051
:1019D000681C85B2052DEDDB601C84B2042CE6DBAF
:1019E0000027012405E03DF81400384487B2601C4C
:1019F00084B2042CF7DB032097FBF0F086B230466C
:101A0000BDE8FE832DE9F04104460D460748007805
:101A1000FFF7BCFF064606480078FFF7B7FF07460A
:101A200026802F800120BDE8F081000044000020C6
:101A3000450000207FB504460D4602A903A8FFF724
:101A4000E1FF064616B9002004B070BD694601A842
:101A5000FFF7D8FF06460EB90020F5E7BDF80400F1
:101A6000BDF80C10884206DCBDF80C10BDF804006F
:101A7000323081420CDBBDF80C00BDF80410884206
:101A800036DCBDF80410BDF80C00323081422FDA8C
:101A9000BDF80000BDF80810884206DCBDF808104B
:101AA000BDF80000323081420CDBBDF80800BDF803
:101AB000001088421CDCBDF80010BDF80800323070
:101AC000814215DABDF80C10BDF80420881800EB2F
:101AD000D071C1F34F012180BDF80810BDF800207E
:101AE000881800EBD071C1F34F0129800120ABE7CA
:101AF0000020A9E72DE9F04104464048006800288D
:101B000056D12CB13E49A1F10A00FFF793FF3DE009
:101B10003B49A1F10A00FFF78DFFB8B338491639E8
:101B2000B1F92C0000F07EFE074635491639888948
:101B300000F090FE804632481638416A404600F078
:101B40009DFE0646394600F00DFD054600F04AFEB2
:101B50002B4916398881B1F92E0000F063FE074643
:101B600027491639C88A00F075FE80462448163881
:101B7000816A404600F082FE0646394600F0F2FCDB
:101B8000054600F02FFE1E491639C8821C4816383B
:101B900090F8200000F0800038BBC02018491639AA
:101BA00081F82000084681898182C18AC1831CE0B6
:101BB0001348163890F8200000F0800050B110480B
:101BC000163890F8200020F080000D49163981F871
:101BD00020000AE000210A4816388182C1834FF6AE
:101BE000FF70074916398881C8820548163890F871
:101BF000200000F08000BDE8F0810000008121425B
:101C00002A00002070B50446002500BF18E004F04B
:101C1000800018B101200C49086002E000200A4948
:101C200008606006040E00200749091F08600120B3
:101C300000F0CEF801200549C1F88001681CC5B24A
:101C4000082DE4DB70BD0000840121420000214228
:101C500010B540F225511D4800F03EF810B31B4866
:101C600000F064F8C4B21A48008800F40040C8B913
:101C70001748008800F4804060B10A2C03D000208F
:101C80001349088020E01248008840F400401049C1
:101C9000088019E00D2C06D10D48008840F48040E2
:101CA0000B49088010E00A480088C0F30D0009497C
:101CB0000C5407480088401C0549088008460088E5
:101CC000C72801DD0020088010BD00000038014059
:101CD000500000205400002070B50246002400236C
:101CE0000025002040F66A16B14200D100BFC1F3C2
:101CF000421501F01F03012606FA03F3012D02D15C
:101D00009689334006E0022D02D1168A334001E065
:101D1000968A33400C12012606FA04F416883440E1
:101D200013B10CB1012000E0002070BD014688888D
:101D3000C0F30800704700BFFEE700BF7047000017
:101D400010B56FF00400FFF70DFA0A4800680A4961
:101D5000B0FBF1F0094908700846007800EB40013B
:101D6000C1EBC0104FF6FF7101EAC00004490880C2
:101D700010BD00000000002000127A004600002084
:101D8000480000200146114A12884A434FF0E023E0
:101D90005A6100229A611A46126942F001021A61E0
:101DA00000BF4FF0E022106900F001021AB100F408
:101DB0008032002AF5D04FF0E022126922F00102B1
:101DC0004FF0E0231A6100229A617047480000201A
:101DD0000146114A12784A434FF0E0235A6100222B
:101DE0009A611A46126942F001021A6100BF4FF06F
:101DF000E022106900F001021AB100F48032002ADA
:101E0000F5D04FF0E022126922F001024FF0E023FA
:101E10001A6100229A617047460000201FB5002415
:101E2000FFF78EFFFFF7F2F8FEF776FC4FF6FF7034
:101E3000A0238022002100900846FEF712FC4FF6F6
:101E4000FF70ADF80C0000208F49086018214FF694
:101E5000FF724FF47843CDE9002102908BA2014636
:101E6000FEF7D0FD002010214FF6FF724FF47843AB
:101E7000CDE90021029088A21E211820FFF75BF80F
:101E800010204FF6FF714FF478420323CDE9002173
:101E9000029080221E214820FEF7CEFF0020102154
:101EA0004FF6FF724FF47843CDE9002102907CA2F7
:101EB00032211820FFF73FF810204FF6FF714FF442
:101EC00078420323CDE900210290A022322148204C
:101ED000FEF7B2FF10204FF6FF714FF47842042353
:101EE000CDE900210290224650211420FEF752FF36
:101EF00000BF6D4828231A46502100904120FEF76C
:101F0000E6FF4FF47A70FFF73DFF4FF6FF70A02316
:101F10008022002100900846FEF7A3FBFFF7DCFCBF
:101F2000002010214FF6FF724FF47843CDE90021D5
:101F300002905EA278210A20FEF7FDFF10204FF6E6
:101F4000FF714FF478420323CDE900210290002273
:101F500078211A20FEF770FF002010214FF6FF7243
:101F60004FF47843CDE90021029051A28C210A2040
:101F7000FEF7E1FF10204FF6FF714FF47842032384
:101F8000CDE90021029000228C211A20FEF754FF97
:101F900078E04848416800208847464890F820008B
:101FA00000F0800000286DD00120FFF7EBFE4148D3
:101FB00080897F2866DA3F488089012862DB3D48B6
:101FC000C08A9F285EDA3B48C08A01285ADBBDF8E8
:101FD0000C004FF6FF71884207D136488089ADF872
:101FE0000C003448C08AADF80E001F20314D00901F
:101FF000EB8AAA89BDF80E10BDF80C00FEF7DBFADB
:1020000028468089ADF80C002846C08AADF80E003D
:10201000002010214FF6FF724FF47843CDE90021E4
:10202000029022A278210A20FEF785FF10204FF6A9
:10203000FF714FF47842CDE9002102902846828951
:10204000032378211A20FEF7F7FE002010214FF617
:10205000FF724FF47843CDE90021029014A28C2145
:102060000A20FEF768FF10204FF6FF714FF4784208
:10207000CDE9002102902846C28A03238C211A2030
:10208000FEF7DAFE85E70000BC012142D6D0BEB0E3
:10209000D4B0B5E7D7D300004C43445F573A0000B3
:1020A0004C43445F483A0000122B0008583A0000A5
:1020B000593A00001400002010B50246012000E04B
:1020C00050430B1EA1F10104E1B2F9D110BD2DE97D
:1020D000F04106460F4600F033F9041E0D4618BFC6
:1020E0000120284320F00040C0F17F6000F1E04073
:1020F000C00F0ED0301C18BF0120384320F0004024
:10210000C0F17F6000F1E040C00F04BF0120FEF786
:1021100065F820462946BDE8F081491058BFC1F155
:1021200040415B1058BFC3F140438B42EFF3008046
:10213000704700004FEA1153A3F58063D3F11E03EB
:10214000A8BFD3F1200C08DB4FF0004242EAC122C5
:1021500052EA505232FA03F0704709420BD4102B66
:10216000C4BF0020704703F5787CBCF1FF3F05D069
:102170004FF0FF3070474FF00000704770B500F02F
:1021800055F800BF4992248000207047F0E7B0FA6C
:1021900080F310FA03F10AD0C3F11D0303F5806345
:1021A0004FEA41504FEA035202EBD12170474FF002
:1021B0000000704751EA030C17D41CF5801F58BF6C
:1021C000BCF5801F00F10680994218BF704708BF18
:1021D0009042704707D711F5801F58BF13F5801F35
:1021E00019D499427047894270471CF5801F08D561
:1021F000BCF5801FF7D58B4218BF704708BF8242DD
:1022000070474FF4001C1CEB410F38BF1CEB430F11
:1022100001D28B42704770B500F008F89224490053
:102220004FF000514FF08053FFF777BF0EF1020ED1
:102230002EF0030E5EF8046B364205D4012A43EB00
:10224000030515F5001F12D8012841EB010C1CF500
:10225000001F0CD80ED14FEAD17C15F5001F0CEBF6
:102260004C0C0CF1020C08BF4CEBD37C04E04FF09B
:10227000080C01E04FEAD37C0CEB4C0526FA05F67E
:1022800006F00706B6F1040C06D20EEB860CBDE88C
:1022900070404CF0010C6047DFE80CF0090B0202C3
:1022A0004FF000414FF00000A1F5002170BD19462C
:1022B0001046012851EB010418BFD4F5001484BF67
:1022C000002001F0004170BD0808A0F500114FEAA0
:1022D0003101704753EA010C17D41CF5801F58BF19
:1022E000BCF5801F00F106808B4218BF704708BF05
:1022F0008242704707D713F5801F58BF11F5801F22
:1023000019D48B4270479B4270471CF5801F08D53B
:10231000BCF5801FF7D5994218BF704708BF90429F
:1023200070474FF4001C1CEB430F38BF1CEB410FF0
:1023300001D2994270470FB40CBC03BCFFF76BBFCE
:102340002DE9F04101F5801CBCF5001FC0F2C380EF
:102350004FEA115C21EA0C510CF1FD0C41F48011A3
:102360005FEA5C0C0CF5C07C01D3400049413DA400
:10237000890241EA905187028E0E0A0CA45D04FB8B
:1023800004F602FB06F6C6F14046A4FB0662F60D13
:1023900046EA422606FB06F4A4FB01235242C3F19F
:1023A000404338BF5B1EA6FB02420024E6FB032429
:1023B000D20B42EA4446A6FB0623A1FB02E2A3FBA2
:1023C00007E4A4184FF0000252F10002E3FB0142BF
:1023D0006442C2F1404E38BFAEF1010EA6FB0423A9
:1023E0004FF00002E6FB0E32A2FB03464FF0000462
:1023F000B61954F10004E2FB0264A1FB06E6A4FB5B
:1024000007E816EB08064FF0000858F10008E4FB57
:1024100001687642C8F1405838BFA8F10108A2FB14
:1024200006E4A3FB08E52D194FF0000454F1000465
:10243000E2FB0854A1FB05E6A7FB04E818EB06083D
:102440004FF0000656F10006E1FB048618F1200566
:1024500056F10006A809A8F11B08B10908F03F08C9
:10246000B8F10A0F40EA86601CD901EB0C51BDE8B7
:10247000F08100BFFCF5EEE8E2DDD8D3CFCBC7C3D7
:10248000C0BDB9B6B4B1AEACA9A7A5A3A19F9D9B91
:102490009A9896959392908F8D8C8B898887868554
:1024A00084838281A0FB006800FB01F208EB4208F4
:1024B000B8EB872807D5341858EB0104D5D5401C54
:1024C00051F10001D1E7341A78EB0104CDD4401E5C
:1024D00071F10001C9E75FEA4C0C5FEA9C5C0DD129
:1024E00005D34FF0000001F00041BDE8F081BDE8E8
:1024F000F04170B5FFF79AFE6DDBFFBEBDE8F0411D
:102500004FF00000004970470000F87F43004FEA99
:10251000D30C4FEA3C0C43401FBF40070CF1605105
:1025200013F0FE4F70471CF0006F03D100200CF039
:10253000004170470CF0004343EA507010B540EA88
:10254000CC0000F01CFA00BF000000924FEA00012E
:10255000FFF7BABE4FF000414FF00000A1F5002197
:102560007047000090EA010F48BF81F0004100F180
:102570006282421A3CBF801A89184FEAD0524FF04B
:102580007F4C1CEA410FA2EBD15318BF9CEA026FAB
:1025900000F03B804FF0004C4CEA00204CEA012157
:1025A00021FA03FC10EB0C0C1ED202F1FF325FEAA1
:1025B0001C2040EBC25038BF70471CF07F0F4FEA21
:1025C000400C18BFBCF17F4F38BF7047C3F12003E8
:1025D000994008BF20F00100BCF17F4F38BF704721
:1025E000A0F1C04000F011BA4FEA3C00000A40EBF5
:1025F000C25028BF1CF0FF0F4FEA400CE6D018BFB6
:10260000BCF17F4F38BF7047EAE79CEA026F05D004
:1026100010EA5C0F08BF00F00040704710B500F0F2
:10262000AEF900BF64FBBE3E4FF47F0C1CEAD01233
:102630001EBF1CEAD11392EA0C0F93EA0C0F00F0B4
:10264000858090EA010F48BF42F4807240F4000C8C
:1026500041F400002CF07F4120F07F4000B5814222
:10266000A2EB03020FF2081CACEB504EC0F10000CD
:102670009EF800E04FEA4E0E00FB0EFC38BF49000A
:102680004FEA2C1C02F5FA020CFB0EF34FEACE1EA9
:102690004FEA112C4FEAC1210EEB635E42EB22425E
:1026A0000EFB0CFC4FEA1C5300FB03114FEA112CEC
:1026B0004FEA01310EFB0CFC4FEADC4C00FB0C1125
:1026C000C14228BF09184CEB03335DF804EB10EB53
:1026D000410143EBC250B2F57C0F38BF704729D59A
:1026E00012F0F00F1CBF00F1C04000F00040704736
:1026F000008182838485868788898B8C8D8E8F91DB
:102700009293959697999A9C9D9FA0A2A3A5A7A8FE
:10271000AAACAEB0B2B3B5B7B9BCBEC0C2C5C7C92A
:10272000CCCED1D4D7D9DCDFE2E6E9ECF0F3F7FA8E
:10273000FE0000004FEA400C0CF1807CBCF17E4FA3
:1027400028BF7047B0F1C04000F05FB990EA010FB8
:102750000CEAD11348BF42F48072624538BF63452A
:1027600007D213F47F0F16D080EA010000F000407A
:10277000704710B500F003F9097EFC3E00F005B883
:1027800080EA010000F00040704780EA010000F09C
:10279000004000F03AB912F47F0F04BF02487047BE
:1027A00080EA010000F031B90000C07F41000B0E4B
:1027B000D3F19E0208D950F400034FEA032323FA11
:1027C00002F048BF4042704710B500F0D8F800BF93
:1027D00049922480002070476FF0004282EA200076
:1027E00070470000C10DD1F19E0206DB4FEA0023C5
:1027F00043F0004323FA02F07047004207D54FEA46
:102800004001B1F1FE4F02D24FF00000704710B509
:1028100000F0B5F849922480002070476FEA20004C
:102820007047000010F0004148BF4042B0FA80F30A
:1028300010FA03F2C3F19D030BD051EAC35101EB2F
:102840001220530638BF704700F1010008BF20F086
:1028500001007047B0FA80F310FA03F2C3F19D0350
:102860000AD0D90501EB1220530638BF704700F19A
:10287000010008BF20F00100704700004FF47F0CFA
:102880001CEAD0121EBF1CEAD11392EA0C0F93EA85
:102890000C0F00F0478090EA010F48BF42F48072AD
:1028A0004FF0004C4CEA00204CEA012102EB0302FD
:1028B000A0FB0113A2F50002002918BF43F0010399
:1028C0005B0028BF4FEA330342EB22425FEA132C3E
:1028D0004CEBC2502EBFBCEB436FB2F57C0F704780
:1028E0004FEA036CBCF1004F08BF20F00100B2F5C5
:1028F0007C0F38BF70470BD582F0FF0212F5803F86
:10290000C8BF704700F1C040D8BF00F0004070471A
:1029100000F5000C5FEA4C0C48BF7047B0F1C040B6
:1029200000F073B890EA010F0CEAD11348BF42F4EB
:102930008072624538BF634504D280EA010000F02E
:102940000040704710B500F01AF800BF8900013E42
:1029500000F007B800F009B85FEA410C5FEA1C6CB0
:1029600008D080EA010000F050B85FEA400C5FEA4E
:102970001C6CF6D14FF00040A0F5800070470EF1BE
:10298000020E2EF0030E5EF8044B244204D44FEAEC
:102990004102B2F17F4F11D84FEA4003B3F17F4FAC
:1029A0000CD80ED14FEAD07CB2F17F4F0CEB4C0C1F
:1029B0000CF1020C08BF4CEBD17C04E04FF0080C8A
:1029C00001E04FEAD17C0CEB4C0324FA03F404F051
:1029D0000704B4F1040C06D20EEB840CBDE81040E1
:1029E0004CF0010C6047DFE80CF0070802024FF0E2
:1029F0000040A0F5800010BD0846420018BFD2F18B
:102A0000807288BF00F0004010BDFF2141EAD05025
:102A1000C005704780F0004090EA010F7FF5A9AD36
:102A200081F0004100F007B890EA010F48BF81F043
:102A300000413FF59EAD421A04D882F00042A0EB5F
:102A4000020011444FEAD0524FF07F4C1CEA410F74
:102A5000A2EBD15318BF9CEA026F4AD04FF0004C52
:102A60004CEA00204CEA012121FA03FCB0EB0C0CEB
:102A70000FD412F0FE0F36D05FEA4C001DD50012C5
:102A800040EBC25038BF70471CF03F0F18BF704773
:102A90000BE0A2F101025FEA1C2040EBC25038BFFC
:102AA00070471CF07F0F18BF7047C3F12003994097
:102AB00014BF401E20F00100704780084FEA122327
:102AC00008BF7047B0FA80FCA2EB0C02CCF1280CD6
:102AD00060FA0CF093EA122F04BF00EBC25070476B
:102AE0004FEAC3707047130A5FEADC1008BF7047F3
:102AF000F6E79CEA026F04D010EA5C0F08BF0020E2
:102B0000704710B5FFF73BFF40DFF63E81F0004015
:102B10007047FFFFFFFFFFFFFFFFFFFFFFFFFFFF0C
:102B2000FFFFFFFFFFFFFFFFFFFFFFFFFFFFFFFFB5
:102B3000F7BEFFFFFFDEC6388C926B8E6B6E7C108B
:102B4000AD96E73CFFFFFFFFFFFFFFFFFFFFFFFF2B
:102B5000FFFFFFFFFFFFFFFFFFFFFFFFFFFFFFFF85
:102B6000FFFFFFFFFFFFFFFFFFFFFFFFFFFFFFFF75
:102B7000FFFFFFFFFFFFFFFFFFFFFFFFFFFFFFFF65
:102B8000EF5D9D15634F426C320A2988194619255D
:102B9000214531E86B8EC638FFFFFFFFFFFFFFFFC7
:102BA000FFFFFFFFFFFFFFFFFFFFFFFFFFFFFFFF35
:102BB000FFFFFFFFFFFFFFFFFFFFFFFFFFFFFFFF25
:102BC000FFFFFFFFFFFFFFFFFFFFFFFFFFFFA53638
:102BD00053104B1053514B0F3A6C31E921671925B3
:102BE00010E408A30062088352CBD69AFFFFFFFFD0
:102BF000FFFFFFFFFFFFFFFFFFFFFFFFFFFFFFFFE5
:102C0000FFFFFFFFFFFFFFFFFFFFFFFFFFFFFFFFD4
:102C1000FFFFFFFFFFFFFFFFFFFFE73C637063B3B2
:102C20007CB863F54311324D29EA2188192619052C
:102C300019051104110410E4008308A38C72FFFF2E
:102C4000FFFFFFFFFFFFFFFFFFFFFFFFFFFFFFFF94
:102C5000FFFFFFFFFFFFFFFFFFFFFFFFFFFFFFFF84
:102C6000FFFFFFFFFFFFFFFFDEDB3A4B42F06C355B
:102C70004B5432B12A2E21EB21A9196719051104F1
:102C80001104110411041104190510E4004273AF7A
:102C9000FFFFFFFFFFFFFFFFFFFFFFFFFFFFFFFF44
:102CA000FFFFFFFFFFFFFFFFFFFFFFFFFFFFFFFF34
:102CB000FFFFFFFFFFFFEF5D3209324C4B10328FF9
:102CC0002A4F2A2E19CC198921891947190511046F
:102CD000110410C410C411041104110410E40042C2
:102CE0008431FFFFFFFFFFFFFFFFFFFFFFFFFFFF3D
:102CF000FFFFFFFFFFFFFFFFFFFFFFFFFFFFFFFFE4
:102D0000FFFFFFFFFFFF52EC1947324C2A0B21EC6B
:102D100021EC220C5B914AEE11061926190410E4ED
:102D200010E429A7216608A319051104110410E471
:102D30000082BDF7FFFFFFFFFFFFFFFFFFFFFFFF69
:102D4000FFFFFFFFFFFFFFFFFFFFFFFFFFFFFFFF93
:102D5000FFFFFFFFA535088321882188218921AA4B
:102D6000218A426B8C71FFFF8C720883110408C4A6
:102D70004229DEFBEF5D5AEC0883110411041104B3
:102D8000088331E8FFDFFFFFFFFFFFFFFFFFFFFFCB
:102D9000FFFFFFFFFFFFFFFFFFFFFFFFFFFFFFFF43
:102DA000FFFFF7BE31C710C4192519261947194767
:102DB00029A8528A4A28AD55FFFF31E808A3190512
:102DC0006B4D6B4DFFFFEF7D214510C411041104C5
:102DD00011040062AD76FFFFFFFFFFFFFFFFFFFF63
:102DE000FFFFFFFFFFFFFFFFFFFFFFFFFFFFFFFFF3
:102DF000FFFFB5960062110419041105190508C4F6
:102E00004A8BB5B6EF5DBDF7FFFF6B8E00624229BE
:102E10005AAA4208FFFFFFFF52CC08831104110495
:102E2000110408A352ADFFFFFFFFFFFFFFFFFFFFED
:102E3000FFFFFFFFFFFFFFFFE71CFFFFFFFFFFFF9D
:102E4000FFFF634E006211041104110410E40062DC
:102E5000638EFFFFFFFFFFFFFFFF73CF00019CF3B7
:102E6000632CB596FFFFFFFF5B2D00831104110457
:102E7000110410E42167EF3DFFFFFFFFFFFFFFFF9D
:102E8000FFFFBDF8B5B7EF9E52CB94B3FFFFFFFF36
:102E9000FFDF31E808A3110411041104110408A391
:102EA0004249F7FFF7FFFFFFFFFF4A6A0001847204
:102EB000FFFFFFFFF7FFEFDF3A0908A3110411043A
:102EC000110411041105BE18FFFFFFFFFFFFFFFFF4
:102ED000FFFF7BF0006231E831C70041A535FFFFFD
:102EE000EF5D214610C4110411041104110410E413
:102EF00008A39D76F7FFFFFFADB708A308A331C76E
:102F0000E79EF7FFF7FFA57608A310E4110411046C
:102F1000110411051105A535FFFFFFFFFFFFFFFF9E
:102F2000FFFFDEDB29A7008310C410C410C4E71C18
:102F3000EF9E110510E41104110411041104190489
:102F400008C410E56BD16BD108C5006408A5004327
:102F5000322B9D7784B3192510C411041104110478
:102F60001104192509269D35FFFFFFFFFFFFFFFF15
:102F7000FFFFFFFF73AF00621904190500825B0DAC
:102F80009B8E1062110511041104190410E40085D0
:102F9000110539C45A817B409C22AC43A4039B8316
:102FA0007282498218C200A400C510E419041104F9
:102FB0001905194711675AECFFBEFFFFFFFFFFFF1E
:102FC000FFFFFFDFDEDB10C410E41104110518A4BD
:102FD000C001888300E41905190408C5214483430E
:102FE000D523FE42FEE4FF27FF07FEA4FE64FE0396
:102FF000FDA3FCE2EC42B383622410E508C419048B
:10300000192619A821879000BCD3FFFFFFFFFFFFFF
:10301000FFFFFFDFFFFF7C10004219051105288329
:10302000D001F84448A300E408C55A44ED02FDE28B
:10303000FE02FE66FF74FFB8FF73F6E7F6A6F645DC
:10304000F5A4FCC3FC62FCC2FCC2CBE349C411067C
:103050001988018790A4F8019AECFFFFFFFFFFFF9A
:10306000FFFFFFFFFFFFF7BE31E800830905408245
:10307000C001F823F08548A300A45A44FD02CC23E4
:10308000DCC2FE04FE28F648F646F624F5E4FD64AC
:10309000FCE3FC62FCC2E402DC02FCE27AA401482C
:1030A000016778C4F824F802B084E77DFFFFFFFFD2
:1030B000FFFFFFFFFFFFFFFFDEDB192500A338C482
:1030C000E002D822F844F8A678A400632143728372
:1030D00039839B82F521FD61FD22FCE2FCA2FC42CA
:1030E000FC42FC42AB22418392C3520401261925C3
:1030F00098A4F844F823F802D0A4EF9EFFFFFFFF46
:10310000FFFFFFFFFFFFFFFFFFFFD69A298700A504
:10311000B843F822E023F865F8E8C907488300427D
:1031200000A3008429637AA2B362CBA2D362BB025C
:103130008A82398300A400E500E508E560C4D8640C
:10314000F844F824F823F8028883C6DBFFFFFFFF6A
:10315000FFFFFFFFFFFFFFFFFFFFFFFFE73D5B50AC
:103160003108E823F843F044F865F909F9ABD1894F
:10317000890648A3184200020042006100820062F2
:103180000062008320A350C488A5D885F865F84460
:10319000F844F823F823D003108229C7EF5DFFFF1E
:1031A000FFFFFFFFFFFFFFFFFFFFFFFFFFFFFFFF2F
:1031B000326C38A5D802F823F865F866F8A7F94A02
:1031C000FA0CFA4DEA4CD20BB9A9B168A947B1275C
:1031D000B907D107E8E7F8C7F8A7F865F865F84434
:1031E000F823F803D00228A3090508C45AECFFFF0E
:1031F000FFFFFFFFFFFFFFFFFFFFFFFFFFFFDEFB04
:10320000190500C441A7C0E6F803F886F8A7F887B7
:10321000F886F8C7F929F98AF9ABF9ABF98BF96A9D
:10322000F929F908F8C7F8A6F886F865F864F823CC
:10323000F002B106292500E410E4192519259D1492
:10324000FFFFFFFFFFFFFFFFFFFFFFFFFFFFAD9649
:10325000006208829535CEBAA28BD044F825F88753
:10326000F8A7F8C7F8A7F887F886F886F886F887E9
:10327000F8A7F8A7F8A6F885F865F864F024B8640C
:10328000930DB6BB63CF0883110410E421663A495D
:10329000EF5DFFFFFFFFFFFFFFFFFFFFFFFF94D387
:1032A000004210E4CEBBFFFFE7BEB576AACCC10753
:1032B000E045F845F846F866F886F886F886F88618
:1032C000F865F845F865E865D044A8438801908220
:1032D000D73CEFFF955508831104110419051946D1
:1032E00094B3FFFFFFFFFFFFFFFFFFFFFFFF94B35C
:1032F00000412186DF5DFFFFFFFFFFFFE7DFC67AAA
:10330000B4D3B34EC22AD168E0E6E8A6E8A5E8A5A2
:10331000D8E6C988A906A822A802A000C800D8003B
:10332000E5F7E7FFADF810C410E4110410E411054F
:103330004A8BFFFFFFFFFFFFFFFFFFFFFFFFA555CA
:10334000004129A7DF5DF7FFFFFFFFFFFFFFFFFF42
:10335000FFFFEFFFDF7DCEDBCE59CDF8CDD7C5F730
:10336000CE79BEFBA2ABF003F845D042E843F000B3
:10337000D472DFFFAE3910E410E4110410E411053B
:103380002987FFFFFFFFFFFFFFFFFFFFFFFFCE5972
:1033900008832146D71CF7FFFFFFFFFFFFFFFFFF5A
:1033A000FFFFFFFFFFFFFFFFFFFFFFFFFFFFFFFF2D
:1033B000FFFFEFFFBA8BF804F845E062F044F80035
:1033C000DB8EDFFFA5F810C410E410E4110410E454
:1033D0001925FFFFFFFFFFFFFFFFFFFFFFFFF7BE06
:1033E00029870883B639F7FFF7DFFFFFFFFFFFFFED
:1033F000FFFFFFFFFFFFFFFFFFFFFFFFFFFFFFFFDD
:10340000FFFFE7BEBA4AF803F845F864F844F8004D
:10341000E36ED7FF8CF40883110410E410E410E489
:103420001905FFFFFFFFFFFFFFFFFFFFFFFFFFFF8C
:1034300073EF00008472EFFFEFBEFFDFFFFFFFFFBF
:10344000FFFFFFFFFFFFFFFFFFFFFFFFFFFFFFFF8C
:10345000FFFFE7DFBA8BF803F845F845F823F800DB
:10346000D4D3D7FF5B4E00213A29A555088310C459
:103470001925FFFFFFFFFFFFFFFFFFFFFFFFFFFF1C
:10348000DEFB08A331E8DF9EE79EEFBFFFFFFFFFF3
:10349000FFFFFFFFFFFFFFFFFFFFFFFFFFFFFFFF3C
:1034A000FFFFF7FFBC51E002F803F003E043C2EC7A
:1034B000CF7EBEFC2146002194D3FFFF8451000043
:1034C0002987FFFFFFFFFFFFFFFFFFFFFFFFFFFF5A
:1034D000FFFF845100008CF4EFFFE79EEFBFFFDF9A
:1034E000FFFFFFFFFFFFFFFFFFFFFFFFFFFFFFFFEC
:1034F000FFFFFFFFDF3DBD55BC52BC72B5B7C75DD6
:10350000DFFF6BF000003A09F7BFFFFFFFFF9D14DC
:10351000A555FFFFFFFFFFFFFFFFFFFFFFFFFFFFBF
:10352000FFFFFFFF4AAC08A4BEBBE7DFE77EEFBEAC
:10353000F7DFFFDFFFFFFFFFFFFFFFFFFFFFFFFFE3
:10354000FFFFFFDFF7DFEFFFDFDFD7BFD79EDFDF54
:10355000A5D808831126D6DBFFFFFFFFFFFFFFFF83
:10356000FFFFFFFFFFFFFFFFFFFFFFFFFFFFFFFF6B
:10357000FFFFEE79DC8B312121A9CF3DDFBFDF7E5C
:10358000E79EEFBEEFBFF7DFF7DFF7DFF7DFF7DF2D
:10359000EFBFEFBEE79EDF7ED75ED75EDFDFB69A76
:1035A00019260842A3EDFFBFFFFFFFFFFFFFFFFF4C
:1035B000FFFFFFFFFFFFFFFFFFFFFFFFFFFFFFFF1B
:1035C000DD74DBC0FE00EE4242022189B67BDFDF04
:1035D000D77EDF7EDF7EE79EE79EE79EE79EE79E43
:1035E000DF7EDF7ED75DD75DDF9EE7FFA5F81107A1
:1035F00018E3C502FD60D3E6EEDBFFFFFFFFFFFF30
:10360000FFFFFFFFFFFFFFFFFFFFFFFFFFFFF79E33
:10361000BA84FCC1FE42FE82FEA2838121457474FD
:10362000C75EDFDFD77ED75ED75DD75ED75ED75D5B
:10363000D75DD75EDF9EE7FFC73D63F10884524246
:10364000E626FF29FE86F3E0C36AFFFFFFFFFFFFC8
:10365000FFFFFFFFFFFFFFFFFFFFFFFFFFFFDE1882
:10366000D2C1FDA2FE22FE42FE42FE62D4E26A41C7
:1036700042497453A63BC73ED7BFD7BFD7BFDFBFB2
:10368000D7BFC73EA61A63F229A74182B422FE62C1
:10369000FE83FEAAFF0FFD67BA63EF3CFFFFFFFF4B
:1036A000FFFFFFFFFFFFFFFFFFFFFFFFFFFFE69AA8
:1036B000D280FD21FDC2F5E2F5C2F582FD82FD62F8
:1036C000DC619B216A846AE9632C63AF7411636EC9
:1036D000632C5A8952047A81CBC2FCE2FD62FD82DE
:1036E000FDC2FDC2FDE4FD24CA62E71CFFFFFFFF2F
:1036F000FFFFFFFFFFFFFFFFFFFFFFFFFFFFFFFFDA
:10370000CCB1D281F3C0FCC1FD02FD02FCE2FCC2DF
:10371000FCC2FC81FB80C9C081A4AD35CE599C712F
:103720008121DA00FBA1FC82FCA2FC82FCA2FD024A
:10373000FD22FCE2FC00DA60CC90FFFFFFFFFFFF00
:10374000FFFFFFFFFFFFFFFFFFFFFFFFFFFFFFFF89
:10375000FFFFDE59C40DCB06D2E4DB03DB03DAE363
:10376000D2C3C2A4B309BCD2F79EFFFFFFFFFFFF85
:10377000E6FBB40EBAA6D283E2E3EB02EB22E3222D
:10378000DB03D2E4C36AD5B6FFFFFFFFFFFFFFFFF5
:10379000FFFF00000000000000000000000000002B
:1037A00000000000000808080808080800001818B1
:1037B000000000486C24120000000000000000001F
:1037C00000000000002424247F1212127F12121223
:1037D00000000000081C2A2A0A0C1828282A2A1C83
:1037E000080800000022251515152A5854545422A3
:1037F00000000000000C1212120A76252911916EA9
:1038000000000006060403000000000000000000A5
:1038100000000040201010080808080808101020B8
:1038200040000002040808101010101010080804CE
:1038300002000000000008086B1C1C6B0808000058
:10384000000000000000080808087F0808080800B9
:10385000000000000000000000000000000006065C
:1038600004030000000000000000FE000000000053
:10387000000000000000000000000000000006063C
:1038800000000000804040202010100808040402BE
:1038900002000000001824424242424242422418E0
:1038A0000000000000080E08080808080808083E84
:1038B00000000000003C4242422020100804427EEA
:1038C00000000000003C4242201820404042221CE0
:1038D0000000000000203028242422227E202078AE
:1038E00000000000007E0202021A26404042221C14
:1038F0000000000000382402021A26424242241826
:1039000000000000007E22221010080808080808A5
:1039100000000000003C4242422418244242423C43
:103920000000000000182442424264584040241C19
:103930000000000000000000181800000000181827
:103940000000000000000000000800000000000867
:103950000804000000402010080402040810204061
:1039600000000000000000007F0000007F00000059
:10397000000000000002040810204020100804028B
:1039800000000000003C4242464020101000181881
:1039900000000000001C225A555555552D42221C8E
:1039A00000000000000808181414243C224242E7DA
:1039B00000000000001F2222221E22424242221F3B
:1039C00000000000007C4242010101010142221C72
:1039D00000000000001F2242424242424242221F97
:1039E00000000000003F4212121E12120242423F2B
:1039F00000000000003F4212121E121202020207D3
:103A000000000000003C2222010101712122221C41
:103A10000000000000E7424242427E42424242E74A
:103A200000000000003E0808080808080808083ED2
:103A300000000000007C101010101010101010106A
:103A4000110F0000007722120A0E0A1212222277AA
:103A50000000000000070202020202020202427F8E
:103A6000000000000077363636362A2A2A2A2A6BCA
:103A70000000000000E346464A4A52525262624742
:103A800000000000001C2241414141414141221CF3
:103A900000000000003F424242423E020202020792
:103AA00000000000001C2241414141414D53321CA5
:103AB00060000000003F4242423E1212222242C7F2
:103AC00000000000007C4242020418204042423EB6
:103AD00000000000007F4908080808080808081CC2
:103AE0000000000000E74242424242424242423C61
:103AF0000000000000E742422224241414180808A1
:103B000000000000006B49494949555536222222E0
:103B10000000000000E7422424181818242442E77B
:103B20000000000000772222141408080808081C6E
:103B300000000000007E2120101008040442423FD3
:103B4000000000780808080808080808080808089D
:103B50007800000002020404080808101020202049
:103B60004040001E101010101010101010101010F7
:103B70001E000038440000000000000000000000AB
:103B80000000000000000000000000000000000035
:103B900000FF000608000000000000000000000018
:103BA0000000000000000000003C4278444242FC5B
:103BB0000000000000030202021A26424242261AB6
:103BC00000000000000000000038440202024438F7
:103BD000000000000060404040784442424264D807
:103BE0000000000000000000003C427E0202423C57
:103BF0000000000000F08808087E08080808083E59
:103C00000000000000000000007C22221C023C4258
:103C1000423C000000030202023A4642424242E7AE
:103C200000000000000C0C00000E08080808083E08
:103C3000000000000030300000382020202020202C
:103C4000221E0000000302020272120A16122277DC
:103C500000000000000E0808080808080808083ED0
:103C60000000000000000000007F9292929292B744
:103C70000000000000000000003B4642424242E7D4
:103C80000000000000000000003C42424242423C72
:103C90000000000000000000001B26424242221EDD
:103CA00002070000000000000078444242424478CD
:103CB00040E000000000000000774C040404041FF2
:103CC0000000000000000000007C42023C40423E38
:103CD0000000000000000008083E0808080808303E
:103CE000000000000000000000634242424262DC2B
:103CF000000000000000000000E74224241408082F
:103D0000000000000000000000EB49495555222248
:103D10000000000000000000007624181818246E2F
:103D2000000000000000000000E7422424141808EE
:103D30000807000000000000007E22100808447EF2
:103D4000000000C020202020201020202020202043
:103D5000C0001010101010101010101010101010C3
:103D600010100006080808080810080808080808C5
:103D700006000C32C200000000000000000000003D
:103D80000000000000000000000000000000000033
:103D90000000000000000000000000000000000023
:103DA0000000000000000000000000000000000013
:103DB0000000000000000000000000000000000003
:103DC000000000000000000000000000C001C00171
:103DD000C001C001C001C001C0018000800080009E
:103DE00080008000800080000000000000000000D3
:103DF0008001C003C003800100000000000000003B
:103E00000000000000000000E01CE01CF01E700E2E
:103E100038071803080184000000000000000000BB
:103E20000000000000000000000000000000000092
:103E30000000000000000000000000000000000082
:103E40000000000000000000000000000000201042
:103E50002010201020102010FE7FFE7F1008100878
:103E600010081008100810081008FE7FFE7F0804D4
:103E70000804080408040804000000000000000012
:103E80000000000000000000000000010001C00769
:103E90006019103118311839183938017001E001F2
:103EA000C0038007000F001D003900311C311C3198
:103EB0000C310C11180DE007000100010001000099
:103EC00000000000000000000000000000001C10C6
:103ED00036186308630C63046304630263026301BE
:103EE000361D9C37802280634063406320632063DB
:103EF000306310221836081C00000000000000008B
:103F00000000000000000000000000000000F000C1
:103F100098018C018C018C018C018C00CC00780004
:103F2000183E1C083608320863046304C304C30344
:103F3000834306438E26781C00000000000000002A
:103F400000000000000000001C003C003C003000AD
:103F5000300010000C00060000000000000000000F
:103F60000000000000000000000000000000000051
:103F70000000000000000000000000000000000041
:103F800000000000000000000040002000100008B9
:103F9000000C000400060003000300038001800100
:103FA0008001800180018001800180010003000305
:103FB000000300060006000C00080010002000406E
:103FC00000000000000000000200040008001000D3
:103FD000300020006000C000C000C00080018001EF
:103FE000800180018001800180018001C000C0004B
:103FF000C0006000600030001000080004000200F3
:1040000000000000000000000000000000000000B0
:10401000000000018003800300011C713C79783DA1
:10402000C0070001C007783D3C791C710001800386
:10403000800380010000000000000000000000007C
:104040000000000000000000000000000000000070
:10405000000000000001000100010001000100015A
:104060000001FC7F000100010001000100010001CE
:10407000000100000000000000000000000000003F
:104080000000000000000000000000000000000030
:104090000000000000000000000000000000000020
:1040A0000000000000000000000000000000000010
:1040B00000001C003C003C003000300010000C00F0
:1040C00006000000000000000000000000000000EA
:1040D00000000000000000000000000000000000E0
:1040E0000000FE7F00000000000000000000000053
:1040F00000000000000000000000000000000000C0
:1041000000000000000000000000000000000000AF
:10411000000000000000000000000000000000009F
:10412000000000000000000000000000000000008F
:1041300018003C003C0018000000000000000000D7
:10414000000000000000000000400060002000307F
:10415000001000180008000C000400060002000314
:10416000000180018000C00040006000200030009D
:104170001000180008000C000400060002000000F7
:104180000000000000000000000000000000C00768
:10419000600C30181830183018200C600C600C605F
:1041A0000C600C600C600C600C600C601820183007
:1041B00018303018600CC00700000000000000003C
:1041C00000000000000000000000000000000001EE
:1041D0008001F8018001800180018001800180015F
:1041E00080018001800180018001800180018001C7
:1041F00080018001C003F81F0000000000000000E3
:104200000000000000000000000000000000E007C7
:10421000101C0818043004300C300C30003000182A
:10422000000800040002000180004000202010204F
:1042300008200430FC1FFC1F0000000000000000EC
:104240000000000000000000000000000000E0038B
:10425000180E0C0C0C180C180C180018000C00068A
:10426000C003000E00180010003000300C300C307D
:104270000C100C18180CE0030000000000000000F7
:104280000000000000000000000000000000000C22
:10429000000E000E000F800E800E400E600E200EED
:1042A000100E100E080E040E040EFE7F000E000EFF
:1042B000000E000E000E000EC07F00000000000087
:1042C0000000000000000000000000000000F03FBF
:1042D000F03F10001000100008000800C807280C6C
:1042E0001818081000300030003000300C300C304E
:1042F00004180418080CF00300000000000000007F
:104300000000000000000000000000000000800F1E
:10431000C010203010301800180008000C008C0F5E
:104320006C183C301C600C600C600C600C601860F9
:10433000182030306018C0070000000000000000A6
:104340000000000000000000000000000000F83F36
:10435000F83F1C100C0804080404000400020002CA
:10436000000100010001800080008000C000C0004A
:10437000C000C000C000C00000000000000000003D
:104380000000000000000000000000000000E00746
:10439000300C18180C300C300C301C3038187008E9
:1043A000E007B007180E0C1C063806300630063041
:1043B00006300C18180CE00300000000000000009C
:1043C0000000000000000000000000000000E0030A
:1043D00018040C080C18061006300630063006309B
:1043E00006380C3C1836F031003000180018001860
:1043F0000C0C0C060C03F001000000000000000093
:1044000000000000000000000000000000000000AC
:104410000000000000000000000000008001C00358
:10442000C003800100000000000000000000000048
:104430008001C003C00380010000000000000000F4
:10444000000000000000000000000000000000006C
:10445000000000000000000000000000C000C000DC
:10446000000000000000000000000000000000004C
:1044700000000000C000C00080008000400040003C
:1044800000000000000000000000000000200010FC
:1044900000080004000600038001C0006000300036
:1044A00018000C00180030006000C00080010003FC
:1044B00000060004000800100020000000000000BA
:1044C00000000000000000000000000000000000EC
:1044D000000000000000000000000000FE7F00005F
:1044E0000000000000000000FE7F0000000000004F
:1044F00000000000000000000000000000000000BC
:10450000000000000000000000000000040008009F
:10451000100020006000C000800100030006000CB5
:10452000001800300018000C000600038001C000D5
:1045300060002000100008000400000000000000DF
:10454000000000000000000000000000C00730185C
:10455000083008600C601C601C601C600030001C8F
:104560000006000180008000800080000000000044
:104570008001C003C00380010000000000000000B3
:104580000000000000000000000000000000C00764
:104590006018103018200C2F8C4D864CC64CC64C21
:1045A000664C66446644662666266615CC1C0C403E
:1045B000082018303018C00700000000000000007C
:1045C0000000000000000000000000000001C00129
:1045D000C001C00140016003200320032003300616
:1045E000100610061006F80F080C080C080C0C0C2E
:1045F0000418041806181F7C0000000000000000CA
:104600000000000000000000000000000000FE07A5
:10461000181C183818301830183018301818180CA2
:10462000F8071818183018201860186018601860FB
:10463000186018301818FE0F00000000000000007D
:104640000000000000000000000000000000C02783
:104650006038103018200C400C40040006000600A2
:104660000600060006000600060006000C400C408E
:104670000C2018303018C0070000000000000000B7
:104680000000000000000000000000000000FE0329
:10469000180E181818301830183018601860186084
:1046A00018601860186018601860186018301830AA
:1046B00018101818180EFE0300000000000000007B
:1046C0000000000000000000000000000000FE3FAD
:1046D0001830182018601840180018081808180C0E
:1046E000F80F180C180818081800180018001840BF
:1046F000184018201830FE3F0000000000000000A5
:104700000000000000000000000000000000FE7F2C
:104710001870184018C018801800181018101818B1
:10472000F81F181818101810180018001800180092
:104730001800180018007E000000000000000000B3
:104740000000000000000000000000000000C01396
:10475000701C101018100C200C200400060006001D
:1047600006000600060006FC063006300C300C3051
:10477000183018303008C0070000000000000000AA
:1047800000000000000000000000000000003F7E6C
:104790000C180C180C180C180C180C180C180C18F9
:1047A0000C18FC1F0C180C180C180C180C180C18F2
:1047B0000C180C180C183F7E0000000000000000D0
:1047C0000000000000000000000000000000F81FD2
:1047D00080018001800180018001800180018001D1
:1047E00080018001800180018001800180018001C1
:1047F000800180018001F81F00000000000000001F
:104800000000000000000000000000000000E07F49
:104810000006000600060006000600060006000668
:104820000006000600060006000600060006000658
:10483000000600060006000600060E060E038E01A6
:10484000FC000000000000000000000000007E7C72
:104850001818180818041806180218019801980169
:10486000D801B803380318071806180E180C181CBE
:104870001818183018307EFC0000000000000000FE
:1048800000000000000000000000000000007E00AA
:104890001800180018001800180018001800180058
:1048A0001800180018001800180018001800184008
:1048B000184018201830FE3F0000000000000000E3
:1048C00000000000000000000000000000001FF8D1
:1048D0001C381C381C381C3C3434343434343436E2
:1048E00074326432643264326431C431C431C431EC
:1048F000C430C43084309FFC000000000000000081
:1049000000000000000000000000000000001F7C0C
:104910001C103C103410341074106410E410C410D7
:10492000C41184118413041304170416041E041CF8
:10493000041C041C04181F180000000000000000E4
:104940000000000000000000000000000000C003A4
:10495000300C181808100C300C3006600660066029
:104960000660066006600660066006600C200C307B
:1049700008101818300CC0030000000000000000F0
:104980000000000000000000000000000000FE0F1A
:1049900018181830186018601860186018601830FF
:1049A0001818F80F18001800180018001800180040
:1049B0001800180018007E00000000000000000031
:1049C0000000000000000000000000000000C00324
:1049D000300C18180C100C300C20066006600660B5
:1049E000066006600660066006600660E4612C33BF
:1049F0001C321816300EC007004C007C0038000036
:104A00000000000000000000000000000000FE07A1
:104A1000181C183818301830183018301818180C9E
:104A2000F80798031803180718061806180E180C2C
:104A3000180C181C18187E780000000000000000F8
:104A40000000000000000000000000000000E0275F
:104A5000303818300C200C200C000C0018007800A6
:104A6000E003800F001E00380070006004600460E6
:104A7000086018303818C80F00000000000000005F
:104A80000000000000000000000000000000FC3FEB
:104A90008C218461824182418001800180018001FA
:104AA00080018001800180018001800180018001FE
:104AB000800180018001E00700000000000000008C
:104AC00000000000000000000000000000003F7C2B
:104AD0000C100C100C100C100C100C100C100C10F6
:104AE0000C100C100C100C100C100C100C100C10E6
:104AF0000C1008083804E00300000000000000006B
:104B000000000000000000000000000000003EF86F
:104B10001820182018203010301030103010600885
:104B200060086008E00CC004C004C0048003800377
:104B3000800380030001000100000000000000006D
:104B40000000000000000000000000000000DFF393
:104B50008661862186218C210C218C238C138C1359
:104B60008C134C1358125816580E380E380E380E37
:104B7000300C1004100410040000000000000000BD
:104B800000000000000000000000000000007E3E69
:104B9000180838083004300470026002E001C001D7
:104BA000C001800180034003400720062006100C4E
:104BB000100C081808183E7C0000000000000000DF
:104BC00000000000000000000000000000007E7CEB
:104BD0001C10181018083008300C700460046002B3
:104BE000C002C002C00180018001800180018001FB
:104BF000800180018001E00700000000000000004B
:104C00000000000000000000000000000000F83F6D
:104C100018180818040C040E00060007000380038F
:104C20008001C001C000E00060007000300038204A
:104C300018201C100C18FE1F0000000000000000CF
:104C40000000000000000000C03F400040004000A5
:104C50004000400040004000400040004000400054
:104C60004000400040004000400040004000400044
:104C7000400040004000400040004000C03F0000B5
:104C80000000000000000000000000000800180004
:104C90001800100030002000600060004000C000DC
:104CA0008000800180010001000300020006000670
:104CB0000004000C0008001800180010003000204C
:104CC0000000000000000000FC03000200020002DF
:104CD00000020002000200020002000200020002C4
:104CE00000020002000200020002000200020002B4
:104CF000000200020002000200020002FC030000A9
:104D000000000000000000008007C006200810100E
:104D10000000000000000000000000000000000093
:104D20000000000000000000000000000000000083
:104D30000000000000000000000000000000000073
:104D40000000000000000000000000000000000063
:104D50000000000000000000000000000000000053
:104D60000000000000000000000000000000000043
:104D70000000000000000000000000000000000033
:104D8000FFFF0000000000007800C00000010000EC
:104D90000000000000000000000000000000000013
:104DA0000000000000000000000000000000000003
:104DB00000000000000000000000000000000000F3
:104DC00000000000000000000000000000000000E3
:104DD000000000000000000000000000F0031806C2
:104DE0000C0C0C0C000C800F700C1C0C0C0C060C2A
:104DF000060C064C0C4FF8380000000000000000C4
:104E000000000000000000000000000010001E0074
:104E1000180018001800180018001800180FD818EB
:104E200038303860186018601860186018601860B2
:104E3000182038307818C807000000000000000073
:104E40000000000000000000000000000000000062
:104E5000000000000000000000000000C007700C0F
:104E6000181818180C180C000C000C000C000C2062
:104E7000182018103008C0070000000000000000D3
:104E80000000000000000000000000000010001EF4
:104E9000001800180018001800180018E01B301C3B
:104EA000181818180C180C180C180C180C180C18CA
:104EB0000818181C307AE00900000000000000000B
:104EC00000000000000000000000000000000000E2
:104ED000000000000000000000000000C007300CCF
:104EE000181808100C300C30FC3F0C000C000C00A3
:104EF000182018107018C007000000000000000003
:104F00000000000000000000000000000000003E63
:104F100080C380C0C0C0C000C000C000FC1FC00073
:104F2000C000C000C000C000C000C000C000C00081
:104F3000C000C000C000F80F00000000000000002A
:104F40000000000000000000000000000000000061
:104F5000000000000000000000000000C077306C7E
:104F600010181818181818181018300CF007180016
:104F70001800F00FF03F08700C600C600C603838BF
:104F8000E00F0000000000000000000010001E0004
:104F9000180018001800180018001800980FD818EA
:104FA00038301830183018301830183018301830A1
:104FB0001830183018307EFC00000000000000009F
:104FC000000000000000000000000000000080035E
:104FD000800380030000000000000001F801800150
:104FE00080018001800180018001800180018001B9
:104FF000800180018001F81F000000000000000017
:105000000000000000000000000000000000003868
:10501000003800380000000000000010801F001859
:1050200000180018001800180018001800180018C0
:10503000001800180018001800180018180C18069E
:10504000F0030000000000000000000010001E003F
:10505000180018001800180018001800183E180C46
:105060001806180318019801D80138031807180604
:10507000180C181C18187E7C0000000000000000AE
:105080000000000000000000000000000001F80126
:105090008001800180018001800180018001800108
:1050A00080018001800180018001800180018001F8
:1050B000800180018001F81F000000000000000056
:1050C00000000000000000000000000000000000E0
:1050D000000000000000000000000800EE1C9C33EF
:1050E0008C318C318C318C318C318C318C318C31D8
:1050F0008C318C318C31DE7B000000000000000020
:10510000000000000000000000000000000000009F
:105110000000000000000000000010001E0FD81862
:10512000383018301830183018301830183018301F
:105130001830183018307EFC00000000000000001D
:10514000000000000000000000000000000000005F
:10515000000000000000000000000000C007701CFC
:10516000103018300C600C600C600C600C600C602F
:10517000183018303018C007000000000000000090
:10518000000000000000000000000000000000001F
:105190000000000000000000000010009E0F5818E2
:1051A000383018201860186018601860186018608F
:1051B00018303830781898071800180018001800B0
:1051C0007E00000000000000000000000000000061
:1051D000000000000000000000000000C023303C80
:1051E000183818300C300C300C300C300C300C30BF
:1051F00008301838303CE0330030003000300030E8
:1052000000FC0000000000000000000000000000A2
:105210000000000000000000000060007E3C6066AE
:105220006061E000E000600060006000600060001D
:10523000600060006000FE07000000000000000049
:10524000000000000000000000000000000000005E
:10525000000000000000000000000000E0273038DF
:105260001830182018007000E003800F001C043074
:1052700004300C301C18EC0F00000000000000008F
:10528000000000000000000000000000000000001E
:105290000000800080008000C000E000FC1FC00013
:1052A000C000C000C000C000C000C000C000C000FE
:1052B000C020C0208011000F00000000000000008E
:1052C00000000000000000000000000000000000DE
:1052D0000000000000000000000010201E3C1830FC
:1052E000183018301830183018301830183018307E
:1052F0001830183830F4E0130000000000000000FF
:10530000000000000000000000000000000000009D
:105310000000000000000000000000007E3C1818A3
:105320001808380830043004700260026002E0019E
:10533000C001C001C00080000000000000000000AB
:10534000000000000000000000000000000000005D
:10535000000000000000000000000000DFF78E6386
:105360000C238C238C239813981358165816700E00
:10537000700E700E200420040000000000000000E9
:10538000000000000000000000000000000000001D
:10539000000000000000000000000000FC3E70085B
:1053A0007004E004C002C00180038003400760066F
:1053B000200C100C18183E7E0000000000000000B9
:1053C00000000000000000000000000000000000DD
:1053D0000000000000000000000000007E7C1818A3
:1053E000180830083008300460046004C002C002AD
:1053F000C0028001800180018000800080004C009C
:105400003C00000000000000000000000000000060
:10541000000000000000000000000000FC1F0C0C59
:10542000040E0406000380038001C000E000702029
:10543000302038301C18FC1F000000000000000065
:10544000000000000000000000300008000400041C
:10545000000400040004000400040004000400042C
:1054600000028001000200040004000400040004A3
:1054700000040004000400040004000400080030DC
:105480000000000100010001000100010001000115
:105490000001000100010001000100010001000104
:1054A00000010001000100010001000100010001F4
:1054B00000010001000100010001000100010001E4
:1054C00000010000000000000C001000200020007F
:1054D00020002000200020002000200020002000CC
:1054E000400080014000200020002000200020001B
:1054F00020002000200020002000200010000C00D0
:10550000000000003800C400864002610022001C38
:10551000000000000000000000000000000000008B
:10552000000000000000000000000000000000007B
:10553000000000000000000000000000000000006B
:105540000000D6D08000800080008000FC1F841006
:105550008410841084108410FC1F8410800080004C
:1055600080008000BEB0F80F0808F80F0808F80F98
:105570008000FF7F0000F80F08080808F80F80007F
:105580008410A2204000D4B00000FE3F0220F22789
:1055900002200220FA2F222122212221122912295F
:1055A0000A2E0220FE3F0220B5E780008000800026
:1055B000FC1F841084108410FC1F8410841084103D
:1055C000FC1F845080408040007FD7D30000FE1F26
:1055D00000080004000280018000FF7F800080003E
:1055E0008000800080008000A0004000D6D0000035
:1055F000000000000018000008000008000008007B
:10560000080818F8FF1F180818180818180818189C
:105610000818180818180818F8FF1F0808080008C4
:105620000000080000080000080000180000180032
:10563000001800000000BEB00000000000004000A4
:1056400006C0FF07400006C0FF07400006C0FF0776
:10565000400802003000FEFF3F000000C0FF07C00E
:105660000002C00002C00002C0FF038010008011D1
:105670000160100E3010180C1E30001C00000000DD
:10568000D4B0000000000000080030F8FF1F080040
:105690001008C010083F1008001008001008001380
:1056A000C8FF100822100822100822100822100833
:1056B000211208211488601648C013280010080021
:1056C00010F8FF1F080010000000B5E70000000000
:1056D0000000001800000800000800000800F0FFAB
:1056E0000F100804100804100804100804F0FF0745
:1056F000100804100804100804100804F0FF071034
:10570000080000081000081000082000183000F001
:105710001F000000D7D3000000000000000004F0CC
:10572000FF0F00000600000100C000002800001864
:1057300000001800001830FEFF7F0018000018005D
:1057400000180000180000180000180000180000E1
:105750001800001800001F00000C00000000D6D048
:105760000000000000000000008000000080010038
:105770000080010000800100008001000080010025
:105780001080010CF0FFFF0F308001043080010415
:105790003080010430800104308001043080010435
:1057A0003080010430800104F0FFFF0730800104E5
:1057B00030800104008001000080010000800100B1
:1057C00000800100008001000080010000800100D5
:1057D0000080010000800100008000000000000047
:1057E000BEB000000000000000000000000000014A
:1057F000800100FFFF01000380010003800100FF22
:10580000FF01000380010003800100FFFF01008110
:105810008100000003000000031CFCFFFF3F0000AC
:1058200040000003C00100FFFF010003C0000003AF
:10583000C0000003C00000FFFF00000141000004A1
:105840000100000E71000007810180010107600066
:10585000010E1898011C04E0011800C000000000AF
:105860000000D4B0000000000000000000000008AC
:10587000F0FFFF1F3000000C3000000C3000100C57
:1058800030FE3F0C3004000C3000000C3000000CE7
:105890003000000C3000C00CF0FFFF0D3030060E61
:1058A0003030060C3010060C3010060C3010060C90
:1058B0003018860C3018860C3008060D300C860D1A
:1058C0003006EE0F3002FC0D3001000CF000000C31
:1058D0003000000CF0FFFF0F3000000C100000043F
:1058E00000000000B5E7000000000000000000C05C
:1058F000000000C0010000C0000000C0000000C0A7
:10590000000000C00000E0FFFF0360C0000360C0B3
:10591000000360C0000360C0000360C0000360C0FB
:105920000003E0FFFF0360C0000360C0000360C02D
:10593000000360C0000360C00003E0FFFF0360C01D
:10594000000160C0000000C0000800C0001000C0DE
:10595000001000C0001800C001380080FF1F0000C8
:10596000000000000000D7D300000000000000008D
:105970000000000000000003C0FFFF0700008007D8
:105980000000C000000060000000180000000C00D3
:1059900000800300008003000080010000800108F7
:1059A0000080011CFCFFFF3F00800100008001001F
:1059B00000800100008001000080010000800100E3
:1059C00000800100008001000080010000800100D3
:1059D000008001000080010000FC010000E00000E8
:1059E0000040000000000000085A000800000020ED
:1059F00054000000280100085C5A000854000020F0
:105A00002C0700004401000800A24A040000000026
:105A1000000000000102030406070809D918000865
:105A2000F51A0008F1110008000000000000000055
:105A30000000000000000000000000000000000066
:105A4000000000000000000000000000D0900000F6
:0C5A50000000000000000000000000004A
:04000005080000ED02
:00000001FF
