:0300000002630B8D
:0C630B00787FE4F6D8FD75812102635212
:101DB300D6D0BEB0D4B0B5E7D7D3004C43445F57B9
:101DC3003A004C43445F483A00583A00593A00FFFE
:101DD300FFFFFFFFFFFFFFFFFFFFFFFFFFFFFFFF10
:101DE300FFFFFFFFFFFFFFFFFFFFFFFFFFF7BEFF49
:101DF300FFFFDEC6388C926B8E6B6E7C10AD96E760
:101E03003CFFFFFFFFFFFFFFFFFFFFFFFFFFFFFFA2
:101E1300FFFFFFFFFFFFFFFFFFFFFFFFFFFFFFFFCF
:101E2300FFFFFFFFFFFFFFFFFFFFFFFFFFFFFFFFBF
:101E3300FFFFFFFFFFFFFFFFFFFFFFFFFFEF5D9DC3
:101E430015634F426C320A298819461925214531F9
:101E5300E86B8EC638FFFFFFFFFFFFFFFFFFFFFFAB
:101E6300FFFFFFFFFFFFFFFFFFFFFFFFFFFFFFFF7F
:101E7300FFFFFFFFFFFFFFFFFFFFFFFFFFFFFFFF6F
:101E8300FFFFFFFFFFFFFFFFFFFFFFA53653104BD1
:101E93001053514B0F3A6C31E92167192510E408AF
:101EA300A30062088352CBD69AFFFFFFFFFFFFFF19
:101EB300FFFFFFFFFFFFFFFFFFFFFFFFFFFFFFFF2F
:101EC300FFFFFFFFFFFFFFFFFFFFFFFFFFFFFFFF1F
:101ED300FFFFFFFFFFFFFFE73C637063B37CB86363
:101EE300F54311324D29EA218819261905190511DF
:101EF30004110410E4008308A38C72FFFFFFFFFFAB
:101F0300FFFFFFFFFFFFFFFFFFFFFFFFFFFFFFFFDE
:101F1300FFFFFFFFFFFFFFFFFFFFFFFFFFFFFFFFCE
:101F2300FFFFFFFFFFDEDB3A4B42F06C354B5432D1
:101F3300B12A2E21EB21A9196719051104110411E6
:101F43000411041104190510E4004273AFFFFFFFED
:101F5300FFFFFFFFFFFFFFFFFFFFFFFFFFFFFFFF8E
:101F6300FFFFFFFFFFFFFFFFFFFFFFFFFFFFFFFF7E
:101F7300FFFFFFEF5D3209324C4B10328F2A4F2A9D
:101F83002E19CC1989218919471905110411041037
:101F9300C410C411041104110410E400428431FF7D
:101FA300FFFFFFFFFFFFFFFFFFFFFFFFFFFFFFFF3E
:101FB300FFFFFFFFFFFFFFFFFFFFFFFFFFFFFFFF2E
:101FC300FFFFFF52EC1947324C2A0B21EC21EC2284
:101FD3000C5B914AEE11061926190410E410E4294A
:101FE300A7216608A319051104110410E40082BD9A
:101FF300F7FFFFFFFFFFFFFFFFFFFFFFFFFFFFFFF6
:10200300FFFFFFFFFFFFFFFFFFFFFFFFFFFFFFFFDD
:10201300FFA535088321882188218921AA218A42A5
:102023006B8C71FFFF8C720883110408C44229DE94
:10203300FBEF5D5AEC08831104110411040883318A
:10204300E8FFDFFFFFFFFFFFFFFFFFFFFFFFFFFFD4
:10205300FFFFFFFFFFFFFFFFFFFFFFFFFFFFFFF795
:10206300BE31C710C4192519261947194729A85283
:102073008A4A28AD55FFFF31E808A319056B4D6B5C
:102083004DFFFFEF7D214510C4110411041104001D
:1020930062AD76FFFFFFFFFFFFFFFFFFFFFFFFFFC5
:1020A300FFFFFFFFFFFFFFFFFFFFFFFFFFFFFFB587
:1020B300960062110419041105190508C44A8BB569
:1020C300B6EF5DBDF7FFFF6B8E006242295AAA424D
:1020D30008FFFFFFFF52CC08831104110411040809
:1020E300A352ADFFFFFFFFFFFFFFFFFFFFFFFFFF58
:1020F300FFFFFFFFFFE71CFFFFFFFFFFFFFFFF6384
:102103004E006211041104110410E40062638EFF97
:10211300FFFFFFFFFFFFFF73CF00019CF3632CB5AD
:1021230096FFFFFFFF5B2D008311041104110410C0
:10213300E42167EF3DFFFFFFFFFFFFFFFFFFFFBD51
:10214300F8B5B7EF9E52CB94B3FFFFFFFFFFDF312C
:10215300E808A3110411041104110408A34249F768
:10216300FFF7FFFFFFFFFF4A6A00018472FFFFFFD3
:10217300FFF7FFEFDF3A0908A3110411041104115B
:10218300041105BE18FFFFFFFFFFFFFFFFFFFF7BEB
:10219300F0006231E831C70041A535FFFFEF5D2153
:1021A3004610C4110411041104110410E408A39D82
:1021B30076F7FFFFFFADB708A308A331C7E79EF784
:1021C300FFF7FFA57608A310E4110411041104110D
:1021D300051105A535FFFFFFFFFFFFFFFFFFFFDE33
:1021E300DB29A7008310C410C410C4E71CEF9E11A1
:1021F3000510E41104110411041104190408C41096
:10220300E56BD16BD108C5006408A50043322B9D53
:102213007784B3192510C41104110411041104198E
:102223002509269D35FFFFFFFFFFFFFFFFFFFFFF90
:10223300FF73AF00621904190500825B0D9B8E10BA
:1022430062110511041104190410E4008511053904
:10225300C45A817B409C22AC43A4039B8372824972
:102263008218C200A400C510E41904110419051949
:102273004711675AECFFBEFFFFFFFFFFFFFFFFFFA2
:10228300DFDEDB10C410E41104110518A4C00188BB
:102293008300E41905190408C521448343D523FEAB
:1022A30042FEE4FF27FF07FEA4FE64FE03FDA3FC3A
:1022B300E2EC42B383622410E508C4190419261919
:1022C300A821879000BCD3FFFFFFFFFFFFFFFFFFA5
:1022D300DFFFFF7C100042190511052883D001F8A8
:1022E3004448A300E408C55A44ED02FDE2FE02FEA1
:1022F30066FF74FFB8FF73F6E7F6A6F645F5A4FC90
:10230300C3FC62FCC2FCC2CBE349C41106198801B9
:102313008790A4F8019AECFFFFFFFFFFFFFFFFFF89
:10232300FFFFFFF7BE31E8008309054082C001F8D3
:1023330023F08548A300A45A44FD02CC23DCC2FE4B
:1023430004FE28F648F646F624F5E4FD64FCE3FCB7
:1023530062FCC2E402DC02FCE27AA4014801677871
:10236300C4F824F802B084E77DFFFFFFFFFFFFFFFF
:10237300FFFFFFFFFFDEDB192500A338C4E002D80F
:1023830022F844F8A678A400632143728339839B1F
:1023930082F521FD61FD22FCE2FCA2FC42FC42FC31
:1023A30042AB22418392C352040126192598A4F813
:1023B30044F823F802D0A4EF9EFFFFFFFFFFFFFFC7
:1023C300FFFFFFFFFFFFFFD69A298700A5B843F859
:1023D30022E023F865F8E8C9074883004200A30018
:1023E3008429637AA2B362CBA2D362BB028A823905
:1023F3008300A400E500E508E560C4D864F844F868
:1024030024F823F8028883C6DBFFFFFFFFFFFFFFEB
:10241300FFFFFFFFFFFFFFFFFFE73D5B503108E8D2
:1024230023F843F044F865F909F9ABD189890648E3
:10243300A3184200020042006100820062006200B1
:102443008320A350C488A5D885F865F844F844F8D8
:1024530023F823D003108229C7EF5DFFFFFFFFFF9F
:10246300FFFFFFFFFFFFFFFFFFFFFFFFFF326C38A0
:10247300A5D802F823F865F866F8A7F94AFA0CFA22
:102483004DEA4CD20BB9A9B168A947B127B907D115
:1024930007E8E7F8C7F8A7F865F865F844F823F8FC
:1024A30003D00228A3090508C45AECFFFFFFFFFF6E
:1024B300FFFFFFFFFFFFFFFFFFFFFFDEFB1905002D
:1024C300C441A7C0E6F803F886F8A7F887F886F8AA
:1024D300C7F929F98AF9ABF9ABF98BF96AF929F943
:1024E30008F8C7F8A6F886F865F864F823F002B18F
:1024F30006292500E410E4192519259D14FFFFFF83
:10250300FFFFFFFFFFFFFFFFFFFFFFAD9600620826
:10251300829535CEBAA28BD044F825F887F8A7F870
:10252300C7F8A7F887F886F886F886F887F8A7F833
:10253300A7F8A6F885F865F864F024B864930DB697
:10254300BB63CF0883110410E421663A49EF5DFFB2
:10255300FFFFFFFFFFFFFFFFFFFFFF94D3004210CA
:10256300E4CEBBFFFFE7BEB576AACCC107E045F8D2
:1025730045F846F866F886F886F886F886F865F82A
:1025830045F865E865D044A84388019082D73CEFBD
:10259300FF95550883110411041905194694B3FFD7
:1025A300FFFFFFFFFFFFFFFFFFFFFF94B30041218A
:1025B30086DF5DFFFFFFFFFFFFE7DFC67AB4D3B31C
:1025C3004EC22AD168E0E6E8A6E8A5E8A5D8E6C9A0
:1025D30088A906A822A802A000C800D800E5F7E74A
:1025E300FFADF810C410E4110410E411054A8BFF89
:1025F300FFFFFFFFFFFFFFFFFFFFFFA5550041297F
:10260300A7DF5DF7FFFFFFFFFFFFFFFFFFFFFFEF09
:10261300FFDF7DCEDBCE59CDF8CDD7C5F7CE79BE62
:10262300FBA2ABF003F845D042E843F000D472DFDD
:10263300FFAE3910E410E4110410E411052987FFFB
:10264300FFFFFFFFFFFFFFFFFFFFFFCE59088321BF
:1026530046D71CF7FFFFFFFFFFFFFFFFFFFFFFFF53
:10266300FFFFFFFFFFFFFFFFFFFFFFFFFFFFFFEF87
:10267300FFBA8BF804F845E062F044F800DB8EDF24
:10268300FFA5F810C410E410E4110410E41925FFA9
:10269300FFFFFFFFFFFFFFFFFFFFFFF7BE298708D5
:1026A30083B639F7FFF7DFFFFFFFFFFFFFFFFFFFF2
:1026B300FFFFFFFFFFFFFFFFFFFFFFFFFFFFFFE73F
:1026C300BEBA4AF803F845F864F844F800E36ED755
:1026D300FF8CF40883110410E410E410E41905FFDF
:1026E300FFFFFFFFFFFFFFFFFFFFFFFFFF73EF0092
:1026F300008472EFFFEFBEFFDFFFFFFFFFFFFFFF6F
:10270300FFFFFFFFFFFFFFFFFFFFFFFFFFFFFFE7EE
:10271300DFBA8BF803F845F845F823F800D4D3D78C
:10272300FF5B4E00213A29A555088310C41925FFE4
:10273300FFFFFFFFFFFFFFFFFFFFFFFFFFDEFB08C2
:10274300A331E8DF9EE79EEFBFFFFFFFFFFFFFFF21
:10275300FFFFFFFFFFFFFFFFFFFFFFFFFFFFFFF78E
:10276300FFBC51E002F803F003E043C2ECCF7EBEAE
:10277300FC2146002194D3FFFF845100002987FFE9
:10278300FFFFFFFFFFFFFFFFFFFFFFFFFFFFFF84D1
:102793005100008CF4EFFFE79EEFBFFFDFFFFFFF69
:1027A300FFFFFFFFFFFFFFFFFFFFFFFFFFFFFFFF36
:1027B300FFDF3DBD55BC52BC72B5B7C75DDFFF6BD4
:1027C300F000003A09F7BFFFFFFFFF9D14A555FF77
:1027D300FFFFFFFFFFFFFFFFFFFFFFFFFFFFFFFF06
:1027E300FF4AAC08A4BEBBE7DFE77EEFBEF7DFFF1F
:1027F300DFFFFFFFFFFFFFFFFFFFFFFFFFFFFFFF06
:10280300DFF7DFEFFFDFDFD7BFD79EDFDFA5D80816
:10281300831126D6DBFFFFFFFFFFFFFFFFFFFFFF55
:10282300FFFFFFFFFFFFFFFFFFFFFFFFFFFFFFEEC6
:1028330079DC8B312121A9CF3DDFBFDF7EE79EEF1E
:10284300BEEFBFF7DFF7DFF7DFF7DFF7DFEFBFEF4E
:10285300BEE79EDF7ED75ED75EDFDFB69A19260816
:1028630042A3EDFFBFFFFFFFFFFFFFFFFFFFFFFFE0
:10287300FFFFFFFFFFFFFFFFFFFFFFFFFFDD74DB36
:10288300C0FE00EE4242022189B67BDFDFD77EDF46
:102893007EDF7EE79EE79EE79EE79EE79EDF7EDF85
:1028A3007ED75DD75DDF9EE7FFA5F8110718E3C567
:1028B30002FD60D3E6EEDBFFFFFFFFFFFFFFFFFF3D
:1028C300FFFFFFFFFFFFFFFFFFFFFFF79EBA84FC41
:1028D300C1FE42FE82FEA2838121457474C75EDF7E
:1028E300DFD77ED75ED75DD75ED75ED75DD75DD79F
:1028F3005EDF9EE7FFC73D63F108845242E626FF91
:1029030029FE86F3E0C36AFFFFFFFFFFFFFFFFFF20
:10291300FFFFFFFFFFFFFFFFFFFFFFDE18D2C1FD39
:10292300A2FE22FE42FE42FE62D4E26A41424974A2
:1029330053A63BC73ED7BFD7BFD7BFDFBFD7BFC79E
:102943003EA61A63F229A74182B422FE62FE83FEE9
:10295300AAFF0FFD67BA63EF3CFFFFFFFFFFFFFF17
:10296300FFFFFFFFFFFFFFFFFFFFFFE69AD280FDA0
:1029730021FDC2F5E2F5C2F582FD82FD62DC619BB9
:10298300216A846AE9632C63AF7411636E632C5A02
:102993008952047A81CBC2FCE2FD62FD82FDC2FD55
:1029A300C2FDE4FD24CA62E71CFFFFFFFFFFFFFF38
:1029B300FFFFFFFFFFFFFFFFFFFFFFFFFFCCB1D2D2
:1029C30081F3C0FCC1FD02FD02FCE2FCC2FCC2FCBF
:1029D30081FB80C9C081A4AD35CE599C718121DAB8
:1029E30000FBA1FC82FCA2FC82FCA2FD02FD22FCF6
:1029F300E2FC00DA60CC90FFFFFFFFFFFFFFFFFF69
:102A0300FFFFFFFFFFFFFFFFFFFFFFFFFFFFFFDEF4
:102A130059C40DCB06D2E4DB03DB03DAE3D2C3C232
:102A2300A4B309BCD2F79EFFFFFFFFFFFFE6FBB491
:102A33000EBAA6D283E2E3EB02EB22E322DB03D25C
:0F2A4300E4C36AD5B6FFFFFFFFFFFFFFFFFFFFF2
:1044B2009004A6123AF10000000012592D9004B4A3
:1044C200E4F0A374A0F074FFA3F0A3F07B807A0061
:1044D200E4FDFCFFFE12625F74FF9004AAF0A3F0F9
:1044E200FB7A1D79B39004B574F8F0A3E4F074FF7D
:1044F200A3F0A3F0A37418F0E4A3F0FDFCFFFE12F6
:104502005BC67BFF7A1D79BE9004B574F8F0A3E414
:10451200F074FFA3F0A3F0A37410F0E4A3F07D1EE7
:10452200FC7F18FE1263979004B2123AF100000069
:10453200809004B67403F0A374F8F0A3E4F074FF5F
:10454200A3F0A3F0A37410F07D1E7C007F487E00D0
:10455200125E2F7BFF7A1D79C59004B574F8F0A323
:10456200E4F074FFA3F0A3F0A37410F0E4A3F07DD1
:1045720032FC7F18FE1263979004B2123AF10000E7
:1045820000A09004B67403F0A374F8F0A3E4F074EE
:10459200FFA3F0A3F0A37410F07D327C007F487E6D
:1045A20000125E2F9004A6E0FCA3E0FDA3E0FEA3B0
:1045B200E0FF9004B2123AE59004B67404F0A374DA
:1045C200F8F0A3E4F074FFA3F0A3F0A37410F07D5D
:1045D200507C007F147E00125A7C9004A6E0FCA35B
:1045E200E0FDA3E0FEA3E0FF7BAE7A4779E1783DF0
:1045F2001233349004A6123AE59004B4E4F0A374A2
:1046020028F0A374FFF0A3741DF0A374D2F07B28EA
:104612007A007D507C007F417E00125F587FE87EE9
:104622000312679F9004B4E4F0A374A0F074FFA394
:10463200F0A3F07B807A00E4FDFCFFFE12625F12C1
:1046420067537BFF7A1D79CC9004B574F8F0A3E42C
:10465200F074FFA3F0A3F0A37410F0E4A3F07D784C
:10466200FC7F0AFE1263979004B2123AF100000036
:10467200009004B67403F0A374F8F0A3E4F074FF9E
:10468200A3F0A3F0A37410F07D787C007F1A7E0063
:10469200125E2F7BFF7A1D79CF9004B574F8F0A3D8
:1046A200E4F074FFA3F0A3F0A37410F0E4A3F07D90
:1046B2008CFC7F0AFE1263979004B2123AF100005A
:1046C20000009004B67403F0A374F8F0A3E4F0744D
:1046D200FFA3F0A3F0A37410F07D8C7C007F1A7E00
:1046E20000125E2F2096FD7F017E0012679F1260EE
:1046F20076EF60F09004AAE0B4FF23A3E0B4FF1EBB
:10470200900576E0FFA3E09004AACFF0A3EFF0902B
:104712000578E0FFA3E09004ACCFF0A3EFF09004A3
:10472200ACE0FCA3E0FD900576E0FAA3E0FBA3E099
:10473200FFA3E09004B4CFF0A3EFF0A3E4F0A374DE
:104742001FF09004AAE0FEA3E0FF124F1790057637
:10475200E0FFA3E09004AACFF0A3EFF0900578E089
:10476200FFA3E09004ACCFF0A3EFF07BFF7A1D79BA
:10477200CC9004B574F8F0A3E4F074FFA3F0A3F0B6
:10478200A37410F0E4A3F07D78FC7F0AFE12639715
:10479200900576E0FEA3E0FFE4FCFD9004B2123A3D
:1047A200E59004B67403F0A374F8F0A3E4F074FF88
:1047B200A3F0A3F0A37410F07D787C007F1A7E0032
:1047C200125E2F7BFF7A1D79CF9004B574F8F0A3A7
:1047D200E4F074FFA3F0A3F0A37410F0E4A3F07D5F
:1047E2008CFC7F0AFE126397900578E0FEA3E0FF3F
:1047F200E4FCFD9004B2123AE59004B67403F0A30F
:1048020074F8F0A3E4F074FFA3F0A3F0A37410F023
:0E4812007D8C7C007F1A7E00125E2F0246E62F
:04679B007F647E0099
:10679F00EF4E60157D087C07ED1DAA0470011C4AA1
:0967AF0070F6EF1F70EA1E80E78E
:0167B80022BE
:10672D00C286E4FEEEC39408748094805015C28036
:10673D00EF30E704D2818002C281D280EF25E0FFE5
:05674D000E80E1D28680
:016752002224
:0F67E5001267F77F051267F47F3C1267F47F3C61
:0367F40002672D0C
:0767D0002401FFE03400FE8C
:0E67D700AD07AC06ECFF12672DAF0502672D73
:0867F700C28312672DD2832238
:106692009004DBEEF0A3EFF0A3ECF0A3EDF07F2A81
:1066A2001267F79004DCE02402FF9004DB1267D348
:1066B200EB2402FFE43AFE1267D77F2B1267F790B2
:1066C20004DEE09004DD1267D09004E2E09004E181
:0966D2001267D07F2C1267F72239
:10592D00C28212679BD28212679BD28412679B7FC1
:10593D00111267F77F787E0012679F7FB11267E5BE
:10594D007FB21267E57FB31267E51267E87FB41285
:10595D0067F77F031267F47FC01267F77F2812671E
:10596D00F47F081267F47F041267F47FC11267F7A2
:10597D007FC01267F47FC21267F77F0D1267F4E4E0
:10598D00FF1267F47FC31267F77F8D1267F47F2ACA
:10599D001267F47FC41267F77F8D1267F47FEE12E2
:1059AD0067F47FC51267F77F1A1267F47F361267A7
:1059BD00F77FC01267F47FE01267F77F041267F478
:1059CD007F221267F47F071267F47F0A1267F47F54
:1059DD002E1267F47F301267F47F251267F47F2A49
:1059ED001267F47F281267F47F261267F47F2E1258
:1059FD0067F47F3A1267F4E4FF1267F47F011267D0
:105A0D00F47F031267F47F131267F47FE11267F7D7
:105A1D007F041267F47F161267F47F061267F47F16
:105A2D000D1267F47F2D1267F47F261267F47F2322
:105A3D001267F47F271267F47F271267F47F251210
:105A4D0067F47F2D1267F47F3B1267F4E4FF126752
:105A5D00F47F011267F47F041267F47F131267F469
:0F5A6D007F3A1267F77F051267F47F290267F708
:1000030000000000000000000000000000000000ED
:100013000000000808080808080800001818000075
:1000230000486C24120000000000000000000000E3
:100033000000002424247F1212127F1212120000E7
:100043000000081C2A2A0A0C1828282A2A1C080837
:1000530000000022251515152A5854545422000077
:100063000000000C1212120A76252911916E00006D
:10007300000606040300000000000000000000006A
:10008300004020101008080808080810102040003D
:1000930000020408081010101010100808040200D1
:1000A3000000000008086B1C1C6B0808000000001F
:1000B30000000000080808087F080808080000007E
:1000C300000000000000000000000000060604031A
:1000D3000000000000000000FE000000000000001F
:1000E3000000000000000000000000000606000001
:1000F3000000804040202010100808040402020081
:1001030000000018244242424242424224180000A6
:10011300000000080E08080808080808083E000048
:100123000000003C4242422020100804427E0000AE
:100133000000003C4242201820404042221C0000A4
:10014300000000203028242422227E202078000072
:100153000000007E0202021A26404042221C0000D8
:10016300000000382402021A2642424224180000EA
:100173000000007E2222101008080808080800006A
:100183000000003C4242422418244242423C000008
:10019300000000182442424264584040241C0000DE
:1001A30000000000000018180000000018180000EC
:1001B3000000000000000008000000000008080420
:1001C3000000004020100804020408102040000032
:1001D3000000000000007F0000007F00000000001E
:1001E3000000000204081020402010080402000050
:1001F3000000003C42424640201010001818000046
:100203000000001C225A555555552D42221C000052
:100213000000000808181414243C224242E700009E
:100223000000001F2222221E22424242221F0000FF
:100233000000007C4242010101010142221C000036
:100243000000001F2242424242424242221F00005B
:100253000000003F4212121E12120242423F0000EF
:100263000000003F4212121E121202020207000097
:100273000000003C2222010101712122221C000006
:10028300000000E7424242427E42424242E700000F
:100293000000003E0808080808080808083E000097
:1002A3000000007C10101010101010101010110F0F
:1002B3000000007722120A0E0A121222227700008F
:1002C300000000070202020202020202427F000053
:1002D30000000077363636362A2A2A2A2A6B00008F
:1002E300000000E346464A4A525252626247000007
:1002F3000000001C2241414141414141221C0000B8
:100303000000003F424242423E0202020207000056
:100313000000001C2241414141414D53321C600009
:100323000000003F4242423E1212222242C7000016
:100333000000007C4242020418204042423E00007A
:100343000000007F4908080808080808081C000086
:10035300000000E74242424242424242423C000025
:10036300000000E742422224241414180808000065
:100373000000006B494949495555362222220000A5
:10038300000000E7422424181818242442E7000040
:10039300000000772222141408080808081C000033
:1003A3000000007E2120101008040442423F000098
:1003B30000780808080808080808080808087800EA
:1003C3000000020204040808081010202020404006
:1003D300001E1010101010101010101010101E001E
:1003E300003844000000000000000000000000008E
:1003F300000000000000000000000000000000FFFB
:1004030000060800000000000000000000000000DB
:10041300000000000000003C4278444242FC00001F
:10042300000000030202021A26424242261A00007A
:1004330000000000000000384402020244380000BB
:1004430000000060404040784442424264D80000CB
:10045300000000000000003C427E0202423C00001B
:10046300000000F08808087E08080808083E00001D
:10047300000000000000007C22221C023C42423C9F
:10048300000000030202023A4642424242E70000F1
:100493000000000C0C00000E08080808083E0000CD
:1004A3000000003030000038202020202020221EB1
:1004B3000000000302020272120A161222770000E1
:1004C3000000000E0808080808080808083E000095
:1004D300000000000000007F9292929292B7000009
:1004E300000000000000003B4642424242E7000099
:1004F300000000000000003C42424242423C000037
:10050300000000000000001B26424242221E020798
:10051300000000000000007844424242447840E07A
:1005230000000000000000774C040404041F0000D6
:10053300000000000000007C42023C40423E0000FC
:10054300000000000008083E080808080830000002
:1005530000000000000000634242424262DC0000EF
:1005630000000000000000E74224241408080000F3
:1005730000000000000000EB49495555222200000D
:10058300000000000000007624181818246E0000F4
:1005930000000000000000E74224241418080807A4
:1005A300000000000000007E22100808447E0000C6
:1005B30000C0202020202010202020202020C00048
:1005C3001010101010101010101010101010101028
:1005D30000060808080808100808080808080600A4
:1005E3000C32C20000000000000000000000000008
:1005F30000000000000000000000000000000000F8
:1006030000000000000000000000000000000000E7
:1006130000000000000000000000000000000000D7
:1006230000000000000000000000000000000000C7
:1006330000000000000000000000C001C001C00174
:10064300C001C001C001C0018000800080008000A3
:100653008000800080000000000000000000800196
:10066300C003C00380010000000000000000000080
:10067300000000000000E01CE01CF01E700E3807B4
:1006830018030801840000000000000000000000BF
:100693000000000000000000000000000000000057
:1006A3000000000000000000000000000000000047
:1006B30000000000000000000000000020102010D7
:1006C300201020102010FE7FFE7F10081008100855
:1006D3001008100810081008FE7FFE7F08040804A5
:1006E30008040804080400000000000000000000E3
:1006F300000000000000000000010001C0076019B5
:10070300103118311839183938017001E001C0036C
:100713008007000F001D003900311C311C310C31E2
:100723000C11180DE007000100010001000000009A
:100733000000000000000000000000001C1036183C
:100743006308630C63046304630263026301361D7D
:100753009C3780228063406340632063206330635F
:1007630010221836081C00000000000000000000E2
:10077300000000000000000000000000F0009801ED
:100783008C018C018C018C018C00CC007800183E0C
:100793001C083608320863046304C304C303834399
:1007A30006438E26781C00000000000000000000B5
:1007B3000000000000001C003C003C003000300042
:1007C30010000C0006000000000000000000000004
:1007D3000000000000000000000000000000000016
:1007E3000000000000000000000000000000000006
:1007F3000000000000000040002000100008000C72
:10080300000400060003000300038001800180014F
:100813008001800180018001800100030003000347
:1008230000060006000C0008001000200040000035
:100833000000000000000200040008001000300067
:1008430020006000C000C000C00080018001800162
:1008530080018001800180018001C000C000C000D0
:100863006000600030001000080004000200000077
:100873000000000000000000000000000000000075
:1008830000018003800300011C713C79783DC0079F
:100893000001C007783D3C791C710001800380038F
:1008A30080010000000000000000000000000000C4
:1008B3000000000000000000000000000000000035
:1008C300000000010001000100010001000100011E
:1008D300FC7F000100010001000100010001000193
:1008E3000000000000000000000000000000000005
:1008F30000000000000000000000000000000000F5
:1009030000000000000000000000000000000000E4
:1009130000000000000000000000000000000000D4
:100923001C003C003C003000300010000C000600AE
:1009330000000000000000000000000000000000B4
:1009430000000000000000000000000000000000A4
:10095300FE7F000000000000000000000000000017
:100963000000000000000000000000000000000084
:100973000000000000000000000000000000000074
:100983000000000000000000000000000000000064
:10099300000000000000000000000000000018003C
:1009A3003C003C00180000000000000000000000B4
:1009B3000000000000000040006000200030001034
:1009C30000180008000C00040006000200030001E8
:1009D30080018000C0004000600020003000100053
:1009E300180008000C0004000600020000000000CC
:1009F300000000000000000000000000C007600CC1
:100A030030181830183018200C600C600C600C6023
:100A13000C600C600C600C600C60182018301830EF
:100A23003018600CC0070000000000000000000048
:100A33000000000000000000000000000001800131
:100A4300F801800180018001800180018001800123
:100A5300800180018001800180018001800180018B
:100A63008001C003F81F0000000000000000000028
:100A7300000000000000000000000000E007101C60
:100A83000818043004300C300C3000300018000813
:100A930000040002000180004000202010200820F4
:100AA3000430FC1FFC1F00000000000000000000D9
:100AB300000000000000000000000000E003180E2A
:100AC3000C0C0C180C180C180018000C0006C003B2
:100AD300000E00180010003000300C300C300C10E9
:100AE3000C18180CE00300000000000000000000D8
:100AF300000000000000000000000000000C000ED9
:100B0300000E000F800E800E400E600E200E100EA1
:100B1300100E080E040E040EFE7F000E000E000ED3
:100B2300000E000E000EC07F000000000000000059
:100B3300000000000000000000000000F03FF03F54
:100B430010001000100008000800C807280C18182F
:100B5300081000300030003000300C300C30041826
:100B63000418080CF003000000000000000000005F
:100B7300000000000000000000000000800FC01013
:100B8300203010301800180008000C008C0F6C186F
:100B93003C301C600C600C600C600C60186018200A
:100BA30030306018C00700000000000000000000A3
:100BB300000000000000000000000000F83FF83FC4
:100BC3001C100C08040804040004000200020001C5
:100BD30000010001800080008000C000C000C00050
:100BE300C000C000C00000000000000000000000C2
:100BF300000000000000000000000000E007300CCF
:100C030018180C300C300C301C3038187008E00702
:100C1300B007180E0C1C06380630063006300630B6
:100C23000C18180CE0030000000000000000000096
:100C3300000000000000000000000000E0031804B2
:100C43000C080C180610063006300630063006383D
:100C53000C3C1836F03100300018001800180C0C4A
:100C63000C060C03F001000000000000000000006F
:100C73000000000000000000000000000000000071
:100C8300000000000000000000008001C003C0035A
:100C9300800100000000000000000000000080014F
:100CA300C003C0038001000000000000000000003A
:100CB3000000000000000000000000000000000031
:100CC30000000000000000000000C000C0000000A1
:100CD3000000000000000000000000000000000011
:100CE3000000C000C0008000800040004000000001
:100CF30000000000000000000000002000100008B9
:100D03000004000600038001C000600030001800EA
:100D13000C00180030006000C000800100030006D2
:100D23000004000800100020000000000000000084
:100D330000000000000000000000000000000000B0
:100D430000000000000000000000FE7F0000000023
:100D5300000000000000FE7F000000000000000013
:100D63000000000000000000000000000000000080
:100D73000000000000000000000004000800100054
:100D830020006000C000800100030006000C001872
:100D930000300018000C000600038001C000600052
:100DA3002000100008000400000000000000000004
:100DB30000000000000000000000C00730180830E9
:100DC30008600C601C601C601C600030001C000686
:100DD300000180008000800080000000000080018E
:100DE300C003C003800100000000000000000000F9
:100DF300000000000000000000000000C0076018B1
:100E0300103018200C2F8C4D864CC64CC64C664CAB
:100E130066446644662666266615CC1C0C4008208C
:100E230018303018C0070000000000000000000068
:100E3300000000000000000000000001C001C0012C
:100E4300C001400160032003200320033006100685
:100E530010061006F80F080C080C080C0C0C0418EC
:100E6300041806181F7C00000000000000000000AA
:100E7300000000000000000000000000FE07181C36
:100E8300183818301830183018301818180CF8079C
:100E93001818183018201860186018601860186047
:100EA30018301818FE0F00000000000000000000BA
:100EB300000000000000000000000000C0276038B0
:100EC300103018200C400C400400060006000600F9
:100ED300060006000600060006000C400C400C202D
:100EE30018303018C00700000000000000000000A8
:100EF300000000000000000000000000FE03180EC8
:100F030018181830183018301860186018601860F6
:100F130018601860186018601860183018301810BE
:100F23001818180EFE030000000000000000000067
:100F3300000000000000000000000000FE3F183029
:100F4300182018601840180018081808180CF80F13
:100F5300180C180818081800180018001840184032
:100F630018201830FE3F00000000000000000000C1
:100F7300000000000000000000000000FE7F187069
:100F8300184018C018801800181018101818F81FE7
:100F93001818181018101800180018001800180056
:100FA300180018007E000000000000000000000090
:100FB300000000000000000000000000C013701CCF
:100FC300101018100C200C20040006000600060068
:100FD3000600060006FC063006300C300C301830D4
:100FE30018303008C00700000000000000000000B7
:100FF3000000000000000000000000003F7E0C180D
:101003000C180C180C180C180C180C180C180C18BD
:10101300FC1F0C180C180C180C180C180C180C18B6
:101023000C180C183F7E00000000000000000000B8
:10103300000000000000000000000000F81F800115
:101043008001800180018001800180018001800195
:101053008001800180018001800180018001800185
:1010630080018001F81F0000000000000000000064
:10107300000000000000000000000000E07F000608
:10108300000600060006000600060006000600062D
:10109300000600060006000600060006000600061D
:1010A30000060006000600060E060E038E01FC0075
:1010B3000000000000000000000000007E7C181803
:1010C3001808180418061802180198019801D80185
:1010D300B803380318071806180E180C181C18182C
:1010E300183018307EFC00000000000000000000F3
:1010F3000000000000000000000000007E00180057
:10110300180018001800180018001800180018001C
:10111300180018001800180018001800184018408C
:1011230018201830FE3F00000000000000000000FF
:101133000000000000000000000000001FF81C3841
:101143001C381C381C3C3434343434343436743254
:101153006432643264326431C431C431C431C43062
:10116300C43084309FFC0000000000000000000039
:101173000000000000000000000000001F7C1C10A5
:101183003C103410341074106410E410C410C411F3
:1011930084118413041304170416041E041C041C72
:1011A300041C04181F1800000000000000000000C9
:1011B300000000000000000000000000C003300C2D
:1011C300181808100C300C300660066006600660C4
:1011D300066006600660066006600C200C3008108E
:1011E3001818300CC00300000000000000000000CD
:1011F300000000000000000000000000FE0F1818AF
:1012030018301860186018601860186018301818C3
:10121300F80F18001800180018001800180018001C
:10122300180018007E00000000000000000000000D
:10123300000000000000000000000000C003300CAC
:1012430018180C100C300C2006600660066006604F
:1012530006600660066006600660E4612C331C329B
:101263001816300EC007004C007C00380000000048
:10127300000000000000000000000000FE07181C32
:10128300183818301830183018301818180CF80798
:1012930098031803180718061806180E180C180CCC
:1012A300181C18187E7800000000000000000000E1
:1012B300000000000000000000000000E0273038BC
:1012C30018300C200C200C000C0018007800E003F0
:1012D300800F001E00380070006004600460086026
:1012E30018303818C80F000000000000000000008C
:1012F300000000000000000000000000FC3F8C2103
:1013030084618241824180018001800180018001EA
:1013130080018001800180018001800180018001C2
:1013230080018001E00700000000000000000000D1
:101333000000000000000000000000003F7C0C10D3
:101343000C100C100C100C100C100C100C100C10BA
:101353000C100C100C100C100C100C100C100C10AA
:1013630008083804E003000000000000000000004B
:101373000000000000000000000000003EF81820FC
:10138300182018203010301030103010600860081A
:101393006008E00CC004C004C00480038003800321
:1013A30080030001000100000000000000000000B5
:1013B300000000000000000000000000DFF3866171
:1013C300862186218C210C218C238C138C138C1366
:1013D3004C1358125816580E380E380E380E300C5F
:1013E30010041004100400000000000000000000BE
:1013F3000000000000000000000000007E3E18080E
:1014030038083004300470026002E001C001C001FA
:10141300800180034003400720062006100C100CB7
:10142300081808183E7C00000000000000000000BF
:101433000000000000000000000000007E7C1C1083
:10144300181018083008300C700460046002C002E1
:10145300C002C00180018001800180018001800100
:1014630080018001E0070000000000000000000090
:10147300000000000000000000000000F83F181802
:101483000818040C040E0006000700038003800103
:10149300C001C000E0006000700030003820182058
:1014A3001C100C18FE1F00000000000000000000CC
:1014B300000000000000C03F40004000400040002A
:1014C3004000400040004000400040004000400019
:1014D3004000400040004000400040004000400009
:1014E30040004000400040004000C03F00000000BA
:1014F30000000000000000000000080018001800B1
:10150300100030002000600060004000C000800038
:1015130080018001000100030002000600060004B0
:10152300000C000800180018001000300020000014
:10153300000000000000FC030002000200020002A1
:101543000002000200020002000200020002000288
:101553000002000200020002000200020002000278
:1015630000020002000200020002FC03000000006F
:101573000000000000008007C006200810100000D3
:101583000000000000000000000000000000000058
:101593000000000000000000000000000000000048
:1015A3000000000000000000000000000000000038
:1015B3000000000000000000000000000000000028
:1015C3000000000000000000000000000000000018
:1015D3000000000000000000000000000000000008
:1015E3000000000000000000000000000000FFFFFA
:1015F3000000000000007800C000000100000000AF
:1016030000000000000000000000000000000000D7
:1016130000000000000000000000000000000000C7
:1016230000000000000000000000000000000000B7
:1016330000000000000000000000000000000000A7
:1016430000000000000000000000F00318060C0C6E
:101653000C0C000C800F700C1C0C0C0C060C060CF4
:10166300064C0C4FF838000000000000000000009A
:101673000000000000000000000010001E00180021
:1016830018001800180018001800180FD818383060
:1016930038601860186018601860186018601820A7
:1016A30038307818C8070000000000000000000070
:1016B3000000000000000000000000000000000027
:1016C30000000000000000000000C007700C1818A4
:1016D30018180C180C000C000C000C000C2018201F
:1016E30018103008C00700000000000000000000D0
:1016F300000000000000000000000010001E0018A1
:1017030000180018001800180018E01B301C1818E7
:1017130018180C180C180C180C180C180C1808189E
:10172300181C307AE00900000000000000000000EF
:1017330000000000000000000000000000000000A6
:1017430000000000000000000000C007300C181863
:1017530008100C300C30FC3F0C000C000C0018205F
:1017630018107018C00700000000000000000000FF
:10177300000000000000000000000000003E80C3E5
:1017830080C0C0C0C000C000C000FC1FC000C000BB
:10179300C000C000C000C000C000C000C000C00046
:1017A300C000C000F80F00000000000000000000AF
:1017B3000000000000000000000000000000000026
:1017C30000000000000000000000C077306C10181B
:1017D3001818181818181018300CF00718001800EB
:1017E300F00FF03F08700C600C600C603838E00FAD
:1017F3000000000000000000000010001E001800A0
:1018030018001800180018001800980FD81838305E
:101813001830183018301830183018301830183085
:10182300183018307EFC00000000000000000000AB
:10183300000000000000000000000000800380039F
:1018430080030000000000000001F8018001800116
:10185300800180018001800180018001800180017D
:1018630080018001F81F000000000000000000005C
:1018730000000000000000000000000000380038F5
:1018830000380000000000000010801F001800183E
:101893000018001800180018001800180018001885
:1018A30000180018001800180018180C1806F00388
:1018B3000000000000000000000010001E001800DF
:1018C30018001800180018001800183E180C180605
:1018D300180318019801D801380318071806180CC3
:1018E300181C18187E7C0000000000000000000097
:1018F300000000000000000000000001F80180016A
:1019030080018001800180018001800180018001CC
:1019130080018001800180018001800180018001BC
:1019230080018001F81F000000000000000000009B
:1019330000000000000000000000000000000000A4
:1019430000000000000000000800EE1C9C338C31F6
:101953008C318C318C318C318C318C318C318C319C
:101963008C318C31DE7B00000000000000000000A1
:101973000000000000000000000000000000000064
:10198300000000000000000010001E0FD8183830BF
:101993001830183018301830183018301830183004
:1019A300183018307EFC000000000000000000002A
:1019B3000000000000000000000000000000000024
:1019C30000000000000000000000C007701C103081
:1019D30018300C600C600C600C600C600C601830EC
:1019E30018303018C007000000000000000000009D
:1019F30000000000000000000000000000000000E4
:101A0300000000000000000010009E0F581838303E
:101A13001820186018601860186018601860183073
:101A230038307818980718001800180018007E003E
:101A330000000000000000000000000000000000A3
:101A430000000000000000000000C023303C1838F4
:101A530018300C300C300C300C300C300C3008309B
:101A63001838303CE033003000300030003000FCE8
:101A73000000000000000000000000000000000063
:101A8300000000000000000060007E3C60666061B2
:101A9300E000E00060006000600060006000600043
:101AA30060006000FE07000000000000000000006E
:101AB3000000000000000000000000000000000023
:101AC30000000000000000000000E027303818305C
:101AD300182018007000E003800F001C043004304D
:101AE3000C301C18EC0F0000000000000000000088
:101AF30000000000000000000000000000000000E3
:101B0300800080008000C000E000FC1FC000C00017
:101B1300C000C000C000C000C000C000C000C020A2
:101B2300C0208011000F0000000000000000000032
:101B330000000000000000000000000000000000A2
:101B4300000000000000000010201E3C1830183078
:101B53001830183018301830183018301830183042
:101B6300183830F4E013000000000000000000000B
:101B73000000000000000000000000000000000062
:101B8300000000000000000000007E3C1818180848
:101B9300380830043004700260026002E001C001C2
:101BA300C001C00080000000000000000000000031
:101BB3000000000000000000000000000000000022
:101BC30000000000000000000000DFF78E630C231C
:101BD3008C238C239813981358165816700E700E76
:101BE300700E20042004000000000000000000002C
:101BF30000000000000000000000000000000000E2
:101C030000000000000000000000FC3E70087004AB
:101C1300E004C002C0018003800340076006200C7B
:101C2300100C18183E7E00000000000000000000A9
:101C330000000000000000000000000000000000A1
:101C4300000000000000000000007E7C1818180847
:101C530030083008300460046004C002C002C002CF
:101C63008001800180018000800080004C003C00E6
:101C73000000000000000000000000000000000061
:101C830000000000000000000000FC1F0C0C040E0C
:101C93000406000380038001C000E00070203020B0
:101CA30038301C18FC1F000000000000000000007A
:101CB30000000000000000300008000400040004DD
:101CC30000040004000400040004000400040002F3
:101CD3008001000200040004000400040004000466
:101CE30000040004000400040004000800300000A5
:101CF30000010001000100010001000100010001D9
:101D030000010001000100010001000100010001C8
:101D130000010001000100010001000100010001B8
:101D230000010001000100010001000100010001A8
:101D33000000000000000C00100020002000200024
:101D43002000200020002000200020002000400070
:101D530080014000200020002000200020002000FF
:101D63002000200020002000200010000C000000B4
:101D730000003800C400864002610022001C0000FD
:101D83000000000000000000000000000000000050
:101D93000000000000000000000000000000000040
:101DA3000000000000000000000000000000000030
:103B740060AA03FCD6D08000800080008000FC1F77
:103B840084108410841084108410FC1F841080001E
:103B9400800080008000BEB0F80F0808F80F080805
:103BA400F80F8000FF7F0000F80F08080808F80FDE
:103BB40080008410A2204000D4B00000FE3F022008
:103BC400F22702200220FA2F222122212221122967
:103BD40012290A2E0220FE3F0220B5E78000800051
:103BE4008000FC1F841084108410FC1F8410841037
:103BF4008410FC1F845080408040007FD7D3000095
:103C0400FE1F00080004000280018000FF7F800086
:103C140080008000800080008000A000400061726D
:103C2400028AD6D00000000000000018000008003E
:103C3400000800000800080818F8FF1F18081818E2
:103C44000818180818180818180818180818F8FF79
:103C54001F08080800080000080000080000080009
:103C6400001800001800001800000000BEB000009A
:103C740000000000400006C0FF07400006C0FF0728
:103C8400400006C0FF07400802003000FEFF3F006E
:103C94000000C0FF07C00002C00002C00002C0FF55
:103CA4000380100080110160100E3010180C1E30BB
:103CB400001C00000000D4B0000000000000080058
:103CC40030F8FF1F08001008C010083F100800104B
:103CD400080010080013C8FF10082210082210085A
:103CE400221008221008211208211488601648C0E6
:103CF40013280010080010F8FF1F0800100000002F
:103D0400B5E70000000000000018000008000008EB
:103D140000000800F0FF0F10080410080410080445
:103D2400100804F0FF071008041008041008041019
:103D34000804F0FF0710080000081000081000082D
:103D44002000183000F01F000000D7D3000000004E
:103D54000000000004F0FF0F00000600000100C096
:103D640000002800001800001800001830FEFF7F33
:103D740000180000180000180000180000180000C7
:103D84001800001800001800001800001F00000CA4
:103D940000000000628A0000D6D00000000000008D
:103DA400000000800000008001000080010000800D
:103DB400010000800100008001001080010CF0FF70
:103DC400FF0F308001043080010430800104308012
:103DD400010430800104308001043080010430800B
:103DE4000104F0FFFF0730800104308001040080EB
:103DF40001000080010000800100008001000080BB
:103E040001000080010000800100008001000080AA
:103E140001000080000000000000BEB000000000AF
:103E240000000000000000000001800100FFFF010D
:103E3400000380010003800100FFFF0100038001F3
:103E44000003800100FFFF010081810000000300E6
:103E54000000031CFCFFFF3F000040000003C00102
:103E640000FFFF010003C0000003C0000003C00006
:103E740000FFFF000001410000040100000E71007A
:103E840000078101800101076000010E1898011CE0
:103E940004E0011800C0000000000000D4B00000DD
:103EA40000000000000000000008F0FFFF1F3000C9
:103EB400000C3000000C3000100C30FE3F0C3004BD
:103EC400000C3000000C3000000C3000000C3000FE
:103ED400C00CF0FFFF0D3030060E3030060C3010F1
:103EE400060C3010060C3010060C3018860C3018F6
:103EF400860C3008060D300C860D3006EE0F3002AD
:103F0400FC0D3001000CF000000C3000000CF0FF40
:103F1400FF0F3000000C1000000400000000B5E7A3
:103F2400000000000000000000C0000000C001000C
:103F340000C0000000C0000000C0000000C000007D
:103F4400E0FFFF0360C0000360C0000360C0000323
:103F540060C0000360C0000360C00003E0FFFF0313
:103F640060C0000360C0000360C0000360C00003C1
:103F740060C00003E0FFFF0360C0000160C00000F8
:103F840000C0000800C0001000C0001000C00018ED
:103F940000C001380080FF1F000000000000000086
:103FA400D7D3000000000000000000000000000063
:103FB4000003C0FFFF07000080070000C0000000EE
:103FC40060000000180000000C0000800300008066
:103FD400030000800100008001080080011CFCFF38
:103FE400FF3F00800100008001000080010000808C
:103FF40001000080010000800100008001000080B9
:1040040001000080010000800100008001000080A8
:10401400010000FC010000E000000040000000007E
:0240240000009A
:10625F009004AEEEF0A3EFF0A3ECF0A3EDF0A3EA01
:04626F00F0A3EBF0BD
:10627300C006C00724FFFBEA34FFFAA3E0FEA3E055
:1062830024FFFFEE34FF9004E1F0A3EFF0D007D03A
:10629300061266929004B0E0FFA3E09004B8CFF03A
:1062A300A3EFF09004B4E0FEA3E0FFC39004B9E0D1
:1062B3009F9004B8E09E504F9004AEE0FFA3E0909F
:1062C30004BACFF0A3EFF09004B2E0FEA3E0FFC363
:1062D3009004BBE09F9004BAE09E501B9004B6E08C
:1062E300FEA3E0FF1267D79004BBE004F070D890E0
:1062F30004BAE004F080D09004B9E004F070A490F4
:0763030004B8E004F0809CE7
:01630A002270
:1065E200900589FEE0FCA3E0FDC3900585E09DFDDA
:0E65F200900584E09CFC900587E0FAA3E0FB96
:106600009004D5EEF0A3EFF09004D9EAF0A3EBF0FC
:106610009004D7ECF0A3EDF09004D5E0FAA3E0FBF2
:10662000FFAE02C007A3E0FFA3E09004E1CFF0A318
:10663000EFF0D0071266929004D9E0FEA3E0FF02CB
:0266400067D71A
:0E510A00900552EEF0A3EFF0A3ECF0A3EDF051
:10511800E490055EF0A3F0A3F0A3F0900552E0FE42
:10512800A3E0FFC3EB9FFFEA9E900562F0A3EFF0B8
:10513800900554E0FAA3E0FBC3900559E09BFE906C
:105148000558E09A900564F0A3CEF0900552E0FF70
:10515800A3E090056CCFF0A3EFF0A3EAF0A3EBF087
:10516800900562E0FEA3E0FFD39400EE6480948093
:10517800400A900568E4F0A304F08021EF4E70081F
:10518800900568F0A3F0801574FF900568F0A3F00F
:10519800C3E49FFFE49E900562F0A3EFF0900564DE
:1051A800E0FEA3E0FFD39400EE64809480400A9070
:1051B800056AE4F0A304F08021EF4E700890056AB8
:1051C800F0A3F0801574FF90056AF0A3F0C3E49F84
:1051D800FFE49E900564F0A3EFF0900564E0FEA361
:1051E800E0FF900562E0FCA3E0FDD39FEE6480F849
:1051F800EC6480989005664007ECF0A3EDF080051C
:10520800EEF0A3EFF0E490055CF0A3F0900567E002
:105218002401FF900566E03400FEC390055DE09F21
:1052280090055CE09E40030252F790056CE0FEA3F7
:10523800E0FFA3E0FCA3E0FD90055A1265FB900592
:1052480062E0FEA3E0FF90055FE02FF090055EE0CE
:105258003EF0900564E0FEA3E0FF900561E02FF0CA
:10526800900560E03EF0900566E0FEA3E0FF900543
:105278005EE0FCA3E0FDD39FEE6480F8EC648098C8
:105288004020ED9FFFEC9E90055EF0A3EFF09005A7
:1052980068E0FEA3E0FF90056DE02FF090056CE05C
:1052A8003EF0900566E0FEA3E0FF900560E0FCA3F9
:1052B800E0FDD39FEE6480F8EC6480984020ED9F79
:1052C800FFEC9E900560F0A3EFF090056AE0FEA366
:1052D800E0FF90056FE02FF090056EE03EF090053E
:0F52E8005DE004F0700690055CE004F0025214E3
:0152F7002294
:10617900900591EAF0A3EBF090058DEEF0A3EFF016
:10618900A3ECF0A3EDF0C007A3E0FAA3E0FB9005B0
:106199008FE0FFA3E0900558CFF0A3EFF0900595AD
:1061A900E0FFA3E090055ACFF0A3EFF0D00712511A
:1061B9000A90058DE0FAA3E0FBFFAE02C007A3E059
:1061C900FCA3E0FD900593E0FFA3E0900558CFF014
:1061D900A3EFF0900595E0FFA3E090055ACFF0A357
:1061E900EFF0D00712510A900593E0FCA3E0FD906F
:1061F9000591E0FAA3E0FBA3E0FFA3E0900558CFE7
:10620900F0A3EFF0900595E0FFA3E090055ACFF0D9
:10621900A3EFF090058DE0FEA3E0FF12510A90056F
:1062290091E0FAA3E0FBFFAE02C00790058FE0FC06
:10623900A3E0FD900593E0FFA3E0900558CFF0A3FC
:10624900EFF0900595E0FFA3E090055ACFF0A3EF9A
:06625900F0D00702510A1B
:1054D900900582EEF0A3EFF0A3ECF0A3EDF0A3EBBF
:0154E900F0D2
:1054EA00E4900589F0A3F0EBFFA3E4F0A3EFF090BA
:1054FA00058BE0FEA3E0FFD390058AE09FEE64806F
:10550A00F8900589E06480984003025678C39005B4
:10551A0083E09FFF900582E09E1265E290058BE092
:10552A00FEA3E0FF900583E02FFF900582E03E1284
:10553A0065E2900589E0FEA3E0FFC3900583E09F42
:10554A00FF900582E09EFE90058BE0FCA3E0FD90B3
:10555A000585E02DFD900584E03C1265F7900589EC
:10556A00E0FEA3E0FFC3900583E09FFF900582E081
:10557A009E90058B1265E590058BE0FEA3E0FF90F7
:10558A000583E02FFF900582E03EFE900589E0FC4E
:10559A00A3E0FD900585E02DFD900584E03C1265B1
:1055AA00F7900589E0FEA3E0FF900583E02FFF90C6
:1055BA000582E03EFE90058B1265E6900589E0FEC5
:1055CA00A3E0FF900583E02FFF900582E03EFE9066
:1055DA00058BE0FCA3E0FD900585E02DFD90058498
:1055EA00E03C1265F790058BE0FEA3E0FFC390054F
:1055FA0083E09FFF900582E09EFE900589E0FCA370
:10560A00E0FD900585E02DFD900584E03C1265F7EC
:10561A0090058AE004F07006900589E004F0900590
:10562A008BE0FCA3E0FDFFAE0412390DAA06AB071E
:10563A00900589E0FCA3E0FDFFAE0412390DEF2BC3
:10564A00FDEE3AFC900586E0F5F0A4FFD3ED9FE568
:10565A00F06480F8EC64809850030254F990058C49
:0E566A00E024FFF090058BE034FFF00254F9CD
:01567800220F
:105BC6009004AEEEF0A3EFF0A3ECF0A3EDF0A3EBA0
:105BD600F0A3EAF0A3E9F09004B2E0FBA3E0FAA395
:105BE600E0F91238B57003025CFD9004B9E0641068
:105BF60070449004B0E0FCA3E0FD9004B5E0FFA380
:105C0600E09004C2CFF0A3EFF09004B7E0FFA3E06A
:105C16009004C4CFF0A3EFF09004B9E09004C6F06E
:105C26009004BAE09004C7F09004AEE0FEA3E0FF53
:105C3600124820025CDE9004B9E06418704A9004B1
:105C4600B0E0FCA3E0FDA3E0FBA3E0FAA3E0F9A328
:105C5600E0FFA3E09004C2CFF0A3EFF09004B7E01A
:105C6600FFA3E09004C4CFF0A3EFF09004B9E09056
:105C760004C6F09004BAE09004C7F09004AEE0FECB
:105C8600A3E0FF124A7580509004B9E06420706763
:105C96009004B0E0FCA3E0FDA3E0FBA3E0FAA3E0E0
:105CA600F9A3E0FFA3E09004C2CFF0A3EFF09004C5
:105CB600B7E0FFA3E09004C4CFF0A3EFF09004B9DF
:105CC600E09004C6F09004BAE09004C7F09004AEE9
:105CD600E0FEA3E0FF124CC69004B3E475F0021296
:105CE60039749004B9E0FF9004AFE02FF09004AE51
:085CF600E03400F0025BDD2246
:104820009004BBEEF0A3EFF0A3ECF0A3EDF0A3EB4C
:07483000F0A3EAF0A3E9F098
:104837009004BBE0FFA3E09004D0CFF0A3EFF0908B
:1048470004C6E0FF131313541F8FF0A4FF9004CE88
:10485700E5F0F0A3EFF09004CCE4F0A37405F0E4E6
:104867009004CAF0A3F09004CCE0FEA3E0FF90040C
:10487700CAE0FCA3E0FDC39FEC9E4003024A74908C
:1048870004BFE0FBA3E0FAA3E0F91238B5FF9003F9
:10489700FC75F022ED123B22EC75F022A42583F57E
:1048A70083E06F6003024A639000011238CEFF90E5
:1048B70004CAA3E09003FD75F022123B22EC75F0C9
:1048C70022A42583F583E06F6003024A639004BD49
:1048D700E0FCA3E0FD9004C6E0F9FF7E009004BB76
:1048E700E0FAA3E02FFFEE3ACF24FFFBEF34FFFA05
:1048F700E9FFA3E0F8A3E02FFFEE38CF24FFCF3482
:10490700FF9004E1F0A3EFF09004BBE0FEA3E0FF0B
:10491700126692E49004C8F09004C8E0FFD39004B4
:10492700CFE09F9004CEE094005003024A63E490E6
:1049370004C9F09004C9E0C39408748094804003CC
:10494700024A5A9004C7E0705C9004CAA3E075F06D
:1049570022A424FEF582E43403F583C083C0829049
:1049670004C8E0D082D0832582F582E43583F583BD
:10497700E0FD7C009004C9E0FF7E007401A80708F1
:104987008005C333CE33CED8F9FFEE5CFEEF5D4E24
:1049970060059004C280039004C4E0FEA3E0FF1208
:1049A70067D7024A519004CAA3E075F022A424FEF7
:1049B700F582E43403F583C083C0829004C8E0D055
:1049C70082D0832582F582E43583F583E0FD7C0080
:1049D7009004C9E0FF7E007401A807088005C3336F
:1049E700CE33CED8F9FFEE5CFEEF5D4E6014900437
:1049F700BBE0FEA3E0FFA3E0FCA3E0FD9004C2122E
:104A070065FB9004BCE004F070069004BBE004F082
:104A17009004D0E0FEA3E0FFC39004BCE09FFD90AC
:104A270004BBE09EFC9004C6E07A00B5051CEAB51D
:104A370004189004BBEEF0A3EFF09004BEE004F07E
:104A470070119004BDE004F080099004C9E004F0FF
:104A570002493A9004C8E004F002491F9004CBE0F1
:0D4A670004F070069004CAE004F002486DEF
:014A7400221F
:104A75009004BBEEF0A3EFF0A3ECF0A3EDF0A3EBF5
:074A8500F0A3EAF0A3E9F041
:104A8C009004BBE0FFA3E09004D0CFF0A3EFF09034
:104A9C0004C6E0FF131313541F8FF0A4FF9004CE31
:104AAC00E5F0F0A3EFF09004CCE4F0A37405F0E48F
:104ABC009004CAF0A3F09004CCE0FEA3E0FF9004B5
:104ACC00CAE0FCA3E0FDC39FEC9E4003024CC590E2
:104ADC0004BFE0FBA3E0FAA3E0F91238B5FF9002A3
:104AEC008A75F04AED123B22EC75F04AA42583F549
:104AFC0083E06F6003024CB49000011238CEFF903B
:104B0C0004CAA3E090028B75F04A123B22EC75F0BC
:104B1C004AA42583F583E06F6003024CB49004BD76
:104B2C00E0FCA3E0FD9004C6E0F9FF7E009004BB1E
:104B3C00E0FAA3E02FFFEE3ACF24FFFBEF34FFFAAD
:104B4C00E9FFA3E0F8A3E02FFFEE38CF24FFCF342A
:104B5C00FF9004E1F0A3EFF09004BBE0FEA3E0FFB4
:104B6C00126692E49004C8F09004C8E0FFD390045D
:104B7C00CFE09F9004CEE094005003024CB4E4903C
:104B8C0004C9F09004C9E0FFC39408748094804079
:104B9C0003024CAB9004C7E07056A3E0FE9004CA2D
:104BAC00E0FCA3E090028C75F04A123B22EC75F00D
:104BBC004AA42583F583E5822EF582E43583F583BB
:104BCC00E0FD7C007E007401A807088005C333CE8D
:104BDC0033CED8F9FFEE5CFEEF5D4E60059004C25B
:104BEC0080039004C4E0FEA3E0FF1267D7024CA23E
:104BFC009004C8E0FF9004CAE0FCA3E090028C751E
:104C0C00F04A123B22EC75F04AA42583F583E58229
:104C1C002FF582E43583F583E0FD7C009004C9E038
:104C2C00FF7E007401A807088005C333CE33CED8AD
:104C3C00F9FFEE5CFEEF5D4E60149004BBE0FEA34A
:104C4C00E0FFA3E0FCA3E0FD9004C21265FB90041E
:104C5C00BCE004F070069004BBE004F09004D0E0DB
:104C6C00FEA3E0FFC39004BCE09FFD9004BBE09E5C
:104C7C00FC9004C6E07A00B5051CEAB50418900453
:104C8C00BBEEF0A3EFF09004BEE004F070119004C2
:104C9C00BDE004F080099004C9E004F0024B8F9051
:104CAC0004C8E004F0024B749004CBE004F07006EE
:094CBC009004CAE004F0024AC2AF
:014CC50022CC
:104CC6009004BBEEF0A3EFF0A3ECF0A3EDF0A3EBA2
:074CD600F0A3EAF0A3E9F0EE
:104CDD009004BBE0FFA3E09004D0CFF0A3EFF090E1
:104CED0004C6E0FF131313541F8FF0A4FF9004CEDE
:104CFD00E5F0F0A3EFF09004CCE4F0A37405F0E43C
:104D0D009004CAF0A3F09004CCE0FEA3E0FF900461
:104D1D00CAE0FCA3E0FDC39FEC9E4003024F16903A
:104D2D0004BFE0FBA3E0FAA3E0F91238B5FF900051
:104D3D000075F082ED123B22EC75F082A42583F50F
:104D4D0083E06F6003024F059000011238CEFF9093
:104D5D0004CAA3E090000175F082123B22EC75F0BD
:104D6D0082A42583F583E06F6003024F059004BD97
:104D7D00E0FCA3E0FD9004C6E0F9FF7E009004BBCB
:104D8D00E0FAA3E02FFFEE3ACF24FFFBEF34FFFA5A
:104D9D00E9FFA3E0F8A3E02FFFEE38CF24FFCF34D7
:104DAD00FF9004E1F0A3EFF09004BBE0FEA3E0FF61
:104DBD00126692E49004C8F09004C8E0FFD390040A
:104DCD00CFE09F9004CEE094005003024F05E49095
:104DDD0004C9F09004C9E0FFC39408748094804026
:104DED0003024EFC9004C7E07056A3E0FE9004CA87
:104DFD00E0FCA3E090000275F082123B22EC75F00E
:104E0D0082A42583F583E5822EF582E43583F5832F
:104E1D00E0FD7C007E007401A807088005C333CE39
:104E2D0033CED8F9FFEE5CFEEF5D4E60059004C207
:104E3D0080039004C4E0FEA3E0FF1267D7024EF397
:104E4D009004C8E0FF9004CAE0FCA3E09000027556
:104E5D00F082123B22EC75F082A42583F583E58266
:104E6D002FF582E43583F583E0FD7C009004C9E0E5
:104E7D00FF7E007401A807088005C333CE33CED85A
:104E8D00F9FFEE5CFEEF5D4E60149004BBE0FEA3F7
:104E9D00E0FFA3E0FCA3E0FD9004C21265FB9004CB
:104EAD00BCE004F070069004BBE004F09004D0E088
:104EBD00FEA3E0FFC39004BCE09FFD9004BBE09E09
:104ECD00FC9004C6E07A00B5051CEAB50418900400
:104EDD00BBEEF0A3EFF09004BEE004F0701190046F
:104EED00BDE004F080099004C9E004F0024DE090AB
:104EFD0004C8E004F0024DC59004CBE004F0700648
:094F0D009004CAE004F0024D1307
:014F16002278
:1052F8009004C1EEF0A3EFF0A3ECF0A3EDF0A3EB64
:01530800F0B4
:105309009004C1E0FFA3E09004D3CFF0A3EFF090A5
:1053190004CAE0FFC3139004CDF0E0FB1313135448
:105329001F8FF0A4FF9004D1E5F0F0A3EFF09004F3
:10533900C5E024E0F09004C3E0FCA3E0FDEBFF7EB0
:10534900009004C1E0FAA3E02FFFEE3ACF24FFFB5F
:10535900EF34FFFA9004CAE0FF9004C3E0F8A3E039
:105369002FFFEE38CF24FFCF34FF9004E1F0A3EFF5
:10537900F09004C1E0FEA3E0FF126692E49004CF2E
:10538900F0A3F09004D1E0FEA3E0FF9004CFE0FC8D
:10539900A3E0FDC39FEC9E40030254D89004CAE0E9
:1053A900F96410701C9004C5E075F010A42403F58D
:1053B90082E5F03400F583E5822DF582E5833C80B2
:1053C9002AE9642060030254D89004CFE0FEA3E0E8
:1053D900FF9004C5E075F040A424F3F582E5F034AC
:1053E90005F583E5822FF582E5833EF583E4939005
:1053F90004CCF0E49004CEF09004CEE0FFC394080E
:105409007480948040030254C79004CBE0702BFE53
:1054190004A807088005C333CE33CED8F9FF90041A
:10542900CCE0FDEF5D60059004C680039004C8E000
:10543900FEA3E0FF1267D70254BE9004CEE0FF7EC0
:10544900007401A807088005C333CE33CED8F9FF0D
:105459009004CCE0FDEF5D60149004C1E0FEA3E090
:10546900FFA3E0FCA3E0FD9004C61265FB9004C213
:10547900E004F070069004C1E004F09004D3E0FE6B
:10548900A3E0FFC39004C2E09FFD9004C1E09EFC2D
:105499009004CDE07A00B5051CEAB504189004C162
:1054A900EEF0A3EFF09004C4E004F070119004C38F
:1054B900E004F080099004CEE004F0025401900465
:0F54C900D0E004F070069004CFE004F002538CA2
:0154D80022B1
:106397009004AEEEF0A3EFF0A3ECF0A3EDF0A3EBC7
:1063A700F0A3EAF0A3E9F09004B2E0FBA3E0FAA3BC
:1063B700E0F91238B5FB60619004B0E0FCA3E0FDA2
:1063C7009004B5E0FFA3E09004C6CFF0A3EFF090F0
:1063D70004B7E0FFA3E09004C8CFF0A3EFF0900468
:1063E700B9E09004CAF09004BAE09004CBF09004AE
:1063F700AEE0FEA3E0FF1252F89004B9E0C313FF2A
:106407009004AFE02FF09004AEE03400F09004B3B6
:0A641700E475F001123974808E2242
:07664200C3EF9E14FD7F0A67
:086649009004C1EFF0A3EDF095
:10665100A3123AF1000000019004C2E0FF14F0EF30
:106661006020A3E0F8A3E0F9A3E0FAA3E0FB900423
:10667100C1E0FFE4FCFDFE1239A99004C3123AE522
:1066810080D69004C3E0FCA3E0FDA3E0FEA3E0FFFD
:0166910022E6
:0E5E2F009004AEEEF0A3EFF0A3ECF0A3EDF0C4
:105E3D00E49004BEF09004BBE0C3139004BFF0E403
:105E4D009004BCF09004B6E0FF9004BCE0FEC39F4C
:105E5D004003025F57126642A804A905AA06AB07C4
:105E6D009004B2E0FCA3E0FDA3E0FEA3E0FF123A34
:105E7D0034E47B0AFAF9F8123A349004BDEBF0A33E
:105E8D00E070659004B6E014FF9004BCE0FEC39F83
:105E9D005056A3E0704C9004BFE0FFEE8FF0A4FFCE
:105EAD009004AFE02FFF9004AEE035F0FE9004B00B
:105EBD00E0FCA3E0FD9004B7E0FBA3E09004C6CBAB
:105ECD00F0A3EBF09004B9E0FBA3E09004C8CBF095
:105EDD00A3EBF09004BBE09004CAF0E4A3F07B20A8
:105EED00805C9004BE7401F09004BFE0FF9004BC90
:105EFD00E08FF0A4FF9004AFE02FFF9004AEE035EB
:105F0D00F0FEC0079004B0E0FCA3E0FD9004BDE0FE
:105F1D002430FB9004B7E0FFA3E09004C6CFF0A3BC
:105F2D00EFF09004B9E0FFA3E09004C8CFF0A3EF29
:105F3D00F09004BBE09004CAF0E4A3F0D007125235
:0A5F4D00F89004BCE004F0025E517D
:015F57002227
:0E5A7C009004AEEEF0A3EFF0A3ECF0A3EDF07B
:105A8A009004BBE0C3139004BEF0E4FFFE7DC87C23
:105A9A00429004B2E0F8A3E0F9A3E0FAA3E0FB1213
:105AAA0034251236829004BFEEF0A3EFF0E490049E
:105ABA00BCF09004B6E0FF9004BCE0FEC39F400334
:105ACA00025BC5126642A804A905AA06AB079004A0
:105ADA00BFE0FEA3E0FFE4FCFD123A34E47B0AFADD
:105AEA00F9F8123A349004BDEBF09004B6E0FF24C2
:105AFA00FEFE9004BCE06E7060EF24FEFFE434FF0B
:105B0A00FE9004BEE0FD7C0012390D9004AFE02F38
:105B1A00FF9004AEE03EFE9004B0E0FCA3E0FD90EE
:105B2A0004B7E0FBA3E09004C6CBF0A3EBF090042B
:105B3A00B9E0FBA3E09004C8CBF0A3EBF09004BB60
:105B4A00E09004CAF0E4A3F07B2E1252F89004BC51
:105B5A00E004F09004B6E004F09004BEE0FF900484
:105B6A00BCE08FF0A4FF9004AFE02FFF9004AEE0FA
:105B7A0035F0FEC0079004B0E0FCA3E0FD9004BD40
:105B8A00E02430FB9004B7E0FFA3E09004C6CFF016
:105B9A00A3EFF09004B9E0FFA3E09004C8CFF0A30C
:105BAA00EFF09004BBE09004CAF0E4A3F0D007122F
:0B5BBA0052F89004BCE004F0025ABC5A
:015BC50022BD
:105F58009004B2EAF0A3EBF09004AEEEF0A3EFF0F9
:065F6800A3ECF0A3EDF034
:105F6E00E49004BDF0A3F0C006C0079004B2E0FEBA
:105F7E00A3E0FF9004AEE0FAA3E02FFFEA3ECF24A9
:105F8E00FFFBEF34FFFA9004B4E0FEA3E0FF9004B1
:105F9E00B0E0F8A3E02FFFE83ECF24FFCF34FF9010
:105FAE0004E1F0A3EFF0D007D006126692E490045D
:105FBE00B9F0A3F09004B2E0FEA3E0FFC39004BAE0
:105FCE00E09F9004B9E09E4003026075E49004BB2C
:105FDE00F0A3F09004B4E0FEA3E0FFC39004BCE095
:105FEE009F9004BBE09E506B9004BEE025E0FF90B6
:105FFE0004BDE033FE9004B6E0FBA3E0FAA3E0F9A3
:10600E008F828E831238CEFF1267F49004BEE02585
:10601E00E0FF9004BDE033FEEF2401FFE43EFE906E
:10602E0004B6E0FBA3E0FAA3E0F98F828E83123868
:10603E00CEFF1267F49004BEE004F070069004BD2B
:10604E00E004F09004BCE004F070889004BBE0041F
:10605E00F080809004BAE004F06003025FC2900406
:07606E00B9E004F0025FC27B
:016075002208
:10657D00506C656173652061646A757374210041A7
:10658D00646A7573742046696C6564212000506CD3
:10659D00656173652041646A7573742100204164DF
:1065AD006A757374204F4B2120202000202020205D
:1065BD00202020202020202020200076783A2564DD
:1065CD000076793A2564006368783A25640063683B
:0565DD00793A2564007D
:08402600410570D041057190C5
:0667FF00A296E433FF2224
:10677900E4FEC280EEC39408748094805013EF2520
:10678900E0FF9281C280000000D2800000000E80EC
:01679900E31C
:01679A0022DC
:1066DB00E4FDFFFEEDC3940C74809480501CEF25F9
:1066EB00E0FFEE33FED280000000C28000000030DD
:0A66FB0085050FBF00010E0D80DAC7
:016705002271
:1067B900C287126779D28000000000C28000000001
:0667C900001266DBD2871E
:0167CF0022A7
:0257D600A90721
:1057D800E49004E5F0A3F0FBFAAF011267B9AC0658
:1057E800AD07EB25E0FFEA33FE74C72FF58274049A
:1057F8003EF583ECF0A3EDF00BBB00010AEB640F60
:105808004A70D6E4FAFBEB2401FEE43A9004C5F0B2
:10581800A3CEF09004C5E0FEA3E0FFC3940FEE947E
:105828000040030258D2EF25E0FFEE33FE74C72F85
:10583800F58274043EF583E0FCA3E0FDEB25E0FF70
:10584800EA33FE74C72FF58274043EF583E0FEA3A5
:10585800E0FFD39DEE9C405E9004E7EEF0A3EFF0EE
:105868009004C6E025E0FF9004C5E033FE74C72F1E
:10587800F58274043EF583E0FCA3E0FDEB25E0FF30
:10588800EA33FE74C72FF58274043EF583ECF0A367
:10589800EDF09004E7E0FCA3E0FD9004C6E025E00D
:1058A800FF9004C5E033FE74C72FF58274043EF5FB
:1058B80083ECF0A3EDF09004C6E004F06003025816
:1058C8001B9004C5E004F002581B0BBB00010AEB57
:1058D800640E4A600302580EE49004E5F0A3F0FA5F
:1058E8007B05EB25E0FFEA33FE74C72FF5827404CD
:1058F8003EF583E0FEA3E0FF9004E6E02FF090047D
:10590800E5E03EF00BBB00010AEB640A4A70D39055
:1059180004E5E0FEA3E0FF7C007D0512391FA3EE3D
:04592800F0A3EFF009
:01592C002258
:0B6514009004BDEBF0A3EAF0A3E9F057
:10651F00900570E0FF1257D69004C3EEF0A3EFF092
:10652F00900571E0FF1257D6C39004C4E0946490B5
:10653F0004C3E094004008EF9464EE940050037F8E
:10654F0000229004C3E0F9A3E0FD9004BDE0FBA39B
:10655F00E0FAA3E0C98DF012398A9004C0E0FBA3E2
:0D656F00E0FAA3E0F9EE8FF012398A7F0107
:01657C0022FC
:0B5CFE009004AFEBF0A3EAF0A3E9F084
:105D09009004C07401F0A37404F0A374B7F07B018C
:105D19007A0479B5126514EF7002FF229004C074F9
:105D290001F0A37404F0A374BBF07B017A0479B980
:105D3900126514EF7002FF229004B5E0FEA3E0FFA4
:105D49009004B9E0FCA3E0FDD39FEC9E500EED2436
:105D590014FDE43CFCC3EF9DEE9C402A9004B9E09D
:105D6900FEA3E0FF9004B5E0FCA3E0FDD39FEC9E09
:105D79004003025E2CED2414FDE43CFCC3EF9DEED0
:105D89009C4003025E2C9004B7E0FEA3E0FF900460
:105D9900BBE0FCA3E0FDD39FEC9E500EED2414FD67
:105DA900E43CFCC3EF9DEE9C40249004BBE0FEA3C1
:105DB900E0FF9004B7E0FCA3E0FDD39FEC9E5063A5
:105DC900ED2414FDE43CFCC3EF9DEE9C505590047A
:105DD900B9E0FEA3E0FF9004B6E02FFF9004B5E020
:105DE9003EC313F9EF13FF9004AFE0FBA3E0FAA35E
:105DF900E0C98FF012398A9004BBE0FEA3E0FF905E
:105E090004B8E02FFF9004B7E03EC313F9EF13FF86
:105E19009004B2E0FBA3E0FAA3E0C98FF012398A3B
:055E29007F01227F0053
:015E2E002251
:10649F00E490059DF090059DE070649004B2740146
:1064AF00F0A37405F0A3747CF07B017A05797A125E
:1064BF005CFEEF60E69004B27401F0A37405F0A3E4
:1064CF0074A0F07B017A05799E125CFEEF60E69076
:1064DF00059EE0FEA3E0FF90057AE0B506B7A3E0C6
:1064EF00B507B29005A0E0FEA3E0FF90057CE0B5F4
:1064FF0006A3A3E0B5079E90059D7401F0809690CA
:04650F00059DE0FF07
:016513002265
:0D567900F07D8B74FFFBFA7F6B7C007E00E0
:10568600900597EEF0A3EFF090059BEAF0A3EBF000
:10569600900599ECF0A3EDF0900597E0FAA3E0FBF6
:1056A60024F4FFEA34FFFEC007EB240DFBE43AFACC
:1056B600A3E0FFA3E0900558CFF0A3EFF090059B81
:1056C600E0FFA3E090055ACFF0A3EFF0D007125108
:1056D6000A900597E0FAA3E0FBFFAE02C006C007FA
:1056E60090059AE024F4FD900599E034FFFCE0FE75
:1056F600A3E0240DFFE43E900558F0A3EFF09005DB
:105706009BE0FFA3E090055ACFF0A3EFF0D007D0BF
:105716000612510A900598E02401FF900597E0349F
:1057260000FE90059AE02401FD900599E03400FC06
:1057360090059BE0FAA3E0FB126600900598E02432
:10574600FFFF900597E034FFFE90059AE02401FDE7
:10575600900599E03400FC90059BE0FAA3E0FB126B
:105766006600900598E02401FF900597E03400FE5E
:1057760090059AE024FFFD900599E034FFFC900522
:105786009BE0FAA3E0FB126600900598E024FFFF79
:10579600900597E034FFFE90059AE024FFFD900502
:1057A60099E034FFFC90059BE0FAA3E0FB1266004B
:1057B600900597E0FEA3E0FFA3E0FCA3E0FDA3E0D5
:1057C600FBA3E0900587CBF0A3EBF07B060254D950
:106421009004CCEEF0A3EFF0A3ECF0A3EDF0A3EA1F
:10643100F0A3EBF01266009004CDE02401FF90047C
:10644100CCE03400FE9004CEE0FCA3E0FDA3E0FA32
:10645100A3E0FB1266009004CCE0FEA3E0FF9004F1
:10646100CFE02401FD9004CEE03400FC9004D0E0A4
:10647100FAA3E0FB1266009004CDE02401FF900432
:10648100CCE03400FE9004CFE02401FD9004CEE086
:0E6491003400FC9004D0E0FAA3E0FB026600A9
:0E4F17009004AEEEF0A3EFF0A3ECF0A3EDF0EB
:104F2500E49004BAF0A3F0A3F0A3F09004AEE0FE81
:104F3500A3E0FFC3EB9FFFEA9E9004BEF0A3EFF052
:104F45009004B0E0FAA3E0FBC39004B5E09BFE90AB
:104F550004B4E09A9004C0F0A3CEF09004AEE0FF54
:104F6500A3E09004C8CFF0A3EFF0A3EAF0A3EBF021
:104F75009004BEE0FEA3E0FFD39400EE648094802D
:104F8500400A9004C4E4F0A304F08021EF4E7008B9
:104F95009004C4F0A3F0801574FF9004C4F0A3F04E
:104FA500C3E49FFFE49E9004BEF0A3EFF09004C01D
:104FB500E0FEA3E0FFD39400EE64809480400A9065
:104FC50004C6E4F0A304F08021EF4E70089004C6F7
:104FD500F0A3F0801574FF9004C6F0A3F0C3E49F1E
:104FE500FFE49E9004C0F0A3EFF09004C0E0FEA3A0
:104FF500E0FF9004BEE0FCA3E0FDD39FEE6480F8E3
:10500500EC6480989004C24007ECF0A3EDF08005B5
:10501500EEF0A3EFF0E49004B8F0A3F09004C3E041
:105025002401FF9004C2E03400FEC39004B9E09F60
:105035009004B8E09E40030251099004C8E0FEA325
:10504500E0FFA3E0FCA3E0FD9004B6E0FAA3E0FBDB
:105055001264219004BEE0FEA3E0FF9004BBE02FA4
:10506500F09004BAE03EF09004C0E0FEA3E0FF90AB
:1050750004BDE02FF09004BCE03EF09004C2E0FED9
:10508500A3E0FF9004BAE0FCA3E0FDD39FEE6480AB
:10509500F8EC6480984020ED9FFFEC9E9004BAF0F8
:1050A500A3EFF09004C4E0FEA3E0FF9004C9E02F55
:1050B500F09004C8E03EF09004C2E0FEA3E0FF904B
:1050C50004BCE0FCA3E0FDD39FEE6480F8EC6480B3
:1050D500984020ED9FFFEC9E9004BCF0A3EFF0906C
:1050E50004C6E0FEA3E0FF9004CBE02FF09004CAD5
:1050F500E03EF09004B9E004F070069004B8E004D6
:04510500F002502143
:015109002283
:10607600E49004AEF07B019004B204F0A37405F042
:10608600A3747CF07A05797A125CFEEF70030261E4
:10609600739004AE7401F0900572E0FEA3E0FFD3A6
:1060A60090057BE09F90057AE09E400BAB07AA0621
:1060B600E0FEA3E0FF801390057AE0FEA3E0FBAAD2
:1060C60006900572E0FEA3E0FFC3EF9BFFEE9AFE8B
:1060D600E49400FDE49400FCE47BE87A03F9F8120A
:1060E60039A9C006C00790057EE0FEA3E0FBAA061C
:1060F600E4F9F8D007D006123A34900576EEF0A30C
:10610600EFF0900574E0FEA3E0FFD390057DE09FDD
:1061160090057CE09E400BAB07AA06E0FEA3E0FFDD
:10612600801390057CE0FEA3E0FBAA06900574E0D0
:10613600FEA3E0FFC3EF9BFFEE9AFEE49400FDE4AE
:106146009400FCE47BE87A03F9F81239A9C006C08A
:1061560007900580E0FEA3E0FBAA06E4F9F8D00765
:10616600D006123A34900578EEF0A3EFF09004AE24
:02617600E0FF48
:016178002204
:102A5200E4900521F0F09004B4F0A374A0F074FFA8
:102A6200A3F0A3F07B807A00E4FDFCFFFE12625F1C
:102A72007BFF7A65797D9004B574F8F0A3E4F07475
:102A8200FFA3F0A3F0A37410F0E4A3F07D28FC7F71
:102A920005FE1263977B007AF87D14022B212096A3
:102AA200FD12649FEF604290057AE0FEA3E0FFE42E
:102AB200FCFD900521E0FB75F008A42401F582E4F9
:102AC2003405F583123AE590057CE0FEA3E0FFE4CD
:102AD200FCFDEB75F008A42405F582E43405F583CA
:102AE200123AE5900521E004F0900521E024FE6011
:102AF20020146031146052240370A33096FD74FFD9
:102B0200FBFA7D147F141256827B007AF87D1480C2
:102B12002C3096FD7D1412567C7B007AF87D8B7CDE
:102B2200007F14801C3096FD74FFFBFA7D8B7C00C5
:102B32007F147E001256867B007AF87D8B7C007FA4
:102B42006B7E00125686022AA03096FD900501E0A7
:102B5200FCA3E0FDA3E0FEA3E0FF900509E0F8A3DB
:102B6200E0F9A3E0FAA3E0FBD3123AD44034900593
:102B720001E0F8A3E0F9A3E0FAA3E0FB900509E085
:102B8200FCA3E0FDA3E0FEA3E09BFFEE9AFEED991D
:102B9200FDEC98FCEF2401FFE43EFEE43DFDE43C45
:102BA2008036900509E0F8A3E0F9A3E0FAA3E0FB80
:102BB200900501E0FCA3E0FDA3E0FEA3E0C39BFFC0
:102BC200EE9AFEED99FDEC98FCEF24FFFFEE34FF48
:102BD200FEED34FFFDEC34FFFCE47BE87A03F9F808
:102BE2001239A9E47B58FAF9F8123A34E41236445D
:102BF2009004E9123AE5900501E0FCA3E0FDA3E0B0
:102C0200FEA3E0FF900509E0F8A3E0F9A3E0FAA330
:102C1200E0FBD3123AD4E4FFFE7DA07C419004E9AC
:102C2200E0F8A3E0F9A3E0FAA3E0FB403412342574
:102C3200E4FBFA797A784412352EC004C005C00646
:102C4200C007900501E0FCA3E0FDA3E0FEA3E0FFC6
:102C5200E4123644D003D002D001D00012333080C7
:102C620032123425E4FBFA797A784412352EC00404
:102C7200C005C006C007900501E0FCA3E0FDA3E08B
:102C8200FEA3E0FFE4123644D003D002D001D0000C
:102C92001233341236829004F9EEF0A3EFF090056D
:102CA20005E0FCA3E0FDA3E0FEA3E0FF900515E034
:102CB200F8A3E0F9A3E0FAA3E0FBD3123AD4401D53
:102CC200900505E0F8A3E0F9A3E0FAA3E0FB900584
:102CD20015E0FCA3E0FDA3E0FEA3E0801C90051537
:102CE200E0F8A3E0F9A3E0FAA3E0FB900505E0FC1D
:102CF200A3E0FDA3E0FEA3E0C39BFFEE9AFEED99E5
:102D0200FDEC98FCEF24FFFFEE34FFFEED34FFFDF7
:102D1200EC34FFFCE47BE87A03F9F81239A9E47B8E
:102D220078FAF9F8123A34E41236449004F1123A7D
:102D3200E5900505E0FCA3E0FDA3E0FEA3E0FF9023
:102D42000515E0F8A3E0F9A3E0FAA3E0FBD3123AF9
:102D5200D4E4FFFE7DA07C419004F1E0F8A3E0F909
:102D6200A3E0FAA3E0FB4034123425E4FBFA797ABB
:102D7200784412352EC004C005C006C00790050570
:102D8200E0FCA3E0FDA3E0FEA3E0FFE4123644D0A2
:102D920003D002D001D0001233308032123425E445
:102DA200FBFA797A784412352EC004C005C006C0F9
:102DB20007900505E0FCA3E0FDA3E0FEA3E0FFE42D
:102DC200123644D003D002D001D00012333412366E
:102DD200829004FDEEF0A3EFF0900511E0FCA3E079
:102DE200FDA3E0FEA3E0FF900519E0F8A3E0F9A33C
:102DF200E0FAA3E0FBD3123AD44034900511E0F894
:102E0200A3E0F9A3E0FAA3E0FB900519E0FCA3E03C
:102E1200FDA3E0FEA3E09BFFEE9AFEED99FDEC9888
:102E2200FCEF2401FFE43EFEE43DFDE43C803690ED
:102E32000519E0F8A3E0F9A3E0FAA3E0FB9005117D
:102E4200E0FCA3E0FDA3E0FEA3E0C39BFFEE9AFE3D
:102E5200ED99FDEC98FCEF24FFFFEE34FFFEED341C
:102E6200FFFDEC34FFFCE47BE87A03F9F81239A9A0
:102E7200E47B58FAF9F8123A34E41236449004ED3D
:102E8200123AE5900511E0FCA3E0FDA3E0FEA3E009
:102E9200FF900519E0F8A3E0F9A3E0FAA3E0FBD361
:102EA200123AD4E4FFFE7DA07C419004EDE0F8A349
:102EB200E0F9A3E0FAA3E0FB4034123425E4FBFA84
:102EC200797A784412352EC004C005C006C0079036
:102ED2000511E0FCA3E0FDA3E0FEA3E0FFE412364F
:102EE20044D003D002D001D00012333080321234E9
:102EF20025E4FBFA797A784412352EC004C005C065
:102F020006C007900511E0FCA3E0FDA3E0FEA3E0EC
:102F1200FFE4123644D003D002D001D00012333481
:102F22001236829004FBEEF0A3EFF090050DE0FC68
:102F3200A3E0FDA3E0FEA3E0FF90051DE0F8A3E0FF
:102F4200F9A3E0FAA3E0FBD3123AD4401D90050D99
:102F5200E0F8A3E0F9A3E0FAA3E0FB90051DE0FC92
:102F6200A3E0FDA3E0FEA3E0801C90051DE0F8A312
:102F7200E0F9A3E0FAA3E0FB90050DE0FCA3E0FD7D
:102F8200A3E0FEA3E0C39BFFEE9AFEED99FDEC9851
:102F9200FCEF24FFFFEE34FFFEED34FFFDEC34FFC7
:102FA200FCE47BE87A03F9F81239A9E47B78FAF9B0
:102FB200F8123A34E41236449004F5123AE59005D8
:102FC2000DE0FCA3E0FDA3E0FEA3E0FF90051DE001
:102FD200F8A3E0F9A3E0FAA3E0FBD3123AD4E4FFAA
:102FE200FE7DA07C419004F5E0F8A3E0F9A3E0FAAD
:102FF200A3E0FB4034123425E4FBFA797A784412D8
:10300200352EC004C005C006C00790050DE0FCA324
:10301200E0FDA3E0FEA3E0FFE4123644D003D002B9
:10302200D001D0001233308032123425E4FBFA7919
:103032007A784412352EC004C005C006C007900538
:103042000DE0FCA3E0FDA3E0FEA3E0FFE4123644A2
:10305200D003D002D001D000123334123682900451
:10306200FFEEF0A3EFF09004EDE0FCA3E0FDA3E09F
:10307200FEA3E0FF9004E9E0F8A3E0F9A3E0FAA3DD
:10308200E0FB1235CB60324030E4FFFE7D7A7C44B7
:103092009004EDE0F8A3E0F9A3E0FAA3E0FB123319
:1030A200349004E9E0F8A3E0F9A3E0FAA3E0FB120C
:1030B20035CB600540030231A99004EDE0FCA3E0AA
:1030C200FDA3E0FEA3E0FF9004E9E0F8A3E0F9A38A
:1030D200E0FAA3E0FB1235CB502EE4FFFE7D7A7CB2
:1030E200C49004EDE0F8A3E0F9A3E0FAA3E0FB1238
:1030F20033349004E9E0F8A3E0F9A3E0FAA3E0FB9B
:103102001235CB50030231A99004F5E0FCA3E0FD97
:10311200A3E0FEA3E0FF9004F1E0F8A3E0F9A3E04E
:10312200FAA3E0FB1235CB602F402DE4FFFE7D7A3F
:103132007C449004F5E0F8A3E0F9A3E0FAA3E0FBF5
:103142001233349004F1E0F8A3E0F9A3E0FAA3E02B
:10315200FB1235CB6002504F9004F5E0FCA3E0FD7A
:10316200A3E0FEA3E0FF9004F1E0F8A3E0F9A3E0FE
:10317200FAA3E0FB1235CB400302320CE4FFFE7DE2
:103182007A7CC49004F5E0F8A3E0F9A3E0FAA3E0A6
:10319200FB1233349004F1E0F8A3E0F9A3E0FAA3C0
:1031A200E0FB1235CB5063E49005211256797B0087
:1031B2007AF87D147C007F147E001256867BFF7A9B
:1031C20065798C9004B574F8F0A3E4F074FFA3F071
:1031D200A3F0A37410F0E4A3F07D28FC7F05FE1297
:1031E20063977BFF7A65799B9004B574F8F0A3E44A
:1031F200F074FFA3F0A3F0A37410F0E4A3F07D3CFD
:10320200FC7F05FE126397022AA09004EDE0FCA366
:10321200E0FDA3E0FEA3E0FF9004E9E0F8A3E0F9FB
:10322200A3E0FAA3E0FB123334E4FBFAF97840128C
:10323200352E12368290057EEEF0A3EFF09004F563
:10324200E0FCA3E0FDA3E0FEA3E0FF9004F1E0F8C0
:10325200A3E0F9A3E0FAA3E0FB123334E4FBFAF9AA
:10326200784012352E123682900580EEF0A3EFF0F0
:103272009004FBE0FEA3E0FF9004FAE02FFF90042D
:10328200F9E03EC313FEEF13FF900572EEF0A3EFD9
:10329200F09004FFE0FEA3E0FF9004FEE02FFF9019
:1032A20004FDE03EC313FEEF13FF900574EEF0A39E
:1032B200EF1256797BFF7A6579AA9004B574F8F01B
:1032C200A3E4F074FFA3F0A3F0A37410F0E4A3F05E
