:020000040800F2
:10000000B0070020CD01000815160008D906000829
:10001000111600089902000857240008000000008B
:10002000000000000000000000000000E3170008CE
:10003000890400080000000017160008F5180008E1
:10004000E7010008E7010008E7010008E7010008F0
:10005000E7010008E7010008E7010008E7010008E0
:10006000E7010008E7010008E7010008E7010008D0
:10007000E7010008E7010008E7010008E7010008C0
:10008000E7010008E7010008E7010008E7010008B0
:10009000E7010008E7010008E7010008E7010008A0
:1000A000E7010008E7010008E7010008E701000890
:1000B000E7010008E7010008E7010008E701000880
:1000C000E7010008E7010008E7010008E701000870
:1000D000E701000871230008E7010008E7010008B4
:1000E000E7010008E7010008E7010008E701000850
:1000F000E7010008E7010008E7010008E701000840
:10010000E7010008E7010008E7010008E70100082F
:10011000E7010008E7010008E7010008E70100081F
:10012000E7010008E7010008E7010008E70100080F
:1001300000F002F800F03AF80AA090E8000C8244BF
:100140008344AAF10107DA4501D100F02FF8AFF29C
:10015000090EBAE80F0013F0010F18BFFB1A43F0A5
:10016000010318476C7600008C760000103A24BF1B
:1001700078C878C1FAD8520724BF30C830C144BF0C
:1001800004680C607047000000230024002500264E
:10019000103A28BF78C1FBD8520728BF30C148BFEA
:1001A0000B6070471FB51FBD10B510BD00F046F8BD
:1001B0001146FFF7F7FF02F0C1F900F064F803B44D
:1001C000FFF7F2FF03BC02F048F90000094880473E
:1001D00009480047FEE7FEE7FEE7FEE7FEE7FEE729
:1001E000FEE7FEE7FEE7FEE704480549054A064B41
:1001F00070470000F918000831010008B001002024
:10020000B0070020B0030020B00300207047704703
:1002100070477047704710B500F008F8006810BDCF
:1002200010B5044600F002F8046010BD00487047A5
:100230004C010020004870474C0100207546FFF734
:10024000F9FFAE4605006946534620F00700854693
:1002500018B020B5FFF7C8FFBDE820404FF00006FA
:100260004FF000074FF000084FF0000B21F007019E
:10027000AC46ACE8C009ACE8C009ACE8C009ACE8E1
:10028000C0098D46704710B50446AFF30080204684
:10029000BDE81040FFF793BF00BFFEE700F08051BC
:1002A00011B10349086001E002494860704700004D
:1002B000040402400000024021B1026842F0010241
:1002C000026004E002684FF6FE731A400260704755
:1002D00001684FF6FE72114001600021016041602B
:1002E0008160C1604B49884208D14A490839496850
:1002F00041F00F01474A083A51608AE045491431FC
:10030000884208D143490839496841F0F001414A1F
:10031000083A51607DE03F492831884208D13D4983
:100320000839496841F470613A4A083A516070E00E
:1003300038493C31884208D136490839496841F486
:100340007041344A083A516063E032495031884282
:1003500008D130490839496841F470212D4A083ADA
:10036000516056E02B496431884208D12949083947
:10037000496841F47001274A083A516049E025492B
:100380007831884208D123490839496841F07061C1
:10039000204A083A51603CE01F49884206D1011FBB
:1003A000096841F00F01021F116032E01A4914314F
:1003B000884208D11849091F096841F0F001164A1E
:1003C000121F116025E014492831884208D11249D2
:1003D000091F096841F470610F4A121F116018E08B
:1003E0000D493C31884208D10B49091F096841F485
:1003F0007041094A121F11600BE0074950318842D1
:1004000007D10549091F096841F47021024A121FEA
:1004100011607047080002400804024001460020B5
:10042000002201F0805313B1054B1A6801E0054B1F
:100430001A6802EA01030BB1012000E000207047B6
:10044000000402400000024010B50022026847F696
:10045000F0739A430C6A8B6823430C6923434C69FD
:1004600023438C692343CC6923434C6A23438C6A1E
:1004700023431A430260CB6843600B6883604B6878
:10048000C36010BD4160704770472DE9F0470646D4
:100490000F46904699460025444641E07A1B91B2AA
:1004A000321B90B24A4600F090F97A1B91B2321991
:1004B00090B24A4600F089F93A1991B2721B90B293
:1004C0004A4600F082F93A1B91B2721B90B24A463A
:1004D00000F07BF97A1991B2321990B24A4600F0D5
:1004E00074F93A1B91B2721990B24A4600F06DF954
:1004F0003A1991B2721990B24A4600F066F97A1927
:1005000091B2321B90B24A4600F05FF96D1C05FBB8
:1005100005F004FB040108FB08F0814200DD641EC5
:10052000A542BBDDBDE8F0872DE9F041024600257C
:100530000026002000230024002791F803C00CF0BF
:100540000F0591F803C00CF0100CBCF1000F03D0A4
:1005500091F802C04CEA050591F800C0BCF1000F0B
:1005600031D0146800202BE04FF0010C0CFA00F39E
:10057000B1F800C00CEA03069E4220D183004FF080
:100580000F0C0CFA03F7BC4305FA03FC4CEA040415
:1005900091F803C0BCF1280F06D14FF0010C0CFA02
:1005A00000FCC2F814C00AE091F803C0BCF1480F87
:1005B00005D14FF0010C0CFA00FCC2F810C0401C31
:1005C0000828D1D31460B1F800C0BCF1FF0F34DDAE
:1005D000546800202EE000F1080C4FF0010808FAE2
:1005E0000CF3B1F800C00CEA03069E4221D183004F
:1005F0004FF00F0C0CFA03F7BC4305FA03FC4CEA6E
:10060000040491F803C0BCF1280F05D100F1080CD7
:1006100008FA0CF8C2F8148091F803C0BCF1480F36
:1006200007D100F1080C4FF0010808FA0CF8C2F8E5
:100630001080401C0828CED35460BDE8F081000033
:10064000F0B50A46002300240021002500F00046F2
:10065000B6F1004F02D11D4EF16901E01B4E7168E9
:10066000C0F3034583B200F44016B6F5401F08D12D
:1006700021F07061154E766826F07066134F7E602B
:1006800012E000F48016B6F5801F06D1032606FAA4
:1006900005F4A14341F0706106E0460D360103FA0E
:1006A00006F6B14341F0706122B1460D360103FAFE
:1006B00006F6314300F00046B6F1004F02D1034E7A
:1006C000F16101E0014E7160F0BD000000000140E9
:1006D000416170470161704700BFFEE72DE9F041BD
:1006E00004460D4616461F462A2000F0DDFEA11CDA
:1006F00088B200F0CAFEB11C88B200F0C6FE2B2002
:1007000000F0D2FE691C88B200F0BFFE791C88B2EE
:1007100000F0BBFE2C2000F0C7FEBDE8F0812DE903
:10072000FF4F85B081468A46002003908346079894
:10073000A0EB09050898A0EB0A06CDF80890CDF8C3
:1007400004A0002D01DD012705E00DB9002702E01E
:100750004FF0FF376D42002E02DD4FF0010806E03A
:1007600016B94FF0000802E04FF0FF387642B5426C
:1007700001DD2C4600E03446002004901EE0019A82
:1007800091B2029A90B2129A00F01FF8039828448E
:100790000390B3440398A04205DD0398001B039027
:1007A000029838440290A34504DDABEB040B01989A
:1007B000404401900498401C80B20490611C04984D
:1007C0008842DCDB09B0BDE8F08F70B504460D4609
:1007D00016462B46224629462046FFF77FFF304625
:1007E00000F053FE70BD2DE9FF4F85B081468A466B
:1007F0000020039083460798A0EB09050898A0EB1A
:100800000A06CDF80890CDF804A0002D01DD0127DF
:1008100005E00DB9002702E04FF0FF376D42002ED2
:1008200002DD4FF0010806E016B94FF0000802E0C3
:100830004FF0FF387642B54201DD2C4600E03446E9
:10084000002004901EE0019A91B2029A90B2129A8E
:1008500001F09EFB039828440390B3440398A04200
:1008600005DD0398001B0390029838440290A345CD
:1008700004DDABEB040B0198404401900498401C4C
:1008800080B20490611C04988842DCDB09B0BDE8AA
:10089000F08F00002DE9F84306460F4614461D462A
:1008A000DDF82080CDF80080A01BE91B48431FFA2B
:1008B00080F9681E83B2601E82B239463046FFF767
:1008C0000DFF08212048FFF703FF2048008840F46F
:1008D00000601E49088001211C4800F041FF4B4682
:1008E0006A461A490C311A4800F04EFE01220221D4
:1008F000164800F041FF164800F076FE09E04FF47C
:100900000070FFF78BFD20B14FF40070FFF7C6FCBD
:1009100000E0F4E700BF08210B48FFF7DBFE0B48BF
:100920000088C043094908800846008840F40060F8
:10093000088008460088C04308800121034800F071
:100940000FFFBDE8F88300000008014000300140BF
:100950003000024008B501210C2000F06DFE1F2080
:10096000ADF8000010208DF8030003208DF8020080
:1009700069460A48FFF7D8FD1F210848FFF7AAFE7D
:100980000120ADF8000048208DF8030003208DF809
:10099000020069460248FFF7C7FD08BD0008014094
:1009A000000C014010B500F057FEFFF7D3FF012106
:1009B0007A48FFF78DFE642001F074FD012177482D
:1009C000FFF788FE642001F06DFD04217348FFF7F6
:1009D00081FE642001F066FD112000F065FD7820A5
:1009E00001F060FDB12000F05FFD052000F056FD34
:1009F0003C2000F053FD3C2000F050FDB22000F000
:100A000053FD052000F04AFD3C2000F047FD3C204E
:100A100000F044FDB32000F047FD052000F03EFD4E
:100A20003C2000F03BFD3C2000F038FD052000F0AC
:100A300035FD3C2000F032FD3C2000F02FFDB420BD
:100A400000F032FD032000F029FDC02000F02CFD55
:100A5000282000F023FD082000F020FD042000F0F5
:100A60001DFDC12000F020FDC02000F017FDC220B8
:100A700000F01AFD0D2000F011FD002000F00EFD29
:100A8000C32000F011FD8D2000F008FD2A2000F0A9
:100A900005FDC42000F008FD8D2000F0FFFCEE20D5
:100AA00000F0FCFCC52000F0FFFC1A2000F0F6FC72
:100AB000362000F0F9FCC02000F0F0FCE02000F04F
:100AC000F3FC042000F0EAFC222000F0E7FC072001
:100AD00000F0E4FC0A2000F0E1FC2E2000F0DEFC37
:100AE000302000F0DBFC252000F0D8FC2A2000F0AC
:100AF000D5FC282000F0D2FC262000F0CFFC2E20D0
:100B000000F0CCFC3A2000F0C9FC002000F0C6FC4C
:100B1000012000F0C3FC032000F0C0FC132000F013
:100B2000BDFCE12000F0C0FC042000F0B7FC162062
:100B300000F0B4FC062000F0B1FC0D2000F0AEFC8B
:100B40002D2000F0ABFC262000F0A8FC232000F0B4
:100B5000A5FC272000F0A2FC272000F09FFC252008
:100B600000F09CFC2D2000F099FC3B2000F096FC4E
:100B7000002000F093FC012000F090FC042000F025
:100B80008DFC132000F08AFC3A2000F08DFC05203B
:100B900000F084FC292000F087FC10BD0008014013
:100BA0002DE9FF5F80468A4617469B460F9D002031
:100BB0000290CDF80080284605EBD071C1F34704C0
:100BC0002046E21704EB5272D2102146E31704EBE1
:100BD0005373DB10A4EBC3030BB1012300E000232C
:100BE0001A446A4392B20192A7F12000C7B20AEBFD
:100BF0000500401E83B208EB0400401E82B251463D
:100C00004046FFF76BFD002669E00C2D07D107EB8E
:100C10004700354901EB8000805D03901BE0102DFB
:100C200005D1324800EB0710805D039013E0182DCA
:100C300007D107EB47002E4901EB0010805D0390C0
:100C400009E0202D05D12B4800EB8710805D039033
:100C500001E0BDE8FF9F4FF000093AE01098C8B9E5
:100C6000012000FA09F00399084018B1584600F035
:100C70000CFC02E00E9800F008FC0298401CC0B288
:100C80000290029890FBF4F104FB1100E8B90020F7
:100C9000029021E0012000FA09F00399084020B1F8
:100CA0005A4651464046FFF790FD08F101001FFAF1
:100CB00080F80098A8EB0000A04206D1DDF8008083
:100CC0000AF101001FFA80FA06E009F1010000F0C4
:100CD000FF09B9F1080FC1DB00BF701C86B2019893
:100CE000864292DB00BFB4E7B23E0008264300080C
:100CF00016490008E65A00082DE9FE4F804689464D
:100D000017469A46DDE90D460C9D36E00C2C09D1BC
:100D100053463A4649464046CDE90146009500F023
:100D200031F825E0102C09D153463A464946404651
:100D3000CDE90146009500F0C9F819E0182C09D159
:100D400053463A4649464046CDE90146009500F0F3
:100D500059F90DE0202C09D153463A464946404600
:100D6000CDE90146009500F0F1F901E0BDE8FE8F04
:100D7000BF1C08EB04001FFA80F838780028C5D1A2
:100D800000BFF3E72DE9FF5F0646894692469B4682
:100D90000F9C0020039000962046E21704EB52724D
:100DA000D2102146E31704EB5373DB10A4EBC3030B
:100DB0000BB1012300E000231A44624392B2019276
:100DC00005200290002579E005EB850000EBC500C9
:100DD0003D4911F810009AF8001088426BD105EBDC
:100DE000850000EBC500384901EB400040789AF8D7
:100DF000011088425FD109EB0400401E83B2301914
:100E0000401E82B249463046FFF768FC00274FE09B
:100E10004FF0000846E0109808BB05EB850000EB9A
:100E2000C500294901EB4000801CC05D012101FA89
:100E300008F1084018B1584600F027FB02E00E9870
:100E400000F023FB0398401CC0B20390039890FB72
:100E5000F4F104FB110008BB0020039025E005EB32
:100E6000850000EBC500184901EB4000801CC05D07
:100E7000012101FA08F1084020B15A46494630469E
:100E8000FFF7A3FC701C86B20098301AA04205D16F
:100E9000009E09F101001FFA80F906E008F1010047
:100EA00000F0FF08B8F1080FB5DB00BF781CC7B22F
:100EB00001988742ACDB00BF681C85B2029885426E
:100EC00082DBBDE8FF9F0000A67200082DE9FF5FEE
:100ED0000646894692469B460F9C0020039000964A
:100EE0002046E21704EB5272D2102146E31704EBBE
:100EF0005373DB10A4EBC3030BB1012300E0002309
:100F00001A44624392B2019205200290002571E0DA
:100F100005EB05103A4911F810009AF800108842C4
:100F200065D105EB0510364901EB400040789AF891
:100F3000011088425BD109EB0400401E83B23019D6
:100F4000401E82B249463046FFF7C8FB00274BE0FF
:100F50004FF0000842E01098F8B905EB0510284959
:100F600001EB4000801CC05D012101FA08F108403E
:100F700018B1584600F089FA02E00E9800F085FAA0
:100F80000398401CC0B20390039890FBF4F104FB5B
:100F90001100F8B90020039023E005EB0510184973
:100FA00001EB4000801CC05D012101FA08F10840FE
:100FB00020B15A4649463046FFF707FC701C86B2FE
:100FC0000098301AA04205D1009E09F101001FFAD5
:100FD00080F906E008F1010000F0FF08B8F1080F01
:100FE000B9DB00BF781CC7B201988742B0DB00BFF5
:100FF000681C85B2029885428ADBBDE8FF9F00002D
:10100000287300082DE9FF5F0646894692469B46F5
:101010000F9C0020039000962046E21704EB5272CA
:10102000D2102146E31704EB5373DB10A4EBC30388
:101030000BB1012300E000231A44624392B20192F3
:1010400005200290002579E005EB850000EB4510B6
:101050003D4911F810009AF8001088426BD105EB59
:10106000850000EB4510384901EB400040789AF8C4
:10107000011088425FD109EB0400401E83B2301991
:10108000401E82B249463046FFF728FB00274FE05A
:101090004FF0000846E0109808BB05EB850000EB18
:1010A0004510294901EB4000801CC05D012101FA77
:1010B00008F1084018B1584600F0E7F902E00E9830
:1010C00000F0E3F90398401CC0B20390039890FB32
:1010D000F4F104FB110008BB0020039025E005EBB0
:1010E000850000EB4510184901EB4000801CC05DF5
:1010F000012101FA08F1084020B15A46494630461C
:10110000FFF763FB701C86B20098301AA04205D12D
:10111000009E09F101001FFA80F906E008F10100C4
:1011200000F0FF08B8F1080FB5DB00BF781CC7B2AC
:1011300001988742ACDB00BF681C85B202988542EB
:1011400082DBBDE8FF9F0000D27300082DE9FF5F3E
:101150000646894692469B460F9C002003900096C7
:101160002046E21704EB5272D2102146E31704EB3B
:101170005373DB10A4EBC3030BB1012300E0002386
:101180001A44624392B2019205200290002571E058
:1011900005EB85103A4911F810009AF800108842C2
:1011A00065D105EB8510364901EB400040789AF88F
:1011B000011088425BD109EB0400401E83B2301954
:1011C000401E82B249463046FFF788FA00274BE0BE
:1011D0004FF0000842E01098F8B905EB8510284957
:1011E00001EB4000801CC05D012101FA08F10840BC
:1011F00018B1584600F049F902E00E9800F045F9A0
:101200000398401CC0B20390039890FBF4F104FBD8
:101210001100F8B90020039023E005EB8510184970
:1012200001EB4000801CC05D012101FA08F108407B
:1012300020B15A4649463046FFF7C7FA701C86B2BD
:101240000098301AA04205D1009E09F101001FFA52
:1012500080F906E008F1010000F0FF08B8F1080F7E
:10126000B9DB00BF781CC7B201988742B0DB00BF72
:10127000681C85B2029885428ADBBDE8FF9F0000AA
:10128000447500082DE9FF4F85B0074690461C467F
:10129000DDE91396304606EBD071C1F3470B2149C7
:1012A000404601F07BFE039001F02CFE80B20490DA
:1012B000002531E0601B401EC1B20A2001F08CFA0B
:1012C0000499B1FBF0F00A21B0FBF1F201FB120A24
:1012D000A01EA84210D10020A11E01FB0B71CDE978
:1012E0000096029088B22E22129B0699FFF758FCB6
:1012F000681CC5B2601CC4B200200AF13001CAB239
:1013000005FB0B71CDE90096029088B2129B0699FD
:10131000FFF746FC681CC5B2A542CBDB09B0BDE8AF
:10132000F08F00000000C8422DE9FF4F85B007464E
:1013300091461D46DDE913A600200490304606EBD9
:10134000D071C1F3470B002434E0281B401EC1B20A
:101350000A2001F041FAB9FBF0F00A21B0FBF1F2EA
:1013600001FB12080498A0B9681EA04211DDB8F173
:10137000000F0CD1002004FB0B71CDE900A60290F8
:1013800088B22022129B0699FFF70AFC10E0012088
:101390000490002008F13001CAB204FB0B71CDE9C2
:1013A00000A6029088B2129B0699FFF7F9FB00BFD6
:1013B000601CC4B2AC42C8DB09B0BDE8F08F0000CD
:1013C0002DE9F04706460F4614461D46DDF82080FD
:1013D00004FB05F04FF6FF7101EA40097819401E41
:1013E00083B23019401E82B239463046FFF776F993
:1013F00008211248FFF76CF94B4642461049114844
:1014000000F094F8012202210D480C3800F0B4F9E4
:101410000C4800F0E9F809E04FF40070FEF7FEFF19
:1014200020B14FF40070FEF739FF00E0F4E700BF91
:1014300008210248FFF74EF9BDE8F0870008014097
:101440000C300140300002402DE9FE4F06460F46A9
:1014500014469846DDE90D5ADDF8309010E0CDE9EC
:10146000015ACDF800902278434639463046FFF7BE
:1014700097FB284605EBD07106EB61018EB2641C28
:1014800020780028EBD1BDE8FE8F10B5044620126D
:1014900000F01AF8E0B200F017F810BD10B50446DD
:1014A000204600F011F810BD10B504460221054891
:1014B000FFF70EF9204600F007F802210148FFF778
:1014C00009F910BD0008014010B50446082105487F
:1014D000FFF7FEF8204600F005F908210148FFF764
:1014E000F9F810BD0008014008B50121052000F001
:1014F000A3F801210B48FFF7A3F84FF40040ADF823
:10150000000010208DF8030003208DF802006946CA
:101510000548FFF709F84FF400410348FFF7DAF8F0
:1015200008BD000000023000000801402DE9F04134
:1015300007460D4616461C460121084600F06CF889
:101540003846FEF7C5FE0E4804800E48056046602A
:1015500010200C4988600846C46000200861802083
:10156000486100208861C86108624FF48050486279
:10157000002088623846FEF767FFBDE8F081000072
:1015800014000020580000202DE9F04107460D46C8
:1015900016461C460121084600F03EF83846FEF784
:1015A00097FE0F4804800F480560466010200D49E3
:1015B00088600846C4600020086148614FF480706C
:1015C00088618000C861002008624FF48050486242
:1015D000002088623846FEF737FFBDE8F081000042
:1015E000140000205800002010B5044600212046B9
:1015F000FEF762FE044801880448FEF743FF01211C
:101600002046FEF759FE10BD1400002030000240B5
:1016100000BFFEE77047704729B1064A526902438E
:10162000044B5A6104E0034A52698243014B5A61F8
:10163000704700000010024029B1064A9269024337
:10164000044B9A6104E0034A92698243014B9A6118
:10165000704700000010024000B587B00121080368
:10166000FFF7EAFF01210420FFF7E6FFE020ADF8D5
:10167000180003208DF81A0018208DF81B0006A909
:101680001648FEF751FFE0211448FFF723F8002029
:10169000ADF804004FF48270ADF806000020ADF8FC
:1016A00008000220ADF80A000120ADF80C0040024D
:1016B000ADF80E000820ADF810000020ADF81200C3
:1016C0000720ADF8140001A9054800F06CF80121CD
:1016D000034800F045F807B000BD000000080140D5
:1016E0000030014070B50546002405E0601CC4B21E
:1016F000C82C01DD002070BD02210E4800F045F825
:101700000028F3D029460B4800F04BF8002405E0F0
:10171000601CC4B2C82C01DD0020ECE701210548A3
:1017200000F033F80028F3D0024800F037F8C0B2D8
:10173000E1E700000030014010B50446074800888A
:101740004FF6C771084005490880084600882043C5
:1017500008800121014800F003F810BD003001406D
:1017600021B1028842F04002028004E002884FF674
:10177000BF731A40028070471AB183880B4383807D
:1017800002E083888B4383807047024600201389E0
:101790000B400BB1012000E0002070470146888912
:1017A00070478181704710B50022028802F44152CF
:1017B0000B884C8823438C882343CC8823430C8993
:1017C00023434C8923438C892343CC8923431A43E5
:1017D0000280838B4FF2FF74234083830B8A038242
:1017E00010BD704710B500F001F810BD0CB5002019
:1017F000019000903348006840F48030314908601F
:1018000000BF3048006800F4003000900198401C90
:101810000190009818B90198B0F5A06FF1D129484E
:10182000006800F4003010B10120009001E00020B9
:1018300000900098012843D12348006840F0100030
:10184000214908600846006820F003000860084647
:10185000006840F0020008601A4840681949486072
:101860000846406848600846406840F48060486028
:101870000846406820F47C1048600846406840F400
:10188000E81048600846006840F08070086000BFBB
:101890000C48006800F000700028F9D00948406842
:1018A00020F00300074948600846406840F0020005
:1018B000486000BF0348406800F00C000828F9D1D8
:1018C0000CBD00000010024000200240042808D196
:1018D0004FF0E021096941F004014FF0E02211616D
:1018E00007E04FF0E021096921F004014FF0E02208
:1018F000116170477047000010B51348006840F050
:1019000001001149086008464068104908400E4926
:101910004860084600680E4908400B4908600846C0
:10192000006820F4802008600846406820F4FE002B
:1019300048604FF41F008860FFF754FF4FF00060CD
:101940000449086010BD0000001002400000FFF8CC
:10195000FFFFF6FE08ED00E02DE9F04F89B04FF0F3
:10196000000800BF4FF6FF70A023802200210090E6
:101970000846FEF78FFF002010214FF6FF724FF44C
:101980007843CDE900210290FEA228210520FFF72F
:101990005BFD4FF478421421084600F016FB00204E
:1019A000FC4981F820004862D5E2FA4841680120EC
:1019B0008847F84890F8200000F0C000402877D110
:1019C000F44890F8200020F04000F24981F820000F
:1019D0000846808904A921F82800EE48C08A01EB56
:1019E0008801488008F1010000F0FF08B8F1010FFC
:1019F00009D0B8F1020F13D0B8F1030F1DD0B8F120
:101A0000040F0CD126E04FF6FF721421084600F0B7
:101A1000DCFA4FF4784214216C2000F0D6FA98E2F8
:101A20004FF6FF7214216C2000F0CFFA4FF4784289
:101A30008C21142000F0C9FA8BE24FF6FF728C2142
:101A4000142000F0C2FA4FF478428C216C2000F090
:101A5000BCFA7EE2BDF81010BDF81420881A0028E8
:101A600001DB014600E041420C46BDF81220BDF802
:101A70001610501A002801DB014600E041420D46D5
:101A800064436D43601900F012FFCDE9000100F0DE
:101A9000AEFECDE9020100F0DDFE1FFA80F9BDF8CF
:101AA0001810BDF81C20881A002802DB014601E04E
:101AB00050E241420C46BDF81A20BDF81E10501AE3
:101AC000002801DB014600E041420D4664436D43BE
:101AD000601900F0ECFECDE9000100F088FECDE9D0
:101AE000020100F0B7FE1FFA80FA504601F042FAF8
:101AF0000390484601F03EFA0290039901F024F960
:101B0000834601F093F806460F464FF06632A24B2B
:101B10003046394600F0DEFE0CD3A04AA04B3046DA
:101B2000394600F067FF05D3B9F1000F02D0BAF1D2
:101B3000000F2ED14FF000084FF6FF728C216C2061
:101B400000F043FA4FF478421421084600F03DFAC1
:101B5000002010214FF6FF724FF47843CDE90021A9
:101B6000029090A228210520FFF76EFC0020102192
:101B70004FF6FF724FF47843CDE9002102908DA219
:101B80003C210520FFF760FC4FF47A7000F08AFCDE
:101B9000E1E1BDF81010BDF81820881A002801DB1B
:101BA000014600E041420C46BDF81220BDF81A1073
:101BB000501A002801DB014600E041420D46644313
:101BC0006D43601900F073FECDE9000100F00FFED7
:101BD000CDE9020100F03EFE1FFA80F9BDF81410B5
:101BE000BDF81C20881A002801DB014600E04142B4
:101BF0000C46BDF81620BDF81E10501A002801DB57
:101C0000014600E041420D4664436D43601900F017
:101C10004EFECDE9000100F0EAFDCDE9020100F041
:101C200019FE1FFA80FA504601F0A4F903904846C5
:101C300001F0A0F90290039901F086F8834600F0C4
:101C4000F5FF06460F464FF06632534B3046394695
:101C500000F040FE06D3514A514B3046394600F061
:101C6000C9FE2ED24FF000084FF6FF728C216C2077
:101C700000F0ABF94FF478421421084600F0A5F9C2
:101C8000002010214FF6FF724FF47843CDE9002178
:101C9000029044A228210520FFF7D6FB0020102146
:101CA0004FF6FF724FF47843CDE90021029041A234
:101CB0003C210520FFF7C8FB4FF47A7000F0F2FBDF
:101CC00049E1BDF81410BDF81820881A002801DB7E
:101CD000014600E041420C46BDF81620BDF81A103E
:101CE000501A002801DB014600E041420D466443E2
:101CF0006D43601900F0DBFDCDE9000100F077FDD8
:101D0000CDE9020100F0A6FD1FFA80F9BDF8101020
:101D1000BDF81C20881A002801DB014600E0414282
:101D20000C46BDF81220BDF81E10501A002801DB29
:101D3000014600E041420D4664436D43601900F0E6
:101D4000B6FDCDE9000100F052FDCDE9020100F041
:101D500081FD1FFA80FA504601F00CF903904846C5
:101D600001F008F90290039900F0EEFF834600F0BD
:101D70005DFF06460F464FF06632074B3046394648
:101D800020E00000506C656173652061646A7573C2
:101D900074210000180000206666EE3FCDCCCCCC4C
:101DA000CCCCF03F41646A7573742046696C6564FD
:101DB00021200000506C656173652041646A757371
:101DC0007421000000F086FD06D3634A634B304661
:101DD000394600F00FFE30D24FF000084FF6FF7288
:101DE0008C216C2000F0F1F84FF478421421084661
:101DF00000F0EBF8002010214FF6FF724FF478430B
:101E0000CDE900210290AFF2640228210520FFF7FE
:101E10001BFB002010214FF6FF724FF47843CDE9F1
:101E200000210290AFF274023C210520FFF70CFB69
:101E30004FF47A7000F036FB8DE0BDF81410BDF859
:101E40001020881A01F07EF883465946444800F075
:101E50007BFF44494862BDF81410BDF81020881873
:101E600001F070F801903F48416A019801F096F83E
:101E700083464FF0864101F05DF94FF080410290BA
:101E800000F062FF039001F021F800B23549888527
:101E9000BDF81A10BDF81220881A01F053F88346D5
:101EA0005946314800F050FF2E498862BDF81A109B
:101EB000BDF81220881801F045F801902948816A80
:101EC000019801F06BF82949029001F033F983463B
:101ED0004FF0804100F038FF039000F0F7FF00B2B0
:101EE0002049C8854FF6FF728C216C2000F06DF8F8
:101EF000002010214FF6FF724FF47843CDE9002106
:101F000002901BA228210520FFF79EFA0020102135
:101F10004FF6FF724FF47843CDE90021029018A2EA
:101F20003C210520FFF790FA4FF47A7000F0BAFADE
:101F3000002010214FF6FF724FF47843CDE90021C5
:101F400002900FA228210520FFF77EFA09B0BDE814
:101F5000F08F00BF00BF28E5CDCCCCCCCCCCF03F7F
:101F60000000B042180000200000F04200002043B2
:101F70002041646A757374204F4B2120202000009B
:101F80002020202020202020202020202020000091
:101F900070B504460D461646324629462046FEF7E1
:101FA00014FC611C88B232462946FEF70EFC681C00
:101FB00081B232462046FEF708FC6A1C91B2621CD0
:101FC00090B23246FEF701FC70BDF8B504460D46EE
:101FD000164604F10D018AB2193988B22B462946FA
:101FE0000096FEF79CFB05F10D0083B2193881B213
:101FF000224620460096FEF792FB6A1C91B2621CB4
:1020000090B23246FEF7E1FB6A1C91B2621E90B2BA
:102010003246FEF7DAFB6A1E91B2621C90B232467B
:10202000FEF7D3FB6A1E91B2621E90B23246FEF7F3
:10203000CCFB3346062229462046FEF726FAF8BD99
:102040000648074948626FF016008885054888628F
:102050006FF00600C88500207047000095F3A53D8D
:10206000180000206CD0B73D70B505460024202133
:102070001848FEF72DFB80211648FEF729FB0020AB
:1020800015490860284600F06DF9062000F030FA86
:1020900020211048FEF71CFB012000F029FA202126
:1020A0000C48FEF717FB012000F022FA2021094816
:1020B000FEF70EFBFF20FFF715FB0402FF20FFF7E2
:1020C00011FB0443241101200449C1F8900120466A
:1020D00070BD000000080140900121420000214233
:1020E0002DE9FE4380460027002406E04046FFF726
:1020F000BBFF2DF81400601C84B2052CF6DB002415
:1021000016E0601C85B20FE03DF814003DF8151094
:10211000884207DD3DF814603DF815002DF81400E5
:102120002DF81560681C85B2052DEDDB601C84B2AE
:10213000042CE6DB0027012405E03DF814003844B8
:1021400087B2601C84B2042CF7DB032097FBF0F00D
:1021500086B23046BDE8FE832DE9F04104460D46C7
:1021600007480078FFF7BCFF064606480078FFF7EF
:10217000B7FF074626802F800120BDE8F0810000D0
:1021800048000020490000207FB504460D4620206D
:10219000FFF7D2FA02A903A8FFF7DEFF064616B939
:1021A000002004B070BD694601A8FFF7D5FF0646C0
:1021B0000EB90020F5E70820FFF7BEFABDF80400CD
:1021C000BDF80C10884206DCBDF80C10BDF8040008
:1021D000323081420CDBBDF80C00BDF8041088429F
:1021E00036DCBDF80410BDF80C00323081422FDA25
:1021F000BDF80000BDF80810884206DCBDF80810E4
:10220000BDF80000323081420CDBBDF80800BDF89B
:10221000001088421CDCBDF80010BDF80800323008
:10222000814215DABDF80C10BDF80420881800EBC7
:10223000D071C1F34F012180BDF80810BDF8002016
:10224000881800EBD071C1F34F0129800120A8E765
:102250000020A6E72DE9F041044640480068002828
:1022600056D12CB13E49A1F10A00FFF78DFF3DE0A8
:102270003B49A1F10A00FFF787FFB8B33849163987
:10228000B1F92C0000F05EFE074635491639888901
:1022900000F070FE804632481638416A404600F031
:1022A0007DFE0646394600F0EDFC054600F02AFEAC
:1022B0002B4916398881B1F92E0000F043FE0746FC
:1022C00027491639C88A00F055FE8046244816383A
:1022D000816A404600F062FE0646394600F0D2FCB4
:1022E000054600F00FFE1E491639C8821C481638F4
:1022F00090F8200000F0800038BBC0201849163943
:1023000081F82000084681898182C18AC1831CE04E
:102310001348163890F8200000F0800050B11048A3
:10232000163890F8200020F080000D49163981F809
:1023300020000AE000210A4816388182C1834FF646
:10234000FF70074916398881C8820548163890F809
:10235000200000F08000BDE8F081000000812142F3
:102360002E00002010B504462046FFF7BBF910BD33
:1023700010B540F225511D4800F03EF810B31B483F
:1023800000F064F8C4B21A48008800F40040C8B9EC
:102390001748008800F4804060B10A2C03D0002068
:1023A0001349088020E01248008840F4004010499A
:1023B000088019E00D2C06D10D48008840F48040BB
:1023C0000B49088010E00A480088C0F30D00094955
:1023D0000C5407480088401C0549088008460088BE
:1023E000C72801DD0020088010BD00000038014032
:1023F000540000208400002070B502460024002311
:102400000025002040F66A16B14200D100BFC1F39A
:10241000421501F01F03012606FA03F3012D02D134
:102420009689334006E0022D02D1168A334001E03E
:10243000968A33400C12012606FA04F416883440BA
:1024400013B10CB1012000E0002070BD0146888866
:10245000C0F30800704700BFFEE700BF70470000F0
:1024600010B56FF00400FFF731FA0A4800680A4916
:10247000B0FBF1F0094908700846007800EB400114
:10248000C1EBC0104FF6FF7101EAC000044908809B
:1024900010BD00000000002000127A004A00002059
:1024A0004C0000200146114A12884A434FF0E023B5
:1024B0005A6100229A611A46126942F001021A61B9
:1024C00000BF4FF0E022106900F001021AB100F4E1
:1024D0008032002AF5D04FF0E022126922F001028A
:1024E0004FF0E0231A6100229A6170474C000020EF
:1024F0000146114A12784A434FF0E0235A61002204
:102500009A611A46126942F001021A6100BF4FF047
:10251000E022106900F001021AB100F48032002AB2
:10252000F5D04FF0E022126922F001024FF0E023D3
:102530001A6100229A6170474A0000201FB50024EA
:10254000FFF78EFFFEF7D0FFFEF72CFA4FF6FF7075
:10255000A0238022002100900846FEF79BF94FF649
:10256000FF70ADF80C0000208F49086018214FF66D
:10257000FF724FF47843CDE9002102908BA201460F
:10258000FEF7BAFB002010214FF6FF724FF478439C
:10259000CDE90021029088A21E211820FEF754FFE9
:1025A00010204FF6FF714FF478420323CDE900214C
:1025B000029080221E214820FEF7B6FE0020102146
:1025C0004FF6FF724FF47843CDE9002102907CA2D0
:1025D00032211820FEF738FF10204FF6FF714FF41C
:1025E00078420323CDE900210290A0223221482025
:1025F000FEF79AFE10204FF6FF714FF47842042345
:10260000CDE900210290224650211420FEF73AFE27
:1026100000BF6D4828231A46502100904120FEF744
:10262000CFFE4FF47A70FFF73DFF4FF6FF70A02307
:102630008022002100900846FEF72CF9FFF700FDEC
:10264000002010214FF6FF724FF47843CDE90021AE
:1026500002905EA278210A20FEF7F6FE10204FF6C7
:10266000FF714FF478420323CDE90021029000224C
:1026700078211A20FEF758FE002010214FF6FF7235
:102680004FF47843CDE90021029051A28C210A2019
:10269000FEF7DAFE10204FF6FF714FF47842032365
:1026A000CDE90021029000228C211A20FEF73CFE89
:1026B00078E04848416800208847464890F8200064
:1026C00000F0800000286DD00120FFF7EBFE4148AC
:1026D00080897F2866DA3F488089012862DB3D488F
:1026E000C08A9F285EDA3B48C08A01285ADBBDF8C1
:1026F0000C004FF6FF71884207D136488089ADF84B
:102700000C003448C08AADF80E001F20314D0090F7
:10271000EB8AAA89BDF80E10BDF80C00FEF763F82D
:1027200028468089ADF80C002846C08AADF80E0016
:10273000002010214FF6FF724FF47843CDE90021BD
:10274000029022A278210A20FEF77EFE10204FF68A
:10275000FF714FF47842CDE900210290284682892A
:10276000032378211A20FEF7DFFD002010214FF609
:10277000FF724FF47843CDE90021029014A28C211E
:102780000A20FEF761FE10204FF6FF714FF47842E9
:10279000CDE9002102902846C28A03238C211A2009
:1027A000FEF7C2FD85E70000BC012142D6D0BEB0D5
:1027B000D4B0B5E7D7D300004C43445F573A00008C
:1027C0004C43445F483A000032320008583A000057
:1027D000593A00001800002010B50246012000E020
:1027E00050430B1EA1F10104E1B2F9D110BD2DE956
:1027F000F04106460F4600F033F9041E0D4618BF9F
:102800000120284320F00040C0F17F6000F1E0404B
:10281000C00F0ED0301C18BF0120384320F00040FC
:10282000C0F17F6000F1E040C00F04BF0120FDF760
:10283000F7FC20462946BDE8F081491058BFC1F198
:1028400040415B1058BFC3F140438B42EFF300801F
:10285000704700004FEA1153A3F58063D3F11E03C4
:10286000A8BFD3F1200C08DB4FF0004242EAC1229E
:1028700052EA505232FA03F0704709420BD4102B3F
:10288000C4BF0020704703F5787CBCF1FF3F05D042
:102890004FF0FF3070474FF00000704770B500F008
:1028A00055F800BF4992248000207047F0E7B0FA45
:1028B00080F310FA03F10AD0C3F11D0303F580631E
:1028C0004FEA41504FEA035202EBD12170474FF0DB
:1028D0000000704751EA030C17D41CF5801F58BF45
:1028E000BCF5801F00F10680994218BF704708BFF1
:1028F0009042704707D711F5801F58BF13F5801F0E
:1029000019D499427047894270471CF5801F08D539
:10291000BCF5801FF7D58B4218BF704708BF8242B5
:1029200070474FF4001C1CEB410F38BF1CEB430FEA
:1029300001D28B42704770B500F008F8922449002C
:102940004FF000514FF08053FFF777BF0EF1020EAA
:102950002EF0030E5EF8046B364205D4012A43EBD9
:10296000030515F5001F12D8012841EB010C1CF5D9
:10297000001F0CD80ED14FEAD17C15F5001F0CEBCF
:102980004C0C0CF1020C08BF4CEBD37C04E04FF074
:10299000080C01E04FEAD37C0CEB4C0526FA05F657
:1029A00006F00706B6F1040C06D20EEB860CBDE865
:1029B00070404CF0010C6047DFE80CF0090B02029C
:1029C0004FF000414FF00000A1F5002170BD194605
:1029D0001046012851EB010418BFD4F5001484BF40
:1029E000002001F0004170BD0808A0F500114FEA79
:1029F0003101704753EA010C17D41CF5801F58BFF2
:102A0000BCF5801F00F106808B4218BF704708BFDD
:102A10008242704707D713F5801F58BF11F5801FFA
:102A200019D48B4270479B4270471CF5801F08D514
:102A3000BCF5801FF7D5994218BF704708BF904278
:102A400070474FF4001C1CEB430F38BF1CEB410FC9
:102A500001D2994270470FB40CBC03BCFFF76BBFA7
:102A60002DE9F04101F5801CBCF5001FC0F2C380C8
:102A70004FEA115C21EA0C510CF1FD0C41F480117C
:102A80005FEA5C0C0CF5C07C01D3400049413DA4D9
:102A9000890241EA905187028E0E0A0CA45D04FB64
:102AA00004F602FB06F6C6F14046A4FB0662F60DEC
:102AB00046EA422606FB06F4A4FB01235242C3F178
:102AC000404338BF5B1EA6FB02420024E6FB032402
:102AD000D20B42EA4446A6FB0623A1FB02E2A3FB7B
:102AE00007E4A4184FF0000252F10002E3FB014298
:102AF0006442C2F1404E38BFAEF1010EA6FB042382
:102B00004FF00002E6FB0E32A2FB03464FF000043A
:102B1000B61954F10004E2FB0264A1FB06E6A4FB33
:102B200007E816EB08064FF0000858F10008E4FB30
:102B300001687642C8F1405838BFA8F10108A2FBED
:102B400006E4A3FB08E52D194FF0000454F100043E
:102B5000E2FB0854A1FB05E6A7FB04E818EB060816
:102B60004FF0000656F10006E1FB048618F120053F
:102B700056F10006A809A8F11B08B10908F03F08A2
:102B8000B8F10A0F40EA86601CD901EB0C51BDE890
:102B9000F08100BFFCF5EEE8E2DDD8D3CFCBC7C3B0
:102BA000C0BDB9B6B4B1AEACA9A7A5A3A19F9D9B6A
:102BB0009A9896959392908F8D8C8B89888786852D
:102BC00084838281A0FB006800FB01F208EB4208CD
:102BD000B8EB872807D5341858EB0104D5D5401C2D
:102BE00051F10001D1E7341A78EB0104CDD4401E35
:102BF00071F10001C9E75FEA4C0C5FEA9C5C0DD102
:102C000005D34FF0000001F00041BDE8F081BDE8C0
:102C1000F04170B5FFF79AFE6DDBFFBEBDE8F041F5
:102C20004FF00000004970470000F87F43004FEA72
:102C3000D30C4FEA3C0C43401FBF40070CF16051DE
:102C400013F0FE4F70471CF0006F03D100200CF012
:102C5000004170470CF0004343EA507010B540EA61
:102C6000CC0000F01CFA00BF000000924FEA000107
:102C7000FFF7BABE4FF000414FF00000A1F5002170
:102C80007047000090EA010F48BF81F0004100F159
:102C90006282421A3CBF801A89184FEAD0524FF024
:102CA0007F4C1CEA410FA2EBD15318BF9CEA026F84
:102CB00000F03B804FF0004C4CEA00204CEA012130
:102CC00021FA03FC10EB0C0C1ED202F1FF325FEA7A
:102CD0001C2040EBC25038BF70471CF07F0F4FEAFA
:102CE000400C18BFBCF17F4F38BF7047C3F12003C1
:102CF000994008BF20F00100BCF17F4F38BF7047FA
:102D0000A0F1C04000F011BA4FEA3C00000A40EBCD
:102D1000C25028BF1CF0FF0F4FEA400CE6D018BF8E
:102D2000BCF17F4F38BF7047EAE79CEA026F05D0DD
:102D300010EA5C0F08BF00F00040704710B500F0CB
:102D4000AEF900BF64FBBE3E4FF47F0C1CEAD0120C
:102D50001EBF1CEAD11392EA0C0F93EA0C0F00F08D
:102D6000858090EA010F48BF42F4807240F4000C65
:102D700041F400002CF07F4120F07F4000B58142FB
:102D8000A2EB03020FF2081CACEB504EC0F10000A6
:102D90009EF800E04FEA4E0E00FB0EFC38BF4900E3
:102DA0004FEA2C1C02F5FA020CFB0EF34FEACE1E82
:102DB0004FEA112C4FEAC1210EEB635E42EB224237
:102DC0000EFB0CFC4FEA1C5300FB03114FEA112CC5
:102DD0004FEA01310EFB0CFC4FEADC4C00FB0C11FE
:102DE000C14228BF09184CEB03335DF804EB10EB2C
:102DF000410143EBC250B2F57C0F38BF704729D573
:102E000012F0F00F1CBF00F1C04000F0004070470E
:102E1000008182838485868788898B8C8D8E8F91B3
:102E20009293959697999A9C9D9FA0A2A3A5A7A8D7
:102E3000AAACAEB0B2B3B5B7B9BCBEC0C2C5C7C903
:102E4000CCCED1D4D7D9DCDFE2E6E9ECF0F3F7FA67
:102E5000FE0000004FEA400C0CF1807CBCF17E4F7C
:102E600028BF7047B0F1C04000F05FB990EA010F91
:102E70000CEAD11348BF42F48072624538BF634503
:102E800007D213F47F0F16D080EA010000F0004053
:102E9000704710B500F003F9097EFC3E00F005B85C
:102EA00080EA010000F00040704780EA010000F075
:102EB000004000F03AB912F47F0F04BF0248704797
:102EC00080EA010000F031B90000C07F41000B0E24
:102ED000D3F19E0208D950F400034FEA032323FAEA
:102EE00002F048BF4042704710B500F0D8F800BF6C
:102EF00049922480002070476FF0004282EA20004F
:102F000070470000C10DD1F19E0206DB4FEA00239D
:102F100043F0004323FA02F07047004207D54FEA1E
:102F20004001B1F1FE4F02D24FF00000704710B5E2
:102F300000F0B5F849922480002070476FEA200025
:102F40007047000010F0004148BF4042B0FA80F3E3
:102F500010FA03F2C3F19D030BD051EAC35101EB08
:102F60001220530638BF704700F1010008BF20F05F
:102F700001007047B0FA80F310FA03F2C3F19D0329
:102F80000AD0D90501EB1220530638BF704700F173
:102F9000010008BF20F00100704700004FF47F0CD3
:102FA0001CEAD0121EBF1CEAD11392EA0C0F93EA5E
:102FB0000C0F00F0478090EA010F48BF42F4807286
:102FC0004FF0004C4CEA00204CEA012102EB0302D6
:102FD000A0FB0113A2F50002002918BF43F0010372
:102FE0005B0028BF4FEA330342EB22425FEA132C17
:102FF0004CEBC2502EBFBCEB436FB2F57C0F704759
:103000004FEA036CBCF1004F08BF20F00100B2F59D
:103010007C0F38BF70470BD582F0FF0212F5803F5E
:10302000C8BF704700F1C040D8BF00F000407047F3
:1030300000F5000C5FEA4C0C48BF7047B0F1C0408F
:1030400000F073B890EA010F0CEAD11348BF42F4C4
:103050008072624538BF634504D280EA010000F007
:103060000040704710B500F01AF800BF8900013E1B
:1030700000F007B800F009B85FEA410C5FEA1C6C89
:1030800008D080EA010000F050B85FEA400C5FEA27
:103090001C6CF6D14FF00040A0F5800070470EF197
:1030A000020E2EF0030E5EF8044B244204D44FEAC5
:1030B0004102B2F17F4F11D84FEA4003B3F17F4F85
:1030C0000CD80ED14FEAD07CB2F17F4F0CEB4C0CF8
:1030D0000CF1020C08BF4CEBD17C04E04FF0080C63
:1030E00001E04FEAD17C0CEB4C0324FA03F404F02A
:1030F0000704B4F1040C06D20EEB840CBDE81040BA
:103100004CF0010C6047DFE80CF0070802024FF0BA
:103110000040A0F5800010BD0846420018BFD2F163
:10312000807288BF00F0004010BDFF2141EAD050FE
:10313000C005704780F0004090EA010F7FF5A9AD0F
:1031400081F0004100F007B890EA010F48BF81F01C
:1031500000413FF59EAD421A04D882F00042A0EB38
:10316000020011444FEAD0524FF07F4C1CEA410F4D
:10317000A2EBD15318BF9CEA026F4AD04FF0004C2B
:103180004CEA00204CEA012121FA03FCB0EB0C0CC4
:103190000FD412F0FE0F36D05FEA4C001DD500129E
:1031A00040EBC25038BF70471CF03F0F18BF70474C
:1031B0000BE0A2F101025FEA1C2040EBC25038BFD5
:1031C00070471CF07F0F18BF7047C3F12003994070
:1031D00014BF401E20F00100704780084FEA122300
:1031E00008BF7047B0FA80FCA2EB0C02CCF1280CAF
:1031F00060FA0CF093EA122F04BF00EBC250704744
:103200004FEAC3707047130A5FEADC1008BF7047CB
:10321000F6E79CEA026F04D010EA5C0F08BF0020BA
:10322000704710B5FFF73BFF40DFF63E81F00040EE
:103230007047FFFFFFFFFFFFFFFFFFFFFFFFFFFFE5
:10324000FFFFFFFFFFFFFFFFFFFFFFFFFFFFFFFF8E
:10325000F7BEFFFFFFDEC6388C926B8E6B6E7C1064
:10326000AD96E73CFFFFFFFFFFFFFFFFFFFFFFFF04
:10327000FFFFFFFFFFFFFFFFFFFFFFFFFFFFFFFF5E
:10328000FFFFFFFFFFFFFFFFFFFFFFFFFFFFFFFF4E
:10329000FFFFFFFFFFFFFFFFFFFFFFFFFFFFFFFF3E
:1032A000EF5D9D15634F426C320A29881946192536
:1032B000214531E86B8EC638FFFFFFFFFFFFFFFFA0
:1032C000FFFFFFFFFFFFFFFFFFFFFFFFFFFFFFFF0E
:1032D000FFFFFFFFFFFFFFFFFFFFFFFFFFFFFFFFFE
:1032E000FFFFFFFFFFFFFFFFFFFFFFFFFFFFA53611
:1032F00053104B1053514B0F3A6C31E9216719258C
:1033000010E408A30062088352CBD69AFFFFFFFFA8
:10331000FFFFFFFFFFFFFFFFFFFFFFFFFFFFFFFFBD
:10332000FFFFFFFFFFFFFFFFFFFFFFFFFFFFFFFFAD
:10333000FFFFFFFFFFFFFFFFFFFFE73C637063B38B
:103340007CB863F54311324D29EA21881926190505
:1033500019051104110410E4008308A38C72FFFF07
:10336000FFFFFFFFFFFFFFFFFFFFFFFFFFFFFFFF6D
:10337000FFFFFFFFFFFFFFFFFFFFFFFFFFFFFFFF5D
:10338000FFFFFFFFFFFFFFFFDEDB3A4B42F06C3534
:103390004B5432B12A2E21EB21A9196719051104CA
:1033A0001104110411041104190510E4004273AF53
:1033B000FFFFFFFFFFFFFFFFFFFFFFFFFFFFFFFF1D
:1033C000FFFFFFFFFFFFFFFFFFFFFFFFFFFFFFFF0D
:1033D000FFFFFFFFFFFFEF5D3209324C4B10328FD2
:1033E0002A4F2A2E19CC1989218919471905110448
:1033F000110410C410C411041104110410E400429B
:103400008431FFFFFFFFFFFFFFFFFFFFFFFFFFFF15
:10341000FFFFFFFFFFFFFFFFFFFFFFFFFFFFFFFFBC
:10342000FFFFFFFFFFFF52EC1947324C2A0B21EC44
:1034300021EC220C5B914AEE11061926190410E4C6
:1034400010E429A7216608A319051104110410E44A
:103450000082BDF7FFFFFFFFFFFFFFFFFFFFFFFF42
:10346000FFFFFFFFFFFFFFFFFFFFFFFFFFFFFFFF6C
:10347000FFFFFFFFA535088321882188218921AA24
:10348000218A426B8C71FFFF8C720883110408C47F
:103490004229DEFBEF5D5AEC08831104110411048C
:1034A000088331E8FFDFFFFFFFFFFFFFFFFFFFFFA4
:1034B000FFFFFFFFFFFFFFFFFFFFFFFFFFFFFFFF1C
:1034C000FFFFF7BE31C710C4192519261947194740
:1034D00029A8528A4A28AD55FFFF31E808A31905EB
:1034E0006B4D6B4DFFFFEF7D214510C4110411049E
:1034F00011040062AD76FFFFFFFFFFFFFFFFFFFF3C
:10350000FFFFFFFFFFFFFFFFFFFFFFFFFFFFFFFFCB
:10351000FFFFB5960062110419041105190508C4CE
:103520004A8BB5B6EF5DBDF7FFFF6B8E0062422997
:103530005AAA4208FFFFFFFF52CC0883110411046E
:10354000110408A352ADFFFFFFFFFFFFFFFFFFFFC6
:10355000FFFFFFFFFFFFFFFFE71CFFFFFFFFFFFF76
:10356000FFFF634E006211041104110410E40062B5
:10357000638EFFFFFFFFFFFFFFFF73CF00019CF390
:10358000632CB596FFFFFFFF5B2D00831104110430
:10359000110410E42167EF3DFFFFFFFFFFFFFFFF76
:1035A000FFFFBDF8B5B7EF9E52CB94B3FFFFFFFF0F
:1035B000FFDF31E808A3110411041104110408A36A
:1035C0004249F7FFF7FFFFFFFFFF4A6A00018472DD
:1035D000FFFFFFFFF7FFEFDF3A0908A31104110413
:1035E000110411041105BE18FFFFFFFFFFFFFFFFCD
:1035F000FFFF7BF0006231E831C70041A535FFFFD6
:10360000EF5D214610C4110411041104110410E4EB
:1036100008A39D76F7FFFFFFADB708A308A331C746
:10362000E79EF7FFF7FFA57608A310E41104110445
:10363000110411051105A535FFFFFFFFFFFFFFFF77
:10364000FFFFDEDB29A7008310C410C410C4E71CF1
:10365000EF9E110510E41104110411041104190462
:1036600008C410E56BD16BD108C5006408A5004300
:10367000322B9D7784B3192510C411041104110451
:103680001104192509269D35FFFFFFFFFFFFFFFFEE
:10369000FFFFFFFF73AF00621904190500825B0D85
:1036A0009B8E1062110511041104190410E40085A9
:1036B000110539C45A817B409C22AC43A4039B83EF
:1036C0007282498218C200A400C510E419041104D2
:1036D0001905194711675AECFFBEFFFFFFFFFFFFF7
:1036E000FFFFFFDFDEDB10C410E41104110518A496
:1036F000C001888300E41905190408C521448343E7
:10370000D523FE42FEE4FF27FF07FEA4FE64FE036E
:10371000FDA3FCE2EC42B383622410E508C4190463
:10372000192619A821879000BCD3FFFFFFFFFFFFD8
:10373000FFFFFFDFFFFF7C10004219051105288302
:10374000D001F84448A300E408C55A44ED02FDE264
:10375000FE02FE66FF74FFB8FF73F6E7F6A6F645B5
:10376000F5A4FCC3FC62FCC2FCC2CBE349C4110655
:103770001988018790A4F8019AECFFFFFFFFFFFF73
:10378000FFFFFFFFFFFFF7BE31E80083090540821E
:10379000C001F823F08548A300A45A44FD02CC23BD
:1037A000DCC2FE04FE28F648F646F624F5E4FD6485
:1037B000FCE3FC62FCC2E402DC02FCE27AA4014805
:1037C000016778C4F824F802B084E77DFFFFFFFFAB
:1037D000FFFFFFFFFFFFFFFFDEDB192500A338C45B
:1037E000E002D822F844F8A678A40063214372834B
:1037F00039839B82F521FD61FD22FCE2FCA2FC42A3
:10380000FC42FC42AB22418392C35204012619259B
:1038100098A4F844F823F802D0A4EF9EFFFFFFFF1E
:10382000FFFFFFFFFFFFFFFFFFFFD69A298700A5DD
:10383000B843F822E023F865F8E8C9074883004256
:1038400000A3008429637AA2B362CBA2D362BB0235
:103850008A82398300A400E500E508E560C4D864E5
:10386000F844F824F823F8028883C6DBFFFFFFFF43
:10387000FFFFFFFFFFFFFFFFFFFFFFFFE73D5B5085
:103880003108E823F843F044F865F909F9ABD18928
:10389000890648A3184200020042006100820062CB
:1038A0000062008320A350C488A5D885F865F84439
:1038B000F844F823F823D003108229C7EF5DFFFFF7
:1038C000FFFFFFFFFFFFFFFFFFFFFFFFFFFFFFFF08
:1038D000326C38A5D802F823F865F866F8A7F94ADB
:1038E000FA0CFA4DEA4CD20BB9A9B168A947B12735
:1038F000B907D107E8E7F8C7F8A7F865F865F8440D
:10390000F823F803D00228A3090508C45AECFFFFE6
:10391000FFFFFFFFFFFFFFFFFFFFFFFFFFFFDEFBDC
:10392000190500C441A7C0E6F803F886F8A7F88790
:10393000F886F8C7F929F98AF9ABF9ABF98BF96A76
:10394000F929F908F8C7F8A6F886F865F864F823A5
:10395000F002B106292500E410E4192519259D146B
:10396000FFFFFFFFFFFFFFFFFFFFFFFFFFFFAD9622
:10397000006208829535CEBAA28BD044F825F8872C
:10398000F8A7F8C7F8A7F887F886F886F886F887C2
:10399000F8A7F8A7F8A6F885F865F864F024B864E5
:1039A000930DB6BB63CF0883110410E421663A4936
:1039B000EF5DFFFFFFFFFFFFFFFFFFFFFFFF94D360
:1039C000004210E4CEBBFFFFE7BEB576AACCC1072C
:1039D000E045F845F846F866F886F886F886F886F1
:1039E000F865F845F865E865D044A84388019082F9
:1039F000D73CEFFF955508831104110419051946AA
:103A000094B3FFFFFFFFFFFFFFFFFFFFFFFF94B334
:103A100000412186DF5DFFFFFFFFFFFFE7DFC67A82
:103A2000B4D3B34EC22AD168E0E6E8A6E8A5E8A57B
:103A3000D8E6C988A906A822A802A000C800D80014
:103A4000E5F7E7FFADF810C410E4110410E4110528
:103A50004A8BFFFFFFFFFFFFFFFFFFFFFFFFA555A3
:103A6000004129A7DF5DF7FFFFFFFFFFFFFFFFFF1B
:103A7000FFFFEFFFDF7DCEDBCE59CDF8CDD7C5F709
:103A8000CE79BEFBA2ABF003F845D042E843F0008C
:103A9000D472DFFFAE3910E410E4110410E4110514
:103AA0002987FFFFFFFFFFFFFFFFFFFFFFFFCE594B
:103AB00008832146D71CF7FFFFFFFFFFFFFFFFFF33
:103AC000FFFFFFFFFFFFFFFFFFFFFFFFFFFFFFFF06
:103AD000FFFFEFFFBA8BF804F845E062F044F8000E
:103AE000DB8EDFFFA5F810C410E410E4110410E42D
:103AF0001925FFFFFFFFFFFFFFFFFFFFFFFFF7BEDF
:103B000029870883B639F7FFF7DFFFFFFFFFFFFFC5
:103B1000FFFFFFFFFFFFFFFFFFFFFFFFFFFFFFFFB5
:103B2000FFFFE7BEBA4AF803F845F864F844F80026
:103B3000E36ED7FF8CF40883110410E410E410E462
:103B40001905FFFFFFFFFFFFFFFFFFFFFFFFFFFF65
:103B500073EF00008472EFFFEFBEFFDFFFFFFFFF98
:103B6000FFFFFFFFFFFFFFFFFFFFFFFFFFFFFFFF65
:103B7000FFFFE7DFBA8BF803F845F845F823F800B4
:103B8000D4D3D7FF5B4E00213A29A555088310C432
:103B90001925FFFFFFFFFFFFFFFFFFFFFFFFFFFFF5
:103BA000DEFB08A331E8DF9EE79EEFBFFFFFFFFFCC
:103BB000FFFFFFFFFFFFFFFFFFFFFFFFFFFFFFFF15
:103BC000FFFFF7FFBC51E002F803F003E043C2EC53
:103BD000CF7EBEFC2146002194D3FFFF845100001C
:103BE0002987FFFFFFFFFFFFFFFFFFFFFFFFFFFF33
:103BF000FFFF845100008CF4EFFFE79EEFBFFFDF73
:103C0000FFFFFFFFFFFFFFFFFFFFFFFFFFFFFFFFC4
:103C1000FFFFFFFFDF3DBD55BC52BC72B5B7C75DAE
:103C2000DFFF6BF000003A09F7BFFFFFFFFF9D14B5
:103C3000A555FFFFFFFFFFFFFFFFFFFFFFFFFFFF98
:103C4000FFFFFFFF4AAC08A4BEBBE7DFE77EEFBE85
:103C5000F7DFFFDFFFFFFFFFFFFFFFFFFFFFFFFFBC
:103C6000FFFFFFDFF7DFEFFFDFDFD7BFD79EDFDF2D
:103C7000A5D808831126D6DBFFFFFFFFFFFFFFFF5C
:103C8000FFFFFFFFFFFFFFFFFFFFFFFFFFFFFFFF44
:103C9000FFFFEE79DC8B312121A9CF3DDFBFDF7E35
:103CA000E79EEFBEEFBFF7DFF7DFF7DFF7DFF7DF06
:103CB000EFBFEFBEE79EDF7ED75ED75EDFDFB69A4F
:103CC00019260842A3EDFFBFFFFFFFFFFFFFFFFF25
:103CD000FFFFFFFFFFFFFFFFFFFFFFFFFFFFFFFFF4
:103CE000DD74DBC0FE00EE4242022189B67BDFDFDD
:103CF000D77EDF7EDF7EE79EE79EE79EE79EE79E1C
:103D0000DF7EDF7ED75DD75DDF9EE7FFA5F8110779
:103D100018E3C502FD60D3E6EEDBFFFFFFFFFFFF08
:103D2000FFFFFFFFFFFFFFFFFFFFFFFFFFFFF79E0C
:103D3000BA84FCC1FE42FE82FEA2838121457474D6
:103D4000C75EDFDFD77ED75ED75DD75ED75ED75D34
:103D5000D75DD75EDF9EE7FFC73D63F1088452421F
:103D6000E626FF29FE86F3E0C36AFFFFFFFFFFFFA1
:103D7000FFFFFFFFFFFFFFFFFFFFFFFFFFFFDE185B
:103D8000D2C1FDA2FE22FE42FE42FE62D4E26A41A0
:103D900042497453A63BC73ED7BFD7BFD7BFDFBF8B
:103DA000D7BFC73EA61A63F229A74182B422FE629A
:103DB000FE83FEAAFF0FFD67BA63EF3CFFFFFFFF24
:103DC000FFFFFFFFFFFFFFFFFFFFFFFFFFFFE69A81
:103DD000D280FD21FDC2F5E2F5C2F582FD82FD62D1
:103DE000DC619B216A846AE9632C63AF7411636EA2
:103DF000632C5A8952047A81CBC2FCE2FD62FD82B7
:103E0000FDC2FDC2FDE4FD24CA62E71CFFFFFFFF07
:103E1000FFFFFFFFFFFFFFFFFFFFFFFFFFFFFFFFB2
:103E2000CCB1D281F3C0FCC1FD02FD02FCE2FCC2B8
:103E3000FCC2FC81FB80C9C081A4AD35CE599C7108
:103E40008121DA00FBA1FC82FCA2FC82FCA2FD0223
:103E5000FD22FCE2FC00DA60CC90FFFFFFFFFFFFD9
:103E6000FFFFFFFFFFFFFFFFFFFFFFFFFFFFFFFF62
:103E7000FFFFDE59C40DCB06D2E4DB03DB03DAE33C
:103E8000D2C3C2A4B309BCD2F79EFFFFFFFFFFFF5E
:103E9000E6FBB40EBAA6D283E2E3EB02EB22E32206
:103EA000DB03D2E4C36AD5B6FFFFFFFFFFFFFFFFCE
:103EB000FFFF000000000000000000000000000004
:103EC0000404040404000004000014140A000000A8
:103ED00000000000000000000A0A1F0A0A1F0A0A68
:103EE000000000040E1505060C14150E0400000059
:103EF00012150D152E2C2A1200000000040A0A3695
:103F00001515291600000202010000000000000043
:103F10000000100808040404040408081000020447
:103F20000408080808080404020000000004150E34
:103F30000E150400000000000008083E08080000FC
:103F4000000000000000000000000202010000006C
:103F50000000003F00000000000000000000000022
:103F600000000002000000201010080804040202F3
:103F7000010000000E1111111111110E00000000BE
:103F8000040604040404040E000000000E111108CD
:103F90000402011F000000000E11100C1010110E81
:103FA00000000000080C0C0A091F081C000000009B
:103FB0001F01010F1110110E000000000C12010D65
:103FC0001311110E000000001E1008080404040460
:103FD000000000000E11110E1111110E0000000062
:103FE0000E1111191610090600000000000004004F
:103FF00000000004000000000000000400000004B5
:104000000400000010080402020408100000000070
:1040100000003F003F000000000000000204081004
:1040200010080402000000000E111108040400042E
:10403000000000001C22292D2D1D221C0000000064
:1040400004040C0A0A1E1233000000000F12120EA4
:104050001212120F000000001E1101010101110EC9
:10406000000000000F1212121212120F00000000C6
:104070001F120A0E0A02121F000000001F120A0E71
:104080000A020207000000001C1201013911120C83
:10409000000000003312121E121212330000000042
:1040A0001F0404040404041F000000003E08080864
:1040B000080808080907000037120A060A12123712
:1040C00000000000070202020202223F000000007E
:1040D0003B1B1B1B15151535000000003B12161667
:1040E0001A1A1217000000000E1111111111110EF1
:1040F000000000000F12120E020202070000000072
:104100000E1111111117190E180000000F12120EC6
:104110000A121237000000001E1101060810110FCC
:10412000000000001F1504040404040E0000000039
:10413000331212121212120C000000003312120A73
:104140000A0C040400000000151515150E0A0A0AD1
:10415000000000001B0A0A04040A0A1B00000000F9
:104160001B0A0A0A0404040E000000001F090804C8
:104170000402121F00001C040404040404040404C8
:104180001C000002020404040808081010000E08B5
:1041900008080808080808080E00040A00000000C3
:1041A000000000000000000000000000000000000F
:1041B000003F0204000000000000000000000000BA
:1041C0000000000C121C123C000000030202020E50
:1041D0001212120E000000000000001C1202120C4D
:1041E000000000181010101C1212123C00000000F9
:1041F0000000000C121E021C000000182404041E03
:104200000404041E000000000000003C120C021C0C
:10421000221C00030202020E1212123700000004D8
:10422000040000060404040E000000080800000C4E
:1042300008080808080700030202021A0A060A13FF
:1042400000000007040404040404041F000000002C
:104250000000000F15151515000000000000000FEC
:1042600012121237000000000000000C1212120C93
:10427000000000000000000F1212120E02070000E2
:104280000000001C1212121C103800000000001B5D
:1042900006020207000000000000001E020C101EB3
:1042A000000000000004041E0404041C00000000C0
:1042B0000000001B1212123C000000000000001B56
:1042C0000A0A04040000000000000015150E0A0A86
:1042D000000000000000001B0A040A1B0000000090
:1042E0000000003312120C08040300000000001E3E
:1042F0000804041E000018080808080C080808082C
:10430000180008080808080808080808080806042B
:104310000404040804040404060016090000000054
:10432000000000000000000000000000000000008D
:104330000000000000000000000808080808080845
:1043400000001818000000486C2412000000000053
:104350000000000000000000002424247F1212123C
:104360007F12121200000000081C2A2A0A0C1828CA
:10437000282A2A1C080800000022251515152A588D
:104380005454542200000000000C1212120A762528
:104390002911916E000000060604030000000000D1
:1043A0000000000000000040201010080808080865
:1043B000081010204000000204080810101010100F
:1043C0001008080402000000000008086B1C1C6BA9
:1043D00008080000000000000000080808087F0826
:1043E00008080800000000000000000000000000B5
:1043F0000000060604030000000000000000FE00AC
:1044000000000000000000000000000000000000AC
:104410000000060600000000804040202010100828
:1044200008040402020000000018244242424242F2
:10443000424224180000000000080E08080808087E
:104440000808083E00000000003C424242202010C4
:104450000804427E00000000003C42422018204038
:104460004042221C00000000002030282424222288
:104470007E20207800000000007E0202021A264002
:104480004042221C0000000000382402021A26428A
:104490004242241800000000007E2222101008086A
:1044A0000808080800000000003C4242422418248A
:1044B0004242423C0000000000182442424264583C
:1044C0004040241C000000000000000018180000FC
:1044D00000001818000000000000000000080000A4
:1044E0000000000808040000004020100804020436
:1044F0000810204000000000000000007F000000C5
:104500007F0000000000000000020408102040208E
:104510001008040200000000003C42424640201007
:104520001000181800000000001C225A555555555F
:104530002D42221C00000000000808181414243C1E
:10454000224242E700000000001F2222221E2242D7
:104550004242221F00000000007C42420101010192
:104560000142221C00000000001F2242424242423F
:104570004242221F00000000003F4212121E12128F
:104580000242423F00000000003F4212121E12127F
:104590000202020700000000003C2222010101711A
:1045A0002122221C0000000000E7424242427E42DB
:1045B000424242E700000000003E080808080808E0
:1045C0000808083E00000000007C101010101010B9
:1045D00010101010110F0000007722120A0E0A129C
:1045E00012222277000000000007020202020202EB
:1045F0000202427F000000000077363636362A2A53
:104600002A2A2A6B0000000000E346464A4A52521A
:104610005262624700000000001C224141414141BA
:104620004141221C00000000003F424242423E0243
:104630000202020700000000001C224141414141EA
:104640004D53321C60000000003F4242423E1212B5
:10465000222242C700000000007C424202041820CF
:104660004042423E00000000007F49080808080858
:104670000808081C0000000000E742424242424293
:104680004242423C0000000000E74242222424143F
:104690001418080800000000006B494949495555A5
:1046A000362222220000000000E7422424181818B5
:1046B000242442E700000000007722221414080896
:1046C0000808081C00000000007E212010100804CB
:1046D0000442423F0000007808080808080808085B
:1046E00008080808780000000202040408080810FE
:1046F000102020204040001E10101010101010102C
:10470000101010101E0000384400000000000000CF
:104710000000000000000000000000000000000099
:104720000000000000FF000608000000000000007C
:10473000000000000000000000000000003C427883
:10474000444242FC0000000000030202021A26421A
:104750004242261A00000000000000000038440217
:1047600002024438000000000060404040784442AB
:10477000424264D80000000000000000003C427E7D
:104780000202423C0000000000F08808087E080891
:104790000808083E0000000000000000007C222203
:1047A0001C023C42423C000000030202023A464224
:1047B000424242E700000000000C0C00000E080816
:1047C0000808083E000000000030300000382020BB
:1047D00020202020221E0000000302020272120A82
:1047E0001612227700000000000E080808080808CA
:1047F0000808083E0000000000000000007F9292C0
:10480000929292B70000000000000000003B464278
:10481000424242E70000000000000000003C42422B
:104820004242423C0000000000000000001B264203
:104830004242221E020700000000000000784442AD
:104840004242447840E000000000000000774C0441
:104850000404041F0000000000000000007C42026D
:104860003C40423E0000000000000008083E0808EE
:104870000808083000000000000000000063424209
:10488000424262DC000000000000000000E7422419
:1048900024140808000000000000000000EB494953
:1048A0005555222200000000000000000076241868
:1048B0001818246E000000000000000000E74224E9
:1048C000241418080807000000000000007E2210D1
:1048D0000808447E000000C0202020202010202056
:1048E00020202020C00010101010101010101010E8
:1048F000101010101010000608080808081008080A
:104900000808080806000C32C20000000000000081
:104910000000000000000000000000000000000097
:104920000000000000000000000000000000000087
:104930000000000000000000000000000000000077
:104940000000000000000000000000000000600007
:1049500060006000600060006000600040002000B7
:1049600020002000000000000000600060006000E7
:104970000000000000000000000060066006300338
:1049800098018800440000000000000000000000C2
:104990000000000000000000000000000000000017
:1049A00000000000000000000000000000001002F5
:1049B000100210021002FE07FE070802080108019B
:1049C00008010801FE07FE070401040104010401B7
:1049D0000000000000000000000000004000400057
:1049E000F00158034C03CC034C0058007000E00069
:1049F000C001C00140034C035C034C034801F000BC
:104A000040004000000000000000000000000E0117
:104A10000A01910091009100510051003A00AE034B
:104A2000A00250045004480448044804840284034B
:104A3000000000000000000000000000000038003E
:104A40006C006C006C006C006C002C0098071C0162
:104A50001A01330133016301E300C308C6093C07AF
:104A6000000000000000000000000C001C0010000E
:104A7000100008000400000000000000000000001A
:104A80000000000000000000000000000000000026
:104A9000000000000000000000000004000200010F
:104AA0008000800040004000200020002000200006
:104AB0002000200020004000400080008000000115
:104AC00000020004000000000000020004000800D2
:104AD0001000100020002000400040004000400076
:104AE000400040004000200020001000100008009E
:104AF00004000200000000000000000000000000B0
:104B000000004000C0004000460C4E0FD001F001F4
:104B10005E0F460C40004000400000000000000016
:104B20000000000000000000000000000000000085
:104B30000000000040004000400040004000FE0F28
:104B40004000400040004000400000000000000025
:104B50000000000000000000000000000000000055
:104B60000000000000000000000000000000000045
:104B7000000000000000000000000C001C001000FD
:104B80001000080004000000000000000000000009
:104B90000000000000000000000000000000FE0710
:104BA0000000000000000000000000000000000005
:104BB00000000000000000000000000000000000F5
:104BC00000000000000000000000000000000000E5
:104BD000000000000000000000001C001C001C0081
:104BE00000000000000000000000000400060002B9
:104BF00000030001000180008000400040006000D0
:104C00002000200010001000080008000C00040024
:104C1000060002000000000000000000000000008C
:104C2000F00098010C030C030606060606060606AD
:104C300006060606060606060C030C039801F0009D
:104C40000000000000000000000000000000000064
:104C500040007C0060006000600060006000600058
:104C60006000600060006000600060006000FC03A5
:104C70000000000000000000000000000000000034
:104C8000F80084010203060306030003000180010B
:104C9000C000600020001000080204020602FE03AB
:104CA0000000000000000000000000000000000004
:104CB0007800C6008601860180018001C000700076
:104CC0008001000100030003060306038601F800CB
:104CD00000000000000000000000000000000000D4
:104CE00080018001C001A001A0019001880188011C
:104CF00084018201FE0F8001800180018001E007B4
:104D000000000000000000000000000000000000A3
:104D1000FC0304000400040004000400F4008C01FF
:104D20000403000300030603060382018401F80064
:104D30000000000000000000000000000000000073
:104D4000E00118030C030C0004000600E601160342
:104D50000E0606060606060604060C021803F000F8
:104D60000000000000000000000000000000000043
:104D7000F8070C0604020401000100018000800015
:104D80004000400040006000600060006000600083
:104D90000000000000000000000000000000000013
:104DA000F8010C030606060606060C021C03F000BA
:104DB000C8010C0306060606060606060C03F001EB
:104DC00000000000000000000000000000000000E3
:104DD000F0000C010C03060206060606060606078E
:104DE0008C0678060006000300030C018C01780095
:104DF00000000000000000000000000000000000B3
:104E000000000000000000000000E000E000E00002
:104E100000000000000000000000E000E000E000F2
:104E20000000000000000000000000000000000082
:104E300000000000000000000000600060000000B2
:104E400000000000000000000000000060006000A2
:104E500040002000200000000000000000000004CE
:104E60000002000180004000200010000800040043
:104E70000800100020004000800000010002000433
:104E80000000000000000000000000000000000022
:104E900000000000000000000000FE07000000000D
:104EA0000000FE07000000000000000000000000FD
:104EB00000000000000000000000000000000400EE
:104EC00008001000200040008000000100020004E3
:104ED00000020001800040002000100008000400D3
:104EE00000000000000000000000000000000000C2
:104EF000E0031806040C040C0C0C0C0C00078001D9
:104F000040004000400000000000E000E000E00041
:104F10000000000000000000000000000000E000B1
:104F200018030C02CC0564056605A605B604B60494
:104F3000B604B604B602E4010C040C021803F00037
:104F40000000000000000000000000000000000061
:104F5000600060005000D000900090008800880140
:104F60000801F801040304030402020202060F0F01
:104F70000000000000000000000000000000000031
:104F8000FE008C030C030C030C030C038C01FC00CF
:104F90000C030C020C060C060C060C060C03FE019E
:104FA0000000000000000000000000000000000001
:104FB000E00318030C060C040404060006000600B7
:104FC00006000600060006040C040C021803F0009C
:104FD00000000000000000000000000000000000D1
:104FE0007F008C010C030C030C060C060C060C064F
:104FF0000C060C060C060C060C030C038C017F003F
:1050000000000000000000000000000000000000A0
:10501000FF03060306040604060086008600FE0061
:105020008600860086000600060406040602FF03CA
:105030000000000000000000000000000000000070
:10504000FF03060306040604060086008600FE0031
:1050500086008600860006000600060006001F0087
:105060000000000000000000000000000000000040
:10507000F00018010C020C020402060006000600F3
:105080000600C60F060306030C030C031803F0000A
:105090000000000000000000000000000000000010
:1050A0000F0F060606060606060606060606FE0795
:1050B00006060606060606060606060606060F0F7E
:1050C00000000000000000000000000000000000E0
:1050D000FC03600060006000600060006000600031
:1050E0006000600060006000600060006000FC0321
:1050F00000000000000000000000000000000000B0
:10510000F807C000C000C000C000C000C000C00060
:10511000C000C000C000C000C000C000C000C0008F
:10512000C60066003C000000000000000000000017
:10513000CF038601C60046002600160036002E006A
:105140006E004600C60086008601060106038F0732
:10515000000000000000000000000000000000004F
:105160001F000600060006000600060006000600F6
:105170000600060006000600060406040602FF03F9
:10518000000000000000000000000000000000001F
:105190000707860386038E038E034E034E034A03DE
:1051A0005A035A033A0332033203320312038707C6
:1051B00000000000000000000000000000000000EF
:1051C0008E0F0C021C021C023402340264026402C0
:1051D0004402C402840284038403040304031F0200
:1051E00000000000000000000000000000000000BF
:1051F000F00098010C030C020606060606060606D9
:1052000006060606060606060C020C039801F000C8
:10521000000000000000000000000000000000008E
:10522000FF000603060606060606060606068603B1
:10523000FE000600060006000600060006001F002D
:10524000000000000000000000000000000000005E
:10525000F00098010C030C02060606060606060678
:1052600006060606060676064C02CC039801F000F8
:1052700080070003000000000000000000000000A4
:10528000FF01060306060606060606060603FE00DE
:105290004600C600860086010603060306060F0EBA
:1052A00000000000000000000000000000000000FE
:1052B000F8020C030602060206000E003C00F8008D
:1052C000E003800300070206020606060C03F00155
:1052D00000000000000000000000000000000000CE
:1052E000FE07620461086108600060006000600001
:1052F0006000600060006000600060006000F80115
:10530000000000000000000000000000000000009D
:105310001E070C020C020C020C020C020C020C0206
:105320000C020C020C020C020C020C021801F00020
:10533000000000000000000000000000000000006D
:105340000F070602040104010C010C01880088000B
:10535000980098005000500070003000200020009D
:10536000000000000000000000000000000000003D
:10537000F70E620442044604460464026402E40236
:10538000E4029C029C019801980188018800880031
:10539000000000000000000000000000000000000D
:1053A0009E070C01080118019000B0006000200069
:1053B00060006000D00090008801080104038E079F
:1053C00000000000000000000000000000000000DD
:1053D0000F0F060404020C0208011801B800B00007
:1053E0007000600060006000600060006000F80114
:1053F00000000000000000000000000000000000AD
:10540000FC070C02060302018001800040004000FE
:10541000200020001000180008040C040402FE0301
:1054200000000000000000000000E0032000200059
:10543000200020002000200020002000200020006C
:10544000200020002000200020002000200020005C
:105450002000E00300000000000000000000040045
:1054600004000800080010001000100020002000B8
:1054700040004000C00080008000000100010002E8
:10548000000200020004000000007C004000400018
:10549000400040004000400040004000400040000C
:1054A00040004000400040004000400040004000FC
:1054B00040007C0000000000600090000801000037
:1054C00000000000000000000000000000000000DC
:1054D00000000000000000000000000000000000CC
:1054E00000000000000000000000000000000000BC
:1054F00000000000000000000000000000000000AC
:10550000000000000000000000000000000000009B
:1055100000000000FF0F0000000018006000000005
:10552000000000000000000000000000000000007B
:10553000000000000000000000000000000000006B
:10554000000000000000000000000000000000005B
:1055500000000000000000000000F0010C030C033C
:105560000003E0031C030E03060306038E0B7C0EF0
:105570000000000000000000000000000000080023
:105580000E000C000C000C000C00CC013C031C06AF
:105590000C060C060C060C060C060C021C03E4019F
:1055A00000000000000000000000000000000000FB
:1055B00000000000000000000000F0008C018C01E1
:1055C000860106000600060006020C020C01F0002F
:1055D00000000000000000000000000000000002C9
:1055E000C003000300030003000378038C030C03D3
:1055F0000603060306030603060304038C0778016B
:10560000000000000000000000000000000000009A
:1056100000000000000000000000E0011803080284
:105620000C060C06FC070C000C0018041802E00124
:10563000000000000000000000000000000000006A
:10564000C0036006300630003000FE01300030003C
:105650003000300030003000300030003000FC01FD
:10566000000000000000000000000000000000003A
:1056700000000000000000000000F007D8068C01C8
:105680008C018C019801F8000C00FC00CC0306038F
:1056900006038E03F8000000000000000000080070
:1056A0000E000C000C000C000C00EC011C030C03A1
:1056B0000C030C030C030C030C030C030C039E07DC
:1056C00000000000000000000000000000000000DA
:1056D000600060000000000040007C00600060008E
:1056E0006000600060006000600060006000FC031B
:1056F00000000000000000000000000000000000AA
:10570000C001C001000000000001F0018001800123
:105710008001800180018001800180018001800181
:105720008001CC007C0000000000000000000800A8
:105730000E000C000C000C000C008C038C008C0084
:105740004C006C005C008C008C010C010C039E076B
:105750000000000000000000000000000000400009
:105760007C0060006000600060006000600060001D
:105770006000600060006000600060006000FC038A
:105780000000000000000000000000000000000019
:10579000000000000000000000003707EE0666066B
:1057A0006606660666066606660666066606FF0FF7
:1057B00000000000000000000000000000000000E9
:1057C00000000000000000000000EE011C030C03BC
:1057D0000C030C030C030C030C030C030C039E07BB
:1057E00000000000000000000000000000000000B9
:1057F00000000000000000000000F00098010C0311
:10580000060606060606060606060C030C03F0004E
:105810000000000000000000000000000000000088
:1058200000000000000000000000EE011C030C0658
:105830000C060C060C060C060C060C031C03EC01F3
:105840000C000C003E000000000000000000000002
:105850000000000000000000000078028C030C0330
:105860000603060306030603060304038C037803FA
:1058700000030003C007000000000000000000005B
:10588000000000000000000000009F0358063806DA
:105890001800180018001800180018001800FF0061
:1058A00000000000000000000000000000000000F8
:1058B00000000000000000000000F0031C030C02C8
:1058C0000C023800F000C003040304038C03FC0145
:1058D00000000000000000000000000000000000C8
:1058E00000002000200030003000FE0130003000B9
:1058F0003000300030003000300030023002E00173
:105900000000000000000000000000000000000097
:10591000000000000000000008028E030C030C03CE
:105920000C030C030C030C030C030C039C07780101
:105930000000000000000000000000000000000067
:10594000000000000000000000001E070C0208011B
:10595000080118019000B000B00060006000200055
:105960000000000000000000000000000000000037
:1059700000000000000000000000F70E6204460472
:1059800064026402EC029C019801980198010800ED
:105990000000000000000000000000000000000007
:1059A00000000000000000000000BC07180110010A
:1059B000B00060006000E0009000080108039E074E
:1059C00000000000000000000000000000000000D7
:1059D000000000000000000000009E070801080110
:1059E000080190009000B00060006000600020009E
:1059F000200024001C000000000000000000000047
:105A000000000000000000000000FC018401C40050
:105A10004400600020003000180208020C03FC0162
:105A20000000000000000000000000038000800073
:105A30008000800080008000800080004000200006
:105A40004000800080008000800080008000800096
:105A50008000000300004000400040004000400083
:105A60004000400040004000400040004000400036
:105A70004000400040004000400040004000400026
:105A8000400040004000000000000C00100010002A
:105A90001000100010001000100010002000400046
:105AA0002000100010001000100010001000100066
:105AB00010000C00000000001C002204C20480033F
:105AC00000000000000000000000000000000000D6
:105AD00000000000000000000000000000000000C6
