:020000040800F2
:100000006801012061030008936600081F5800087A
:10001000916600081B230008B97700080000000063
:1000200000000000000000000000000071720008E5
:10003000C5240008000000009566000873720008DF
:100040007B0300087B0300087B0300087B03000898
:100050007B0300087B0300087B0300087B03000888
:10006000C7240008CD240008D32400087B0300081F
:100070007B0300087B0300087B030008FD230008C6
:100080007B0300087B0300087B0300087B03000858
:100090007B0300087B0300087B030008D9240008C9
:1000A0007B0300087B0300087B0300087B03000838
:1000B000217300087B0300087B0300087B03000812
:1000C0007B0300087B0300087B0300087B03000818
:1000D0007B0300087B0300087B0300087B03000808
:1000E0007B0300087B0300087B0300087B030008F8
:1000F0007B0300087B0300087B0300087B030008E8
:100100007B030008116700082D7300087B030008BB
:100110007B0300087B03000839730008557300084F
:100120007B0300087B0300087B0300080924000808
:100130007B03000800000000000000007B030008B3
:100140007B0300087B0300087B0300087B03000897
:100150007B030008152400087B0300087B030008CC
:100160007B0300087B0300087B0300087B03000877
:100170007B0300087B0300087B03000800000000ED
:10018000000000007B0300080000000000000000E9
:100190007B03000800000000000000007B03000853
:1001A0000000000000000000000000007B030008C9
:1001B0007B0300087B0300087B0300087B03000827
:1001C0007B03000800F002F800F0BBF80AA090E8FA
:1001D000000C82448344AAF10107DA4501D100F002
:1001E000B0F8AFF2090EBAE80F0013F0010F18BF14
:1001F000FB1A43F001031847D0B50300F0B5030024
:100200000A444FF0000C10F8013B13F0070408BF3C
:1002100010F8014B1D1108BF10F8015B641E05D0DA
:1002200010F8016B641E01F8016BF9D113F0080F8F
:100230001EBF10F8014BAD1C0C1B09D16D1E58BF21
:1002400001F801CBFAD505E014F8016B01F8016B58
:100250006D1EF9D59142D6D37047000000230024CB
:1002600000250026103A28BF78C1FBD8520728BFC6
:1002700030C148BF0B6070476E2900F017837029AA
:1002800000F0618466290FF0198165290FF016814D
:1002900067290FF0138161290FF0128103681B0A8F
:1002A00028BF41F08001692900F0C482642900F070
:1002B000C182752900F0BE826F2900F0EE83782993
:1002C00000F02D84E92900F08983E42900F0868379
:1002D000F52900F08383EF2900F0EB83F82900F083
:1002E0002C840368DB0928BF41F08001632901F0F9
:1002F000B781732901F0BC81E32901F0C781F3299B
:1003000001F0CC81002070471FB50FF0D2F89DE8B6
:10031000030000F039FD01F049FA0400002000213B
:100320000FF000F8401C6060002000210EF0E4FF98
:10033000E06000F0ABF91FBD10B5002000F0D2FC6A
:1003400010BD01F005FA1146FFF7DEFF0EF050FB7D
:1003500001F0FCFA03B4FFF7EFFF03BC00F0A8F9CB
:100360000948804709480047FEE7FEE7FEE7FEE749
:10037000FEE7FEE7FEE7FEE7FEE7FEE70448054985
:10038000054A064B7047000011730008C5010008BC
:1003900068C100206801012068E1002068E10020B8
:1003A00053EA020C00F069802DE9F04B4FF0000693
:1003B000002B1FBFB3FA83F503FA05F424FA05F600
:1003C0005E4012BF1643B2FA82F502FA05F4C5F197
:1003D00020051EBF22FA05FC44EA0C04203556EA2B
:1003E000044C4FEA144418BF641C4FF000084FF04F
:1003F0000009904271EB030C39D3002919BFB1FAFF
:1004000081F701FA07F6B0FA80F700FA07F6C7F1AC
:1004100020071EBF20FA07FC46EA0C062037B6FB71
:10042000F4FCA7EB0507103F07F01F0BCBF12006EC
:100430000CFA0BFB2CFA06F644BFB3460026202F1D
:10044000A4BF5E464FF0000B5BEA060C08BF4FF0FE
:10045000010B19EB0B09ABFB027C48EB0608C01B38
:1004600006FB02CC0BFB03CC71EB0C01C1E70B4686
:10047000024641464846BDE8F08B13B54FF00000F8
:100480004FF00001AFF30080BDE81C407047000052
:100490007CB51D4616460C00009001D02044401E3D
:1004A000074B7B442A4669460190304600F017FA14
:1004B00005461CB10020694600F024FA28467CBDA0
:1004C0006904000010B5002000F02DFCFFF734FF98
:1004D000BDE81040012000F0EBB82DE9F0410746DF
:1004E00015460E46102000F0EDF804000AD06760B3
:1004F000C4E9026500F0E2F80168216004600020B0
:10050000BDE8F0810120FBE740EA0103024630B577
:100510009B0710D14FF0013400E008C208C91D1B31
:100520009D4315EAC41FF8D013F0FF0102F8011B28
:100530000DD01B0AF8E711F8013B002B02F8013B34
:1005400005D011F8013B002B02F8013BF3D130BD7F
:1005500010B5203AC0F00B80B1E81850203AA0E85E
:100560001850B1E81850A0E81850BFF4F5AF5FEA92
:10057000027C24BFB1E81850A0E8185044BF18C945
:1005800018C0BDE810405FEA827C24BF51F8043BEC
:1005900040F8043B08BF7047D20728BF31F8023B40
:1005A00048BF11F8012B28BF20F8023B48BF00F8D4
:1005B000012B70474FF0000200B513469446964653
:1005C000203922BFA0E80C50A0E80C50B1F1200166
:1005D000BFF4F7AF090728BFA0E80C5048BF0CC014
:1005E0005DF804EB890028BF40F8042B08BF704772
:1005F00048BF20F8022B11F0804F18BF00F8012BE4
:10060000704700004FF0013C50F8042B51F8043BB8
:100610009A4221D1A2EB0C03934313EACC1317D1D6
:1006200050F8042B51F8043B9A4215D1A2EB0C036D
:10063000934313EACC130BD150F8042B51F8043B2D
:100640009A4209D1A2EB0C03934313EACC13DBD0FB
:100650004FF00000704700BFD01A01BAB1FA81F123
:1006600001F0180122FA01F0CB40C1F12001DBB208
:10067000C0B2C01A2CFA01F3D11A914311EAC31186
:10068000E6D17047704770477047000070B5064C60
:100690007C44064D7D4403E0206820448047241DAF
:1006A000AC42F9D170BD0000CCB30300D8B3030055
:1006B00001491820ABBEFEE7260002000048704743
:1006C00084BC002070B5064600F042FB056806F1C8
:1006D0000B0020F00704B4429CBF002070BD2B46E5
:1006E0006A68BAB11068A04210D304F108018842C8
:1006F0003CBF5068586007D35168101941601168B9
:10070000091B016058601460101D70BD13465268CB
:10071000002AE7D12146284600F022FB0028DED13E
:1007200070BD70B50446051F00F012FB0068002C78
:1007300014BF446870BD002C18BFAC423CBF2046BB
:100740006468F8D301680A18AA4218BF456003D14B
:100750002A6805461144016028684119A1421CBF5E
:100760006C6070BD6168696021680844286070BD74
:1007700070B5044685690068C10601D5302600E0E1
:100780002026C00707D070BDD4E90121304690472C
:10079000206A401C20626D1EF6D570BD70B50446FF
:1007A00085690078C00707D170BDD4E901212020F8
:1007B0009047206A401C20626D1EF6D570BD096806
:1007C0004A0501D540B27047C905FCD500B2704753
:1007D00009684A0501D5C0B27047C905FCD580B289
:1007E000704770B50C460546012A05D0287880066A
:1007F00000D5EA69002302E0012305E05B1C934277
:1008000002D2E05C0028F9D1A869E618C01AA861F4
:10081000286A184428622846FFF7AAFF04E0D5E9B1
:10082000012114F8010B9047B442F8D32846FFF792
:10083000B5FF70BD2DE9F04106460024106875290A
:10084000314616A510D0FFF7BAFF002802DA404261
:1008500013A507E031688A0701D512A502E0490710
:1008600004D511A5012401E0FFF7B2FF00210A22FF
:1008700006F1240709E0B0FBF2FCB0FBF2F302FB47
:100880001C00303078541846491C0028F3D1234608
:100890002A463046BDE8F04100F0F1BA0000000001
:1008A0002D0000002B0000002000000011680268ED
:1008B000006A530501D508700AE0D30501D5088008
:1008C00006E0130603D5C217C1E9000200E0086084
:1008D0000120704701694A1C02610878704700B521
:1008E0008FB0CDE901310021059105497944CDE969
:1008F00003101146684600F031F90FB000BD00004A
:10090000E5FFFFFF0A6802F8010B0A607047D1E9B2
:1009100000239A4202D2531C0B60107070470000F3
:100920002DE9FF5F15468A460446DFF8AC80F8449F
:100930000027D8E900103E46CDE9001010E03AF853
:1009400016106A4602A800F0ADFE411C07D02178BF
:10095000890603D5E269391891420DD80744761CFF
:100960002078800602D5E069B84205DDAE42E6DBBC
:100970003AF816000028E2D1A069C01BA061204609
:10098000FFF7F6FED8E90010CDE90010002017E0CF
:100990003AF818106A4602A800F084FEB0F1FF3F52
:1009A00081460BD000250DF1080B05E0D4E90121AB
:1009B0001BF8050090476D1C4D45F7D308F1010069
:1009C000B0428046E4DB206A384420622046FFF7CC
:1009D000E5FEBDE8FF9F0000A69803002DE9F04169
:1009E0008046D21D22F007020025D2E90002F52937
:1009F00015A614D0011E72F1000106DA0023D0EB17
:100A0000030063EB020211A608E0D8F800108B0780
:100A100001D50FA602E0490701D50EA60125114612
:100A2000002408F1240704E000F0E4F930323A55DC
:100A3000641C50EA0102F7D12B463246214640465B
:100A4000BDE8F04100F01BBA000000002D000000DE
:100A50002B0000002000000030B4002100F124042D
:100A600008E002F00705D208303542EA4372DB089D
:100A70006554491C52EA0305F3D10468002310A20F
:100A8000250707D5A40600D421B1C46901230DA20E
:100A9000641EC46130BC00F0F2B910B504462146B2
:100AA0001068FFF795FE02462046BDE8104000237F
:100AB000D2E7D21D22F00701D1E90023CCE70000E4
:100AC0000000000030000000F0B40D460188090568
:100AD00002D5214C7C4402E01F4C7C440E340021A2
:100AE00000F1240608E002F00F071209E75D42EA70
:100AF00003721B097754491C52EA0307F3D10278A9
:100B00000023120704D5702D06D009B10223113439
:100B10002246F0BC00F0B3B901231034F8E770B5F9
:100B200004460D4621461068FFF752FE024629464C
:100B30002046BDE870400023C6E7D21D22F007031F
:100B4000D3E90023C0E70368126843F02003036081
:100B50000823C3610023B7E7089703002DE9F05F7E
:100B6000894604464FF0000ADFF874B1FB44C0F830
:100B700020A02046E1688847002874D0252806D0A8
:100B8000D4E901219047206A401C2062F1E7002649
:100B90005F462046E16888472028054607DB312D5F
:100BA00005D2781910F8200C08B10643F1E7B00718
:100BB00001D526F00406C4F81CA00027C4F818A02C
:100BC0002A2D09D028460CF0A9FB38B304EB87087E
:100BD000303DC8F8185019E059F8041B204604EBC2
:100BE00087029161E1688847012F054618D1E069C5
:100BF000002820DA26F020061DE0D8F8180000EBC7
:100C0000800005EB40003038C8F818002046E16845
:100C1000884705460CF082FB0028EED1012F0AD050
:100C20002E2D08D12046E16888477F1C0546022FFB
:100C300046F02006C4DBA069002803DA404246F0F3
:100C40000106A061F00701D026F010066C2D0BD034
:100C5000682D09D04C2D39D06A2D35D0742D35D062
:100C60007A2D33D016E038E0E1682F4620468847D9
:100C7000B842054609D16C2F26D04FF48060E16858
:100C8000064320468847054604E06C2F1AD04FF4EF
:100C9000807006430DB3A5F14100192802D8203514
:100CA00046F400664A462946204626604E46FFF72F
:100CB000E3FA80B101280BD0F61D26F0070000F101
:100CC000080956E74020E4E78020D8E70020D6E76F
:100CD00006F104094DE7284652E7206ABDE8F09F77
:100CE000989603002DE9F0410646FFF7E7FC8046A1
:100CF000454613E016B1E068B0420ED12068286086
:100D0000D4E90101D8F8007088472046FFF709FDB3
:100D1000D8F80000B842EBD100E025462C68002C42
:100D2000E8D1BDE8F08110B500F0E2FCBDE810406C
:100D300000F0D8BC10B500F0F3FCBDE8104000F0A6
:100D4000D1BC0000004870474CBC00207047000038
:100D50000048704754BC0020704770477047704788
:100D600038B504460A4600206946AFF300800028E3
:100D700008BF38BD02460099204600F01BFD012047
:100D800038BD012000F004BEF8B5AFF30080054681
:100D900000200C46102000BF0646A819A0420DD91D
:100DA000324669460020AFF30080070008BF00F01C
:100DB000EFFD0098A04218BF0546C419FFF7C8FF11
:100DC00005600746F01D20F007004619284600F090
:100DD0000AF8B44208BFF8BDA21B31463868BDE826
:100DE000F84000F0E7BC00210160C0E90110704745
:100DF0001020704730B5B0F10A024FEA900E71F141
:100E000000034EEA817EB0EB0E0061EB91014FEAE8
:100E1000101E4EEA017E10EB0E0041EB11114FEA5D
:100E2000102E4EEA016E10EB0E0041EB11214FEA3D
:100E3000104E4EEA014E10EB0E0041EB11414018EE
:100E400041F100014FEAD00040EA41704FEAD10180
:100E500010EB80054FEA810444EA907444EB0104EE
:100E60006D1944EB0404521BA3414FF0000348BF2B
:100E70000A3200D530BD401C41F1000130BD2DE9E2
:100E8000F0470D4699469246044600F12408016851
:100E9000880604D5E06921F01001216000E00120FE
:100EA000A84201DD471B00E00027A1697A1902EB87
:100EB0000900081AA0612078C00602D42046FFF776
:100EC00057FC002608E0D4E901211AF806009047F3
:100ED000206A401C761C20624E45F4DB2078C00658
:100EE0000AD52046FFF744FC06E0D4E90121302072
:100EF0009047206A401C2062381EA7F10107F4DCED
:100F000007E0D4E9012118F805009047206A401C49
:100F10002062281EA5F10105F3DC2046FFF73EFC08
:100F20002078000602D50220BDE8F0870120FBE70B
:100F300070472DE9FF4F0C461E464FF0FF378BB030
:100F4000D2E90001DDF860800A908A46C1F30A55B3
:100F500005B93D46002108464FF00000BAF1000FE8
:100F600000F4400005DA00EB80004FF4400101EA94
:100F700050004FEA9059B9F1010F00DDB9460A98C7
:100F800050EA4A000ED044F61050A5F2FF35454312
:100F90002F14B8F1000F1ED07542291E1EDDC9F1B5
:100FA00000021CE0B8F1010F4FF0000001D0302129
:100FB00003E0F24305E02154401CB042FBDB304625
:100FC0000022002121540B99C1F80880C1E90020BA
:100FD0000FB0BDE8F08FBD1B6D1CDEE74A4600DA9E
:100FE000694206A800F040FC06AB93E8070003AB9B
:100FF00083E8070050460A9900F000FD8DE80700DD
:10100000A0F500501F3800900398002D0ADD42F231
:101010001F014A460844002303A90390684600F0D4
:1010200069FF09E0A0F500504A461F38002303A9D4
:101030000390684600F073FF8DE807000004000C81
:1010400003D04FF0FF30410800E01046B8F1000F28
:1010500003D00022009215461EE0751E05D4FFF74E
:10106000C9FE303262556D1EF9D5B34601220843E0
:1010700002D000227F1C04E02078302801D1002219
:101080007F1E002A099784D01DE0112D07DAFFF793
:10109000B1FE303262556D1C50EA0102F5D10843B1
:1010A00002D00098C8B10EE00021681E05E0235C64
:1010B000625C63542254401E491C8142F7DBAB46FC
:1010C000A81B401E0990002004F80B000B98099AF9
:1010D000C0F80880C0E9002B7AE711264FF000081D
:1010E00057E72DE9F04F88460446D21D22F007014C
:1010F00091B0D1E90001CDE90A010CF05EF8024699
:101100000B98C00F01D02D2007E02068810701D582
:101110002B2002E0202101EAC000032A099001D01F
:10112000072A05DB03464146204600F05DFB0BE144
:101130002078800601D5E06900E00620B8F1650F4F
:10114000814606D0B8F1660F18D0B8F1670F70D19C
:1011500031E00020B9F1110F009001DB112301E013
:1011600009F101030AAA01A90CA8FFF7E2FEDDE9D3
:101170000C70002609F10105834647E001204B462B
:1011800000904FF000470AAA01A90CA8FFF7D1FE72
:10119000DDE90DB00C995D46002610B909F101009A
:1011A0000D18B9EB050003D4C0F1FF3609F10105B4
:1011B000A5EB09002BE0B9F1010F01DA4FF00109AD
:1011C0000020B9F1110F0090484601DD112300E025
:1011D00003460AAA01A90CA8FFF7ABFEDDE90C70D3
:1011E0004D4600268346207800070AD4AB4500DA36
:1011F0005D4601A8012D04DD411911F8011C3029BB
:1012000007D04F4502DA17F1040F04DA01208246B5
:101210000FE06D1EEEE7002F02DCED1B3E4403E005
:10122000781CA84200DD7D1CB81B00F1010A4FF0BC
:1012300000472078000703D4AA4501DB4FF0FF3AAE
:101240000021B7F1004F0DF143088DF8431024D071
:1012500002202B23002F01DA7F422D230A21021EB8
:10126000A0F1010000DC5FB197FBF1FC97FBF1F20C
:1012700001FB1C7C17460CF1300C08F801CDEEE7A1
:10128000A8F1010003702188090501D5452100E07E
:101290006521A0F1010800F8011C09980FA9A1EB34
:1012A0000807FF1D00B10120411901EBEA70A16997
:1012B0003844081A401EA0612078C00602D4204697
:1012C000FFF756FA099828B1D4E901219047206A1E
:1012D000401C20622078C00622D52046FFF748FA3D
:1012E0001EE0002E04DBB34502DD01A8805D00E0B6
:1012F0003020D4E901219047206A401C2062761CEE
:10130000AAF101005FEA000A0AD100F04FFAC068B2
:101310000168405CD4E901219047206A401C2062AA
:10132000281EA5F10105DCDC07E0D4E9012118F84D
:10133000010B9047206A401C2062381EA7F101076C
:10134000F3DC2046FFF72AFA032011B041E6000043
:101350002DE9F04F04460D46D21D22F0070089B05A
:10136000D0E90097484639460BF027FF0246F80FB0
:1013700001D02D2307E02068810701D52B2302E04F
:10138000202101EAC0038DF820300BB1012000E0DC
:101390000020032A824601D0072A04DB2946204682
:1013A00000F022FA3FE12078800601D40D2500E00C
:1013B000E569C7F30A560D2D49DA00214FEA175B9C
:1013C00008464FF00000002F00F4400007DA00EB61
:1013D00080004FF4400100EBD07001EA60008115FD
:1013E000012901DD4FF0FF3100224FEA850CBCF1ED
:1013F000180F06D31346ACF118004FF08052C240CC
:1014000003E04FF4801323FA0CF30CF10C0CBCF145
:10141000200F04D3ACF1200C09FA0CF001E007FA1C
:101420000CF000294FF0004801DD18B90FE00ED193
:1014300040450CD319EB02095F4121B9404502D167
:101440009F4329EA0209BBEB175F00D0761C208876
:10145000000502D57B48784402E07A487844193880
:1014600008AA302302F80A30037C0AF10101002E99
:101470000AF1020A53546A4602DC4FF0300101E0DF
:101480004FF031014FF001088DF8001002D0A6F2A4
:10149000FF3603E059EA470100D06B4E002D02DC15
:1014A0002178090704D54FF002082E218DF801108C
:1014B000C44600210BE0C7F303433F01C35C491C52
:1014C0006D1E02F80830052908F1010801DA002D27
:1014D000F1DC00210CE000EB1973491C1B786D1E38
:1014E000082902F808304FEA091908F1010801DA61
:1014F000002DF0DC21688B0602D516E0A8F101086A
:10150000E04505DD02EB080313F8013C302BF5D074
:10151000B8F1000F09DD02EB080313F8013C2E2B94
:1015200003D1090701D4A8F10108002D05DD3E21F2
:1015300002F808106D1E08F10108407C002E02F828
:10154000080008F1010804DA2D20764202F80800AC
:1015500002E02B2002F808000A214FF47A7086423C
:1015600008F101080BDB96FBF0F3303302F808308A
:1015700096FBF0F308F1010800FB136601E0642E0E
:101580000CDB642096FBF0F3303302F8083096FB56
:10159000F0F308F1010800FB136601E00A2E06DBF8
:1015A00096FBF1F0303002F8080008F1010896FBD4
:1015B000F1F001FB1060303002F80800A16908F179
:1015C000010808EB050202EB0A00081AA061207866
:1015D000C00602D42046FFF7CBF8216A08AE01EB23
:1015E0000A00206204E0D4E9012116F8010B9047BB
:1015F000BAF1010AF7D22078C00602D52046FFF7DB
:10160000B7F86E4609E016F8010B3E280FD0D4E972
:1016100001219047206A401C2062B8F10108F2D2F3
:101620002046FFF7BBF809B00320BDE8F08F206A21
:101630002844206203E0D4E90121302090476D1E48
:10164000EBD3F8E7D28D030002FCFFFF10B543692E
:1016500013B1AFF3008001E0FFF7C3F8012010BD24
:10166000127800F124010A7000224A700122EDE78D
:1016700011684FF0FF32E9E710B5436913B1AFF3DA
:10168000008001E0FFF74CF9012010BD128800F145
:10169000240182840022C2840122EDE711684FF008
:1016A000FF32E9E770B516460C46054600F076F8BD
:1016B000036893F80101012806D0FF2C0FD8185DAC
:1016C00068B101202C7070BDD3F807013246214665
:1016D00003F2071303442846BDE8704018474FF053
:1016E000FF3070BD002801D0FEF7E2BF7047000058
:1016F00010B5002102A000F032F9012010BD000059
:10170000534947414252543A2041626E6F726D61B3
:101710006C207465726D696E6174696F6E00000093
:1017200010B5002102A000F01AF9012010BD000040
:101730005349475056464E3A205075726520766997
:10174000727475616C20666E2063616C6C656400F8
:101750007546FFF7F7FAAE4605006946534620F096
:101760000700854618B020B5FEF708FEBDE820400A
:101770004FF000064FF000074FF000084FF0000B4D
:1017800021F00701AC46ACE8C009ACE8C009ACE800
:10179000C009ACE8C0098D467047000010B500F0E4
:1017A00005F8001D10BD00BF7DDB0000004870473C
:1017B0006CBC0020034640688C46002818BF884255
:1017C0003CBF03464068F8D318681844884207D0E5
:1017D0000CF1030020F00700001D411A521A0146C7
:1017E000081D0A60FEF79DBF2DE9F0411F46044623
:1017F00003260168072A01F4006004DB08B116A57E
:1018000005E016A503E008B115A500E015A521F037
:1018100010002060A069C01EA0610FB1401EA06131
:101820002046FEF7A5FF4FB1D4E901213846904785
:10183000206A401C2062C01C206206E0206AFAE791
:10184000D4E9012115F8010B9047761EF8D2204605
:10185000FEF7A4FFBDE8F0814E414E006E616E00C0
:10186000494E4600696E66002DE9F04781461646EE
:101870008AB0354878440DC88DE80D003248784468
:10188000801C03AC0DC884E80D0041F69B30084471
:10189000372190FBF1F290FBF1F5A5F1800501FBFA
:1018A00012041B3C02D56442012000E00020DFF856
:1018B00098A080460027FA44AAF1BE0A0EE0E0078D
:1018C0000AD03246684607EB470101230AEB810143
:1018D00000F025FB8DE8070064107F1C002CEED182
:1018E000194F7F44AE3F19E0E80715D007EB04100D
:1018F0000DF1180A90E80E008AE80E00C068F04268
:1019000001D1981908903246012306A903A800F0D6
:1019100006FB03AB83E807006D10641C002DE3D1C8
:101920004FF0010332466946B8F1000F03A802D018
:1019300000F0E0FA01E000F0F2FAC9E90001C9F8AC
:1019400008200AB0BDE8F087448A030010B50446B9
:10195000AFF300802046BDE81040FEF7FBBC70B539
:1019600005460C460A2000E06D1C00F018F835B161
:1019700028780028F8D102E0641C00F010F814B1B7
:1019800020780028F8D1BDE870400A2000F007B8A0
:1019900010B500F00BF8BDE81040FFF7A3BE08B586
:1019A00069468DF800000320ABBE08BD10B50128C4
:1019B00005D0002103A0FFF7D2FF012010BD09A12F
:1019C000F8E7000053494752544D454D3A204F75B2
:1019D00074206F662068656170206D656D6F727927
:1019E000000000003A2048656170206D656D6F72DF
:1019F0007920636F72727570746564005FEA400CE1
:101A000008BF91F0000F4FEA8C234FEAC12243EA4E
:101A100051514FEA1C5018BF00F5F0404FEA30001A
:101A200018BF41F000415FEA6C5C00F02980BCF116
:101A3000FF3F08BF40F080407047130C06BF120400
:101A40004FF0100C4FF0000C130E04BF12020CF1FB
:101A5000080C130F04BF12010CF1040C930F04BF08
:101A600092000CF1020CD30F04BF52000CF1010CD8
:101A700011464FF00002A0F11F00A0EB0C007047D0
:101A800011F0004F08BF704731F000413FF4D5AF6F
:101A90000B0C06BF09044FF0100C4FF0000C0B0E9E
:101AA00004BF09020CF1080C0B0F04BF09010CF173
:101AB000040C8B0F04BF89000CF1020CCB0F04BF88
:101AC00049000CF1010CCCF12003A0EB0C0022FA30
:101AD00003F302FA0CF241EA030100F1010070473E
:101AE00020F07F4C80EA030023F07F47ACEB070334
:101AF00003F57C5300F0004003F1FF032DE980491A
:101B00004FEA154B09B44FEA144325EA0B4E24EA79
:101B100003480FF2042606EB132749083E785FEAD4
:101B2000320203FB0667C7F5000707FB06F64FEA1C
:101B300054374FEAD64606F1020607FB066CCCF195
:101B4000005C4FEA1C472CEA074C07FB06F40CFB31
:101B500006F504EB15464FEA961634BF00204FF009
:101B600000404FEAD13706FB07FC4FEA1C4C0CFB48
:101B70000BF7D21B03FB0CF761EB07010CFB0EF715
:101B8000B0EB074072EB17420CFB08F734BFA2EB37
:101B90000742B2EB074261EB17414FEA0C444FEAB0
:101BA000910706FB07FC4FEA1C4C0CFB0BF7B0EB54
:101BB000C74072EB573203FB0CF734BFA2EBC742AE
:101BC000B2EBC74261EB57310CFB0EF7B0EBC7002D
:101BD00072EB57720CFB08F734BFA2EBC702B2EBF3
:101BE000C70261EB5771039F4FEA816141EA92118D
:101BF00004EBCC044FEAD1374FEA826206FB07FCC4
:101C000042EA90124FEA80604FEA1C4C0CFB0BF743
:101C1000D21B03FB0CF761EB07010CFB0EF7B0EBDB
:101C2000074072EB17420CFB08F734BFA2EB0742E8
:101C3000B2EB074261EB17414FEA8C554FEA91072F
:101C400004EB9C2406FB07FC4FEA1C4C0CFB0BF737
:101C5000B0EBC74072EB573203FB0CF734BFA2EB7B
:101C6000C742B2EBC74261EB57310CFB0EF7B0EB4A
:101C7000C70072EB57720CFB08F734BFA2EBC70228
:101C8000B2EBC70261EB577115EB4C254FEA81614E
:101C900041EA92114FEA82624FEAD13742EA90124A
:101CA00006FB07FC44F100044FEA80604FEA1C4C3D
:101CB0000CFB0BF7D21B03FB0CF761EB07010CFBD2
:101CC0000EF7B0EB074072EB17420CFB08F734BF7E
:101CD000A2EB0742B2EB074261EB174115EB1C1573
:101CE0004FEA813141EA92414FEA823242EA904220
:101CF0004FEA80304FEA0C7644F1000448EA03438F
:101D00004EEA0B484FF0000EB2EB080C71EB0307E4
:101D100024BF624639464EEB0E0E4FF0000B001802
:101D2000524149414BEB0B0BB2EB080C71EB030733
:101D30007BF1000B24BF624639464EEB0E0E4FF08E
:101D4000000B0018524149414BEB0B0BB2EB080C56
:101D500071EB03077BF1000B24BF624639464EEB63
:101D60000E0E51EA020718BF46F0010616EB0E767A
:101D700055F1000254F1000103D5BDE88901BDE829
:101D80000088BDE88901BDE80048B619524141EB21
:101D90000101A3F10103704780807F7E7D7C7B7A07
:101DA0007978777676757473727171706F6E6E6D07
:101DB0006C6C6B6A6A6968686766666564646363AD
:101DC00062616160605F5F5E5E5D5D5C5C5B5B5A33
:101DD0005A595958585757565655555554545353A0
:101DE00052525251515050504F4F4F4E4E4D4D4DFB
:101DF0004C4C4C4B4B4B4A4A4A4949494848484746
:101E00004747474646464545454444444443434383
:101E10004342424242414141002B9C4630D477002C
:101E20002BD01CB54FEA370703B44FF010004FF02A
:101E30001001BAF1000F06D0BCF1000FDCBF40F07A
:101E4000080040F008014FF000000FBCBDE8104052
:101E50000BF1010BBBF1010F08BF5FEA170722BFAF
:101E600012F1010211F101014FF0004143F10003B1
:101E700000F0004043EA00007047F9D35708D0E76C
:101E800046EA064613F1400F4FEA16461FDD13F1EE
:101E9000200FDFBF16430A46002120335B42BED02D
:101EA000C3F1200746EA064602FA07F74FEA16464C
:101EB00046EA0706C3F1200722FA03F201FA07F700
:101EC00021FA03F14FF0000342EA0702A7E746EACE
:101ED000020646EA06464FEA164646EA0106BCBF37
:101EE00046EA0646360C4FF000034FF000024FF072
:101EF000000194E72DE9804C9A46934670B491E82E
:101F0000380007C831EA400C48BF34EA430C03D517
:101F1000FFF7E6FDFFF780FFF0BCBDE8008C2DE980
:101F2000804C9A46934670B491E8380007C810F088
:101F3000804F08BF13F0804F03D100F005F8FFF782
:101F40006BFFF0BCBDE8008C20F07F4780EA030007
:101F500023F07F4C07EB0C03A3F57C5300F000400B
:101F6000A3F1FE0392F0000F00F0B38095F0000F94
:101F700000F077802DE901494FEA11404FEA1446FD
:101F800021EA004800FB06FC24EA064708FB06F6A7
:101F900007FB08F800FB07F718EB06484CEB164C5C
:101FA0004FEA124B18EB07484FEA15464CEB174027
:101FB00022EA0B4E0BFB06FC25EA06470EFB06F653
:101FC00007FB0EFE0BFB07F71EEB064E4CEB164C09
:101FD0004FF000061EEB074E4CEB174B18EB0B08AF
:101FE00040F1000018EB0E0B58EB000840F1000028
:101FF0008F1A4FF000013CBFC943661B14BFB5EBFD
:10200000040C00213CBFC943F61B4FEA17444EEABB
:102010008E0E27EA04454FEA1C4704FB07622CEAB0
:10202000074C05FB07F70CFB05F604FB0CFC16EB55
:10203000074642EB174216EB0C4642EB1C421BEBE9
:10204000060658EB0202414146EA9E0601D5BDE86C
:102050000189B619524141EB0101A3F10103BDE829
:1020600001894FEA14454FEA114724EA054621EA5F
:10207000074C05FB07F406FB07F70CFB06F105FB15
:102080000CFC11EB074144EB17444FEA124711EBEC
:102090000C4144EB1C4422EA074C05FB07F206FB0B
:1020A00007F70CFB06F605FB0CFC16EB074642EBAC
:1020B000174216EB0C4642EB1C456A1854F100011E
:1020C00048BF7047B619524141EB0101A3F101032A
:1020D000704795F0000F37D04FEA11424FEA14478E
:1020E00021EA024624EA074C02FB07F106FB07F748
:1020F0000CFB06F402FB0CFC14EB074441EB17410C
:102100004FEA154714EB0C4441EB1C4125EA074C00
:1021100002FB07F506FB07F70CFB06F602FB0CFCBF
:1021200016EB074645EB174516EB0C4645EB1C42F4
:10213000121951F1000148BF7047B619524141EBE5
:102140000101A3F1010370474FEA14454FEA11471B
:1021500024EA054621EA074C05FB07F106FB07F7D1
:102160000CFB06F24FF0000605FB0CFC12EB0742DD
:1021700041EB174112EB0C4251EB1C4148BF704739
:10218000921841EB0101A3F10103704770B51B4D9B
:102190006878012830D11A482A780024408B4FF4FF
:1021A0000061012A02D0022A1BD004E0C2B2144806
:1021B000203018E02C70134881691348026891425E
:1021C00004D104606C700F480BF0C2FD0F48017819
:1021D000012911D104706C70BDE8704009480BF002
:1021E000B7BDC2B20A480CF0B5FE0028E2D06C7050
:1021F00004480BF0ADFDDDE770BD00008600002057
:1022000030A3002058B80020900100208F0100204A
:1022100050AB002070470000034901200870C10244
:10222000024803F053BC00008600002050AB0020A1
:102230000349022008708102024803F047BC0000F5
:102240008600002050A3002010B50124E1020348BD
:1022500000F06EFD00B10024204610BD00000240D9
:10226000704700000146014802F054B9D8B400207C
:1022700010B5044802F060F9042801D0012010BD17
:10228000002010BDD8B4002010B500F015F80128CA
:1022900001D0012010BD074802F060FA040006D109
:1022A0004FF40061034801F0DBFF00B10124204638
:1022B00010BD0000D8B4002008B501208DF8000042
:1022C000FFF7C2FF10B900208DF800009DF8000054
:1022D00008BD000038B50024009313460A460146A5
:1022E000034802F02BFB00B10124204638BD00005A
:1022F000D8B400207047000038B50024009313467E
:102300000A460146034802F00DFC00B101242046B4
:1023100038BD0000D8B400207047FEE7254A10B44D
:10232000136823F001031360234A1368C3F30B1CE3
:102330000123ACF54064243C07D01268C2F30B12B1
:10234000A2F5406CBCF1270C2AD11C4A12683ABB9A
:102350001B4AD2F800C0CCF30B0CBCF58A6F0FD02F
:10236000D2F800C0CCF30B0CACF58064833C07D0F2
:102370001268C2F30B02A2F5806CBCF1850C0FD180
:10238000104A13601368002BFCD10F4A10601068CC
:10239000884202D010BC0020704710BC012070475A
:1023A0000A4A93609368002BFCD110601068884241
:1023B000F3D0EFE7002000E000ED00E0002004E0B3
:1023C0000010005C084C0258004C025800300240DB
:1023D00010B5C0EB401084B20021074800F0B7F9F7
:1023E000002223461146044800F076F9BDE810406B
:1023F0000021014800F07DB97CB30020014800F0C5
:10240000C5B900002CB40020014800F0BFB900009D
:1024100014B60020014800F0B9B900005CB50020F6
:1024200001681823CAB2103AB2FBF3F2054B6FF3FE
:102430000901032A9B5CC36500D9091D8165084613
:102440007047000074A1030810B5014600208B6995
:102450008A6A4FF0C07453B1B3F5005F15D072B102
:10246000012A0CD0022A0AD0032A09D104E01AB1A9
:10247000012A06D0022A03D1C96AC90100D5012068
:1024800010BDC96AA142FAD010BD002AF7D0012AB6
:10249000F2D0022AF3D0032AF3D010BD30B504687D
:1024A000256825F480252560046863608368402BD7
:1024B000036803D099600068C26030BD9A6000680C
:1024C000C16030BD7047042000F038BB082000F028
:1024D00035BB102000F032BB202000F02FBB0000E5
:1024E00072B6044D4FF4804400222146284600F085
:1024F00024FCF9E700040240002200F001B80000CB
:1025000030B50E4B054601205C7A002C14D1587A68
:102510001C54587A03EB800045605D7A03F1080093
:102520002A54587A421C5A72303008703A20487047
:102530002F208870CC70002030BD000070B30020C8
:1025400010B5040002D0607910B106E0012010BD82
:1025500000202071204600F005F801206071002065
:1025600010BD000008B500680649884208D1064839
:10257000016841F480510160006800F480500090CF
:1025800008BD00000030024030380240704770B58E
:102590004379012B1CD00126467102230371056883
:1025A0002B6802F0100440F6FE72A2409343D1E97A
:1025B00000210A43A2401A432A6001680A68C02326
:1025C000A3409A430A60067100214171084670BD1C
:1025D000022070BD704770B50446006801684FF076
:1025E0000405890411D5416B89040ED52571216933
:1025F00041F001012161E90241632068016821F491
:10260000805101602046FFF7E5FF206801688900DE
:1026100014D5416B890011D52571216941F0020162
:1026200021614FF0005141632068016821F0805121
:1026300001602046BDE87040FFF7A8BF70BD70B5CF
:10264000040003D02079002510B105E0012070BD01
:102650006571204600F008F80220207125610120F4
:102660002071002070BD000010B586B00446142112
:102670006846FDF79FFF15492068884224D1144819
:102680000021026842F000520260006800F0005031
:1026900005900F481038026842F00102026000689D
:1026A00000F001000590102000900320CDE9010109
:1026B0006946084800F04EFA00220621362000F054
:1026C000BFFE362000F0AEFE06B010BD0074004024
:1026D000403802400000024018B5046800940068C9
:1026E000104421B1143000900360002018BD083060
:1026F000F9E770B54279012A1ED001224271022306
:1027000003710468266801F0100302FA03F52E43F2
:1027100026600029016811D00C6804F470153C246F
:102720009C40A54203D14B6843F002034B60027109
:1027300000214171084670BD022070BD0B68C3F3D3
:1027400083030F2BF3D14B6843F00103EEE710B581
:102750000268136801F01004012101FA04F4A34394
:1027600013600171002010BD90F83510022903D0CC
:102770008021416501207047052180F835100068EF
:10278000016821F001010160002070472DE9F84344
:1027900004464FF00009CDF8009063484FF41651FD
:1027A000A56D0068B0FBF1F72E6894F85C10082066
:1027B00000FA01F131420FD021680A6852070BD5A7
:1027C0000A6822F004020A6094F85C108840A8604D
:1027D000606D40F00100606594F85C104FF00108F6
:1027E00008FA01F0304208D021684969090604D589
:1027F000A860606D40F00200606594F85C100420F1
:102800008840304208D021680968890704D5A8604B
:10281000606D40F00400606594F85C101020884002
:10282000304218D021680968090714D5A8602068CB
:102830000168490304D50068000308D5A16C07E0CE
:102840000168C90503D4016821F008010160216C09
:1028500009B12046884794F85C1020208840304217
:1028600031D021680968C9062DD5A86094F83500D3
:1028700005282068016806D0490347D50068000391
:102880001DD4616C1CE021F01601016020684169D3
:1028900021F080014161206C08B9A06C20B1206852
:1028A000016821F00801016094F85C103F20884025
:1028B000A86084F8358084F83490216D1FE0E16BC6
:1028C00009B120468847606D00282BD0606DC00795
:1028D00014D0052084F835002068016821F001013A
:1028E00001600098401C0090B84203D8206800683E
:1028F000C007F6D184F8358084F83490E16C002963
:1029000010D001B02046BDE8F04308470168C90572
:10291000D5D4016821F01001016084F8358084F875
:102920003490CCE7BDE8F883A80100202DE9F04100
:10293000044600F007FA06465CB1022084F8350030
:10294000002584F834502068016821F001010160FD
:102950000DE00120BDE8F08100F0F4F9801B0528AE
:1029600005D920206065032084F83500F2E720684F
:102970000068C007F0D12268116820480140D4E9FE
:1029800001031843D4E903363343184363691843FA
:10299000A3691843E3691843236A18430843616A2B
:1029A000042903D1D4E90B131943084310602068AC
:1029B0004069666A20F0070130460E43012704286B
:1029C0000CD1A06A0643E06A40B12046FFF73CFD07
:1029D00020B14020606584F83570BAE72068466110
:1029E0002046FFF71DFD94F85C203F219140816057
:1029F000656584F835700020ACE700003F8010F07A
:102A00002DE9F0410446866D90F834000025012838
:102A10000DD0012084F8340094F835700020012F87
:102A200007D084F8340002252846BDE8F081022052
:102A3000FBE7022784F8357060652046FFF72EFD1E
:102A400094F85C103F208840B0602068016841F035
:102A500016010160206C20B12068016841F0080176
:102A600001602068016841F001010160DCE70000BD
:102A700070B5044600F066F90546601C02D00448B3
:102A80000078044400F05EF9401BA042FAD370BD08
:102A90009C0100202DE9F041244C0421204600F047
:102AA00047F90126224D012811D00821204600F0C7
:102AB0003FF901280BD01021284600F039F90128F0
:102AC00005D02021284600F033F9012801D119480A
:102AD000067004212746204600F02AF9154CA41D53
:102AE000012800D126700821384600F021F901287C
:102AF00001D1022020701021284600F019F9012888
:102B000001D1032020702021284600F011F9042172
:102B1000012800D1217008480160082101601021BE
:102B2000016020210160BDE8F08100000008024042
:102B30000004024004000020143C0140044910B588
:102B40000A68024202D00860FFF7A4FF10BD00002F
:102B5000143C01402DE9F84FDFF8ACA1002201241C
:102B60000AF1040B03254FF00F090BF1040E00BF0F
:102B70000B6804FA02F63340B3426ED10F7907F0C6
:102B80000307012F01D0022F16D187684FEA4208B0
:102B900005FA08FC27EA0C07D1F80CC00CFA08FC6F
:102BA0004CEA070CC0F808C04768B7430E79C6F373
:102BB000001696403E4346600E79F643B6070AD0AB
:102BC000C6684FEA420C05FA0CF7BE438F6807FA55
:102BD0000CF73743C7600E7906F00306022E10D1BA
:102BE000D60800EB8608D8F8206057074FEAD76C64
:102BF00009FA0CF7BE430F6907FA0CF73743C8F818
:102C0000207006684FEA420C05FA0CF7BE430F79B4
:102C100007F0030707FA0CF7374307604E6816F40E
:102C2000403F6BD0394E376847F48047376036688D
:102C300022F0030706F480460096354E07EB060C9B
:102C4000DCF8086897074FEA177809FA08F7BE43D7
:102C5000304FB84202D100271FE04FE02E4FB8425C
:102C600001D1012719E02D4FB84201D1022714E00C
:102C70002B4FB84201D103270FE02A4FB84201D1B0
:102C800004270AE0284FB84201D1052705E0274F65
:102C9000B84201D1062700E0072707FA08F73743B3
:102CA000CCF80878DAF800605746D1F804C09E43A3
:102CB0005FEACC3C00D51E433E60DBF800605F4617
:102CC000D1F804C09E435FEA8C3C00D51E433E60B1
:102CD000DEF800607746D1F804C09E435FEACC2C52
:102CE00000D51E433E60084F0C373E68D1F804C043
:102CF0009E435FEA8C2C00D51E433E60521C102A76
:102D0000FFF436AFBDE8F88F003C01404438024084
:102D10000030014000000240000402400008024070
:102D2000000C024000100240001402400018024053
:102D30000069084000D0012070470AB181617047E6
:102D40000904FBE701488068704700009C010020EF
:102D500070B5040025D094F83D00002520B984F812
:102D60003C50204600F050F9242084F83D002068B3
:102D7000016821F0010101602068016841F400410F
:102D800001602068016821F40041016001F02CF825
:102D90004D4A6168914201D84C4900E04C49884253
:102DA00001D2012070BD4B492368B0FBF1F15E6890
:102DB00026F03F060E435E606368934206D94FF4E7
:102DC000967359434FF47A73B1FBF3F12368491CAE
:102DD0001E6A26F03F06314319626168914210D89D
:102DE0004900401EB0FBF1F2521CC2F30B02042A50
:102DF00001D2042022E0B0FBF1F0401CC0F30B0034
:102E00001CE0A268F2B301EBC10303EB0116431E01
:102E1000B3FBF6F35B1C43F480431B0549D092B32C
:102E200001EBC10202EB0111401EB0FBF1F0401CAE
:102E3000C0F30B0040F4804040F400402168CA69B0
:102E40004CF6FF739A431043C861D4E9071001435D
:102E50002068026822F0C00211430160D4E9030136
:102E600001432068826848F2FF339A43114381602E
:102E7000D4E9050108432168CA6822F0FF02104323
:102E8000C86001E00EE016E02068016841F0010131
:102E900001602564202084F83D00256384F83E50BD
:102EA000002070BD01EB4106431EB3FBF6F35B1C33
:102EB000B3E70120C2E701EB4101401EB0FBF1F096
:102EC000401CC0F30B00B7E7A086010080841E0001
:102ED00000093D0040420F002DE9FF4F83B09A46A4
:102EE000DDE9119793460446DDF84080FFF72AFF9D
:102EF000054694F83D0020287FD11923012240493E
:102F00002046009502F01EFD002876D194F83C0082
:102F1000012872D0012084F83C0020680168C907AC
:102F200003D1016841F0010101602068016821F4CA
:102F300000610160212084F83D00402084F83E00BB
:102F400000262664C4F82480A4F82A90608D208589
:102F50002C48E062CDE9007553465A462046049954
:102F600002F076FC70B930E02A463946204602F07D
:102F700068FD58B1206C042804D12068016841F430
:102F800000710160012007B0BDE8F08F606A216820
:102F900000780861606A401C6062218D491E89B218
:102FA0002185628D521E628522685369DB435B076F
:102FB0000BD469B100781061606A401C6062208D9A
:102FC000401E2085608D401E6085208D0028CBD15D
:102FD0002A463946204602F08FFC0028CAD154F810
:102FE0003D0B016841F400710160202004F81E09C6
:102FF000E67766770020C6E7FFE70220C3E7000018
:10300000020010000000FFFF10B586B00446142136
:103010006846FDF7CFFA14492068884221D1134849
:103020000021026842F002020260006800F0020023
:1030300005904FF4407000901220CDE9010103206B
:1030400003900420049069460948FFF783FD074870
:103050001030016841F400110160006800F40010B4
:10306000059006B010BD000000540040303802400A
:103070000004024010B5FFF7CDF810BD2DE9F04176
:10308000040004D094F84100002618B109E00120A2
:10309000BDE8F08184F8406038486063204600F065
:1030A00073F8022084F841002168CA6940F6BF77AE
:1030B000BA43CA61216808626069022839D0E068B1
:1030C00068B12025A068202800D86D002C49206810
:1030D000884202D02B49884203D1012002E010250A
:1030E000F0E7022000F000FB2169B1F5007F02D07B
:1030F000B0FBF5F006E0E16809B1A90000E0E900E5
:10310000B0FBF1F000EB800061694000B0FBF1F032
:10311000401D0A21B0FBF1F000F00101401A400807
:103120000902821EFE2A06D3606C40F01000606423
:10313000ADE70220002122690843024320680262B1
:10314000D4E901010843A269E168114308432168F9
:10315000CA69BA43104340F40060C861A0683028CF
:1031600001D0B02804D12068C16941F48051C16107
:103170006664012084F84100002089E7C75B0008ED
:1031800000380040003C00402DE9F0439DB0064669
:10319000142117A8FDF70EFA5C216846FDF70AFA1C
:1031A00037493068884268D10224C021CDE9021431
:1031B00001200C210594CDE90001049400250A901A
:1031C0000E95684600F05EFB08B1FFF789F92D48BF
:1031D000016841F480410160006800F480401C9067
:1031E00028481038016841F004010160016801F0CD
:1031F00004011C91016841F002010160006817940C
:1032000000F002001C900720CDE91A50DFF87890FA
:10321000CDE9184517A94846FFF79CFC17A94FF4BC
:10322000A05081E831000527CDE91A571748FFF76C
:1032300091FCCDE91A574FF04008CDF85C80CDE9FC
:10324000184517A94846FFF785FC124C104884E83A
:1032500021010015C4E90350400060618000A061B5
:103260004011E0614002C4E908052046FFF75EFB1B
:1032700008B1FFF735F9B463A6631DB0BDE8F0836C
:10328000003800404038024000080240000402407C
:10329000706002402CB400207047000070B50446F6
:1032A00081B17AB194F84000012809D0012684F850
:1032B000406094F841000025012805D084F8405072
:1032C000022070BD012070BD032084F841006564B8
:1032D00061622068C06900F0070003281DD005283E
:1032E0001BD022856285A16B19480864A16B19481F
:1032F000C863A16B1848C864238D2268616A0C32C8
:10330000A06BFFF77DFB78B154F8440F40F0080044
:1033100044F8040966702570D4E74FF6FF7000EAA0
:10332000420020856085DEE72068C169490503D435
:10333000C16941F48061C16120684168890703D493
:10334000416841F00201416084F84050002070BDA6
:10335000BD5B0008995B0008715B000810B5FEF7C3
:1033600067FF10BD10B5FEF757FF10BD024881681A
:1033700002781144816070479C0100200B4810B511
:10338000016841F400710160016841F480610160ED
:10339000016841F480710160032000F071F80020A1
:1033A00000F006F800F024F8002010BD003C0240B8
:1033B00070B50D4D04464FF47A712878B1FBF0F0EA
:1033C0000A490968B1FBF0F001F0E5FD48B9102C9D
:1033D00007D200222146501E00F032F800206C6017
:1033E00070BD012070BD00009C010020A8010020DC
:1033F0000B4882B0016841F480410160006800F42C
:10340000804000900648001F016841F08051016033
:10341000006800F080500090042002B000F030B846
:1034200044380240002809DB00F01F0201219140CE
:103430004009800000F1E020C0F800117047000052
:10344000F0B40E4B1B680C46C3F30223C3F107050F
:10345000042D00D90425191D072901D2002300E0FD
:10346000DB1E012606FA05F1491E214099409E40C7
:10347000761E16403143F0BC09F0B7BE0CED00E0FB
:10348000064900F0070208684FF6FF03184040EABB
:103490000220034A10430860704700000CED00E072
:1034A0000000FA05F8B50446FFF74CFC064624B1C7
:1034B00094F84100002510B109E00120F8BD84F81E
:1034C0004050204600F042F841F28830A064206865
:1034D0000168A2686FF0FF0321F4F85103EB0222A8
:1034E00011430160A06C0090334600222021204649
:1034F00003F0D1F810BBE269E16823791143226A35
:1035000042EA03621143226813680E4E33401943A6
:103510001160D4E905121143226853680A4E334002
:10352000268A43EA06431943516021680A6842F03B
:1035300001020A606564012184F8411084F840505A
:10354000F8BD00002FFFFF00FEF8E0FF2DE9F0417D
:1035500086B0044614216846FDF72CF823492068FC
:1035600088423FD122480024016841F002010160F5
:10357000006800F0020005901D480838016841F01D
:1035800002010160016801F002010591016841F04A
:10359000040101600068022500F004000590042089
:1035A000CDE9000502AA03260927DFF8488082E852
:1035B000D00069464046FFF7CDFA7002CDE900051C
:1035C00002AA694682E8D0000B48FFF7C3FA402000
:1035D000CDE9000502940A20CDE903606946404622
:1035E000FFF7B8FA06B0BDE8F0810000001000A0B7
:1035F00038380240000402400008024040F2FF71E7
:10360000016038490A6802F03F0242600A68C2F36A
:10361000881282600A68C2F30142521C5200C260E2
:103620000A68C2F3036202610968C1F30271416171
:103630002C49091D0A6802F03F0282610A68C2F340
:103640008812C2610A68C2F30142521C520002622F
:103650000968C1F303614162224908310A6802F036
:103660001F0282620A68C2F30422C2620A6802F47C
:10367000401202630A6802F4400242630A6802F0E0
:10368000C06282630A6802F0C052C263154A7C3A83
:103690001268144B02F4F812143B1B6803F44073D5
:1036A0001343104A03641032136803F08063836489
:1036B000136803F44003C364136803F000634365B5
:1036C000136803F080534364126802F000520265ED
:1036D0000968C90101D4002100E0012180F85810D7
:1036E0007047000084380240F0B5644A63490746D9
:1036F00000205F4B5F4C604D604E083A8839012FC7
:103700006BD0022F77D0042F01D0082F46D1376815
:1037100007F47007C7F3130CBCF1000F3ED13F153F
:103720000D2F3BD2DFE807F007203B50203A3A3A12
:103730003B3A3A3A5200086841025148016801F0A8
:103740003F0102D4B3FBF1F101E0B4FBF1F10268F7
:103750000068C2F30362C0F388104843B0FBF2F183
:103760003068C0F3042016E008684002106800F0DA
:103770003F0002D4B3FBF0F001E0B4FBF0F01168BD
:103780001268C1F30361C2F388124243B2FBF1F144
:10379000306800F01F00401CB1FBF0F0F0BD08687D
:1037A0004002086800F03F0002D4B3FBF0F001E0F3
:1037B000B4FBF0F00A680968C2F30272C1F3881121
:1037C0004143B1FBF2F0F0BD2846F0BD086840026D
:1037D00001D41846F0BD2046F0BD366816F0C0662C
:1037E0003BD0B6F1007FEFD0B6F1806F12D0B6F1CA
:1037F000C06FF1D12DE01FE0B4FBF0F002E000BF9C
:10380000B3FBF0F01168C1F3881141431068C0F3B5
:103810000270C1E708684002086800F03F0023D545
:10382000B4FBF0F00A68C2F3881242430868C0F3A0
:103830000270B2FBF0F0F0BD366816F0C0560CD046
:10384000B6F1006FC0D0B6F1805FE3D0B6F1C05FD3
:10385000F1D108684002BED4BBE708684002106896
:1038600000F03F00CCD5C7E7B3FBF0F0DAE700008B
:103870000024F400001BB7000080BB008C3802401D
:10388000883802402DE9F84F044600260078F84DAC
:103890003746C00708D02868A16B20F0C0600843F5
:1038A0002860A06B00B901262078800708D5286819
:1038B000E16B20F0C05008432860E06B00B901269E
:1038C000207840070ED52868216B20F4401008436B
:1038D0002860206BB0F5801F01D010B102E00126F6
:1038E00000E00127207800070ED52868616B20F4DE
:1038F000400008432860606BB0F5800F01D010B124
:1039000002E0012600E0012720784FF0000A80063F
:103910004FF0010B63D5D6484C38016841F0805117
:1039200001600068DFF84C9300F080500090D9F8F7
:10393000001041F48071C9F80010FFF703FA8046C7
:1039400006E000BFFFF7FEF9A0EB080002286FD8E1
:10395000D9F80000C005F5D5DFF81483A8F11C08DC
:10396000D8F8000010F4407024D0B4F8401001F4EE
:10397000407181421ED0D8F80010BF4A21F4407136
:10398000C2F800B0C2F800A0C8F80010D8F80000D3
:10399000C0070FD0FFF7D6F9814607E0FFF7D2F94D
:1039A000A0EB090141F288308142D0D8D8F800005C
:1039B0008007F3D5216CAE48C1F301228438032A75
:1039C00037D0016821F4F811C0F80010D8F80010C1
:1039D000B4F84020C2F30B021143C8F8001020785D
:1039E000C00604D5A54894F85810C0F8E011207816
:1039F0000106A34805D50168E26C21F4400111439A
:103A000001602178490605D50168A26C21F080612A
:103A1000114301602188C90514D50168626D21F048
:103A2000006111430160616DB1F1006F09D009E0DF
:103A30001DE10268934B22F4F81219400A43026018
:103A4000C4E701272188890505D50168626C21F04A
:103A50008051114301602188DFF82C92490509D576
:103A60000168226D21F0005111430160206DB0F119
:103A7000005F04D01EB92068B0F5006F7ED1834985
:103A8000C1F868A0FFF75EF9794E80468C3E05E0EC
:103A9000FFF758F9A0EB0800022886D8306800012B
:103AA000F6D421687A48CA0701D0A26B1AB18907F7
:103AB00017D5E16BA9B901680268C1F30141491C3E
:103AC000D4E9013C43EA8C1321F0004CC2F30362B9
:103AD00009EB0C4141EA02610B43217D43EA01718C
:103AE000016021684A0703D5226BB2F5801F05D01B
:103AF000090721D5616BB1F5800F1DD101680268FE
:103B0000C1F30141491CD4E9013C43EA8C1321F083
:103B1000004C09EB0C4194F810C0C2F3027241EA68
:103B20000C610B4343EA027101602968A26A21F02B
:103B30001F01521E11432960218849051AD5216DA4
:103B4000B1F1005F16D101680268C1F30141491C5F
:103B5000D4E9013C43EA8C13D4F80CC0C2F30272DE
:103B60004FEA5C0809EB084C4CEA41610B4343EA1D
:103B7000027101602188090511D500E01FE0D4E938
:103B8000011241EA8211E268530809EB0342237CE7
:103B900042EA03621143227D41EA027101603B491E
:103BA000C1F868B0FFF7CEF8804605E0FFF7CAF825
:103BB000A0EB0800022874D830680001F6D5EFB3F6
:103BC000DFF8C880C8F870A0FFF7BCF8304E074691
:103BD000843E04E0FFF7B6F8C01B022861D83068C5
:103BE000C0438000F6D521682A484A0701D5226BD8
:103BF0001AB109071DD5616BD9B90168D4E906234B
:103C0000C1F30141491C42EA831221F0004309EB50
:103C1000034194F8243041EA03610A4302602968B1
:103C2000E26A6FF0FF0321F4F85103EB0222114323
:103C300029602188C90514D5616D00E038E0B1F133
:103C4000006F0ED10168D4E9062342EA8312236A89
:103C5000C1F303615C0809EB044343EA01610A43D1
:103C60000260C8F870B0FFF76DF804461CE018E079
:103C70008C38024000700040400E4742001047421E
:103C800094380240FFFCFF0F0000FFFF0000474296
:103C90008438024088380240FFF754F8001B02289D
:103CA00002D90320BDE8F88F3068C0438000F3D408
:103CB0000020F7E72DE9F0470E46050065D0DFF854
:103CC0001481D8F80000F7B200F00F00B04207D21C
:103CD00088F80070D8F8000000F00F00B04254D10E
:103CE00028683D4C810712D5400703D5206840F471
:103CF000E05020602878000703D5206840F4604039
:103D000020602068A96820F0F0000843206028782F
:103D1000C0072DD0304968680839012812D0022820
:103D200013D0032811D00968890700292DDA2168EA
:103D300021F0030101432160FFF704F8814641F2BD
:103D4000883A0EE009688903EFE709688901ECE722
:103D5000FEF7F8FFA0EB0901514502D90320BDE8A9
:103D6000F0872068696800F00C00B0EB810FEFD19C
:103D7000D8F80010404601F00F01B14207D9077092
:103D8000006800F00F00B04201D00120E7E728787A
:103D9000400705D52068E96820F4E050084320601A
:103DA0002878000706D52068296920F4604040EA99
:103DB000C100206000F038F82168084AC1F30311FF
:103DC000515CC8400649086006480068FFF7F0FAF1
:103DD0000020C4E7003C0240083802407CA10308F0
:103DE000A8010020A00100200448054900680968D6
:103DF000044AC1F38221515CC8407047A8010020E9
:103E0000083802408CA10308044805490068096885
:103E1000044AC1F34231515CC8407047A8010020F8
:103E2000083802408CA10308224810B5006810F041
:103E30000C02214815D02149042A11D01D4C241F01
:103E4000082A0FD00C2A0CD12268236802F03F0206
:103E50005B0221D52068C0F38810A0FB010120E09F
:103E6000084610BD2268236802F03F025B0205D5B8
:103E70002068C0F38810A0FB010104E02168C1F3B1
:103E80008811A1FB00010023FCF78AFA2168C1F325
:103E90000141491C49000AE02168C1F38811A1FBD6
:103EA00000010023FCF77CFA2168C1F30271B0FB2A
:103EB000F1F010BD083802400024F400001BB700E8
:103EC0002DE9F84F04007DD0DFF878B32078ABF10E
:103ED0000407C007A7F1040550D0DBF800105846CE
:103EE000C1F3810101290FD00168C1F381010229C9
:103EF00002D13968490207D40068C0F38100032861
:103F000009D13868400206D52868800336D5606834
:103F10000028D8D032E06068B0F5803F10D0B0F50E
:103F2000A02F286810D020F480302860286820F462
:103F3000802028606068A0B1FEF704FF06460CE010
:103F4000286840F48030F4E740F480202860F7E7E8
:103F5000FEF7F8FE801B642876D828688003F7D522
:103F60000CE0FEF7EFFE064605E000BFFEF7EAFEB6
:103F7000801B6428F0D828688003F7D42078DFF805
:103F8000C89280074FF0000A44D5DBF8001058466D
:103F900011F00C0F0FD00168C1F38101022902D189
:103FA0003968490207D50068C0F3810003280AD1A7
:103FB0003868400207D42868800715D5E0680128D2
:103FC00000D111E03AE1E068B0B10120C9F8000089
:103FD000FEF7B8FE064604E0FEF7B4FE801B02289A
:103FE000BAD828688007F7D52868216920F0F8003A
:103FF00040EAC10028600DE0C9F800A0FEF7A2FE6B
:10400000064604E0FEF79EFE801B02281CD82868A6
:104010008007F7D42078000727D5DFF828828B485F
:10402000616908F16C0881B101210160FEF78AFE27
:10403000064604E0FEF786FE801B022804D8D8F866
:1040400000008007F6D510E089E0C0F800A0FEF778
:1040500079FE064605E000BFFEF774FE801B0228CD
:104060007DD8D8F800008007F6D42078400769D5BD
:1040700074484FF0000838300068C0000BD4714815
:104080003830016841F08051016000684FF001084C
:1040900000F0805000906E4E3068C00511D430683A
:1040A00040F480703060FEF74DFE009006E000BFE7
:1040B000FEF748FE0099401A022850D83068C00523
:1040C000F6D5604EA068683601280FD00528306804
:1040D00010D020F001003060306820F00400306023
:1040E000A068B8B1FEF72EFE00900FE0306840F0F7
:1040F0000100F4E740F004003060F7E7FEF722FE2D
:104100000099411A41F28830814264D830688007B2
:10411000F4D50EE0FEF716FE009007E0FEF712FE63
:104120000099411A41F28830814254D830688007A2
:10413000F4D4B8F1000F05D042483830016821F0BE
:1041400080510160A069A8B3DBF80010C1F38101C0
:10415000022947D00228C9F860A005D000E03AE063
:10416000FEF7F0FD044639E0FEF7ECFD064604E0FC
:10417000FEF7E8FD801B02282DD828688001F7D4BF
:10418000F4E907010843E168324A490802EB0141BA
:10419000A26841EA82110843217C40EA0160217D46
:1041A00040EA017038600120C9F86000FEF7CAFDDE
:1041B000044606E044E000BFFEF7C4FD001B0228F1
:1041C00009D828688001F7D53AE000BFFEF7BAFDAC
:1041D000001B022802D90320BDE8F88F286880015F
:1041E000F4D42DE00128F7D03868E26900F48001AA
:1041F000914223D1226A00F03F0191421ED147F63D
:10420000C071626A0140B1EB821F17D1A26A4FF000
:10421000FF3300F4403103EB5202B1EB024F0DD1FA
:1042200094F82C2000F07061B1EB026F06D194F885
:10423000301000F0E040B0EB017F01D00120CBE76F
:104240000020C9E70838024000004742800E47427C
:10425000007000400000FFFF10B5FEF701F810BD30
:104260002DE9FE430446002603200D4684F8340061
:10427000606C03285ED0B5F5805F5BD04FF40067BB
:1042800000204FF08068BD421FD181460090019010
:104290000021206802F039FA800113D469462046D3
:1042A00002F0B4FD07000DD10198400334D5B4F8F5
:1042B00050000104206802F063FA070002D10221D5
:1042C000206823E0A06B384328E01DB1A06B40F0CC
:1042D000006023E08146009001900021206802F0F8
:1042E00014FA8001EED46946204602F08FFD0700E3
:1042F000E8D10198C0030FD5B4F85000010420683C
:1043000002F03EFA0700DDD10021206802F085FAB4
:104310000700D7D14F46D5E74746D3E7A063A06B48
:10432000144F4FF0010848B12068876384F8348047
:1043300001260EE0A06B40F08050EFE7211DD4E98C
:10434000050C0EC9CDE90050CDF808C0206802F078
:10435000E5F94FF40071206802F046FA28B12168AF
:104360008F63A16B0143A163012684F8348030463A
:10437000BDE8FE83FF05400070470000F0B5426EC7
:10438000920F0A70426EC2F383624A70426EC2F3A9
:1043900001628A70426E120CCA70B0F86420120A70
:1043A0000A7190F864204A71826E120DCA80826E82
:1043B000C2F303420A72B0F86820C2F3C0324A72F4
:1043C000B0F86820C2F380328A72B0F86820C2F375
:1043D0004032CA72B0F86820C2F300320A73002675
:1043E0004E73426C4FF40075012462B1012A3AD039
:1043F000026847499163816B41F08051816380F885
:1044000034400120F0BDB0F86820C36E9205120D53
:1044100042EA93720A61C26EC2F3C2620A75C26E48
:10442000C2F302624A75C26EC2F342528A75C26E0C
:10443000C2F38242CA75C26EC2F3C2320A760A69F8
:10444000521C42650B7E03F007039B1C9A40426599
:104450000B7A03F00F0704FA07F383655B0A5A43EC
:10446000C0E917250EE090F86820C36E9206920A04
:1044700042EA13420A610A69521C92024265C0E98B
:104480001652056630F86C2FC2F3803201F8192FEE
:104490000288C2F3C6124A70027802F07F028A7064
:1044A0004268D20FCA704268C2F341720A71426810
:1044B000C2F382624A714268C2F383528A714268CF
:1044C000C2F34052CA710E724268C2F300424A728D
:1044D0008288C2F3C0328A728288C2F38032CA7282
:1044E0008288C2F340320A738288C2F300324A7370
:1044F0008288C2F381228A738288C2F30122CA733E
:104500000079C0F3460008744C740020F0BD000030
:10451000FF054000426C0A60826C4A60C26C8A608F
:10452000026DCA60426D0A61826D4A61C26D8A6124
:10453000006EC8610020704770B50446B0F85000A6
:1045400000250104206802F072FA18B1A16B014342
:10455000A16304E00021206802F0D7F80546C5F306
:10456000432070BD2DE9F843056B04460068416B9C
:1045700009041CD529071AD5D4E90A56002E14D0EF
:104580000027206802F0E4F805F8010B010A05F89D
:10459000011B010C05F8021B000E361F7F1C05F8DD
:1045A000010C082FEDD3C4E90A56BDE8F883416B2E
:1045B0004FF00006C90540F23A584FF0010743D5C5
:1045C000390281632068C16B4CF23A129143C16396
:1045D0002068C16A21F00101C16228071CD515F0CD
:1045E000220F09D0206802F053FA28B1A16B0143D1
:1045F000A1632046FFF7C0FE2168C1F8388084F827
:1046000034702663A80703D0204600F083FACCE775
:10461000204600F083FAC8E72806C6D5A80609D5C3
:10462000206802F035FA28B1A16B0143A16320464E
:10463000FFF7A2FEA807B8D12068C16A21F00801DF
:10464000C16284F83470E3E7416B490423D529073C
:1046500021D5D4E90856002EA7D0002715F8010B64
:10466000009015F8011B361F40EA0120009015F854
:10467000021B40EA0140009015F8011C40EA01606D
:1046800000906946206802F076F87F1C082FE5D379
:10469000C4E9085689E7416B11F03A0F85D0416BA8
:1046A000890703D5A16B41F00201A163416B0907A2
:1046B00003D5A16B41F00801A163416B890603D5C5
:1046C000A16B41F02001A163416BC90603D5A16B29
:1046D00041F01001A163C0F838802068C16B21F45B
:1046E0009D71C163206802F0D3F9A16B0843A063F8
:1046F000280706D584F8347026632046FFF73CFE71
:1047000053E7280687D515F0300F0CD0E16B114820
:104710000865E06BFEF728F80028BBD0E06BBDE829
:10472000F84302F051BBA8070CD0216C0A48086579
:10473000206CFEF719F80028ACD0206CBDE8F843D7
:1047400002F020BBA66384F8347026632046FFF78E
:1047500083FD2AE7C96D0008856D000870B5040067
:104760000ED094F83400002518B92577204600F0C3
:104770004BF8032084F83400204600F00BF808B111
:10478000012070BDA5632563012084F8340000205A
:1047900070BD0000FEB50025044676200095CDE9E9
:1047A000015029460B460A46206801F0B7FF28BB96
:1047B000134E46F8A05F206801F0C2FF0125356066
:1047C000204602F007FC28B184F83450A16B014365
:1047D000A16313E0204602F086FB0028F4D14FF4D9
:1047E0000071206802F000F8002808D0226805490E
:1047F0009163A16B0143A16384F834500120FEBD95
:1048000000802542FF0540002DE9F0439DB006469B
:1048100014216846FBF7CEFE5C2105A8FBF7CAFE13
:104820003F493068884277D14FF4407000250590A9
:104830001A95169505A8FFF725F808B1FDF750FE63
:104840003848016841F4006101600068354900F4AE
:10485000006014391C90086840F002000860086885
:1048600000F002001C90086840F00400086008682E
:1048700000F004001C90086840F008000860086818
:104880000327022400F00800CDE900741C9002AA5E
:104890004FF00C0882E8A00169462348FEF75AF958
:1048A0004FF4C8508DE8B10169462048FEF752F92F
:1048B0004FF0040901AACDF8009082E8B0016946E2
:1048C0001B48FEF747F91C4C1A4804F11C012060F4
:1048D0004FF00060C4E901054014C4E903508000B2
:1048E00060618000A061202081E821028004C4E989
:1048F0000A70801020632046FEF718F808B1FDF713
:10490000EFFD3464F463002211463120A663FEF704
:1049100097FD3120FEF786FD1DB0BDE8F083000055
:10492000002C0140443802400004024000080240CC
:10493000000C0240A06402405CB500202DE9F04F5D
:1049400087B09B4616460D460446FEF7FBF90090DD
:104950003DB194F83400012807D0A06B40F000501E
:104960000DE0A06B40F0006009E00020A063E26D64
:1049700006EB0B01914204D9A06B40F00070A063DC
:1049800085E0032184F834102168C862616C012934
:1049900000D076024FF0FF3101914FEA4B21029196
:1049A0004FF0010803AA902102278146CDF8188014
:1049B00082E8820201A9206801F091FEBBF1010F9B
:1049C00005D927633146206801F0A2FF05E0C4F84D
:1049D00030803146206801F0B4FFDFF834A130B1F7
:1049E0002268C2F838A0A16B0143A1634BE0029E8C
:1049F0001EE0406B000413D596B10027206801F03B
:104A0000A7FE05F8010B010A05F8011B010C05F8CA
:104A1000021B000E361F7F1C05F8010C082FEDD37A
:104A2000FEF790F90099411A109881421CD2D8B132
:104A30002068416B11F4957FDBD0416BC90509D526
:104A4000BBF1010F06D9616C032903D002F020F8F5
:104A50000028C5D12068416B09071AD5C0F838A0D5
:104A6000A06B40F0080051E02168C1F838A0A06BAD
:104A700040F00040A06384F83480C4F830900320F4
:104A800007B0BDE8F08F84F83480C4F8309001207E
:104A9000F6E7416B890705D5C0F838A0A06B40F058
:104AA000020033E0416B89061CD5C0F838A0A06B2A
:104AB00040F020002AE000BF01F04AFE05F8010B9B
:104AC000010A05F8011B010C05F8021B000E05F890
:104AD000010C361FFEF736F90099411A10988142F1
:104AE0000ED268B12068416B890201D5002EE3D156
:104AF000216840F23A50886384F834800020BFE790
:104B00002168C1F838A0A06B40F00040A063BAE76C
:104B1000FF05400010B5FDF7EDFB10BD10B5FDF72A
:104B2000FBFB10BD2DE9F04F8DB09B4616460D46A0
:104B30000446FEF707F90A903DB194F834000128C5
:104B400007D0A06B40F000500DE0A06B40F000607B
:104B500009E00020A063E26D06EB0B01914204D94D
:104B6000A06B40F00070A0637AE0032184F8341059
:104B70002168C862616C012900D076024FF0FF31D4
:104B800003914FEA4B2104919021CDE905104FF09C
:104B90000109CDE90709824603A9206801F09FFDBC
:104BA000BBF1010F06D9202020633146206801F0B7
:104BB00089FF05E0102020633146206801F09BFF4B
:104BC0005FEA000806D0216840488863A06B40EA8D
:104BD000080071E0049E27E0406B40041CD5DEB164
:104BE0005FF0000715F8010B009015F8011B361F48
:104BF00040EA0120009015F8021B40EA01400090B5
:104C000015F8011C40EA016000906946206801F037
:104C1000B2FD7F1C082FE5D3FEF794F80A99411ADC
:104C20001698814220D2F8B12068416B11F48D7F33
:104C3000D2D0416BC90524D5BBF1010F21D9616CDC
:104C400003291ED001F024FFD8B122681F499163C7
:104C5000A16B0143C4F8381084F83490C4F830A034
:104C600001200DB0BDE8F08F216818488863A06B63
:104C700040EA0800A06384F83490C4F830A0032010
:104C8000EFE72068416B090705D510498163A06BE8
:104C900040F0080010E0416B890705D50B4981639E
:104CA000A06B40F0020007E0416BC90606D507493A
:104CB0008163A06B40F01000A063CDE740F23A5151
:104CC000816384F834900020CBE70000FF054000AA
:104CD00070B5040009D0606A002540B125616561A6
:104CE000A56294F8510040B10CE0012070BD6068ED
:104CF000B0F5827FF4D0E561F2E784F850502046A9
:104D000000F044F8022084F851002068016821F086
:104D100040010160A088218900F4827001F40441FF
:104D20000843A18901F400610843217C01F00201DC
:104D30000843217D01F001010843218B01F400713A
:104D40000843217F01F03801084394F8201001F056
:104D500080010843218D01F4005108432168086057
:104D6000A069042101EA104094F8241001F0100118
:104D70000843216848602068C16921F40061C1616D
:104D80006565012084F85100002070BD70B586B0C3
:104D9000064614216846FBF70DFC2049306888421E
:104DA0003AD11F480025016841F480510160006834
:104DB00000F4805005901A481438016841F0010150
:104DC00001600068694600F001000590E020009055
:104DD0000220CDE90105032003900520049011482D
:104DE000FDF7B8FE114C104820604FF0C0606060C5
:104DF0004020C4E90205000120614000606180009C
:104E0000C4E90605256220466562FDF78FFD08B1FD
:104E1000FDF766FBB464A66306B070BD00300140C8
:104E200044380240000002405864024014B600209A
:104E30002DE9F84F044690F8500000271D4616460D
:104E4000894601280DD04FF0010B84F850B0FDF7D2
:104E500079FF804694F85100BA46012804D0022711
:104E600093E00220BDE8F88FB9F1000F73D0002E57
:104E700071D0032084F85100C4F854A0C4F83090D5
:104E8000A686E686C4F838A0A4F83CA0A4F83EA004
:104E9000C4F844A0C4F840A0A068B0F5004F09D100
:104EA0002068016821F0400101602068016841F438
:104EB0008041016020680168490603D4016841F01F
:104EC00040010160E068B0F5006F606803D030B366
:104ED000012E24D041E008B1012E1CD1206B2168A5
:104EE0000088C86006E020688168890709D5216BC1
:104EF0000988C160206B801C2063E08E401EE08624
:104F000009E0FDF71FFFA0EB0800A84202D3681CD0
:104F100001D031E07DB3E08E0028E4D120E0206BA9
:104F200021680078087306E020688168890709D540
:104F3000216B09780173206B401C2063E08E401EBA
:104F4000E0860AE0FDF7FEFEA0EB0800A84203D3CE
:104F5000681C02D010E017E06DB1E08E0028E3D1AC
:104F600042462946204602F0F1F808B1202060654B
:104F7000A06818B106E0FFE7032706E02068C168D3
:104F800080680090606D00B1012784F851B084F80A
:104F900050A0384666E710B5401EB0F1807F01D3BF
:104FA000012010BD4FF0E02460610F21601708F070
:104FB0001CF90020A06107202061002010BD70476F
:104FC0007047000070B590F83C20012A32D00124CF
:104FD00080F83C40022280F83D2003685A689D68B2
:104FE00022F070060A6832435A60134B02689A42F4
:104FF00014D0B2F1804F11D0104B9A420ED0104B0A
:105000009A420BD00F4B9A4208D00F4B9A4205D0D0
:105010000E4B9A4202D00E4B9A4204D1496825F0B9
:1050200080031943916080F83D40002180F83C10D6
:10503000084670BD022070BD000001400004004021
:1050400000080040000C0040000401400040014006
:105050000018004010B5040003D094F83D0010B1D2
:1050600007E0012010BD002084F83C00204600F03D
:105070001FF8022084F83D00211D206802F070F91D
:10508000012084F8460084F83E0084F83F0084F84C
:10509000400084F8410084F8420084F8430084F81A
:1050A000440084F8450084F83D00002010BD000055
:1050B00008B51E4A01681E4891420ED1016841F0B0
:1050C000080101600068002200F008000090012142
:1050D0003220FEF7B5F9322022E0164A91420ED175
:1050E000016841F0100101600068002200F010002A
:1050F000009006213620FEF7A3F9362010E00E4A74
:10510000914211D1016841F0200101600068002244
:1051100000F02000009007213720FEF791F937209A
:10512000BDE80840FEF77EB908BD0000000C004055
:1051300040380240001000400014004090F83D103C
:10514000012901D001207047022180F83D1001683B
:10515000CA6842F00102CA6000681149884214D04E
:10516000B0F1804F11D00F4988420ED00E498842CD
:105170000BD00E49884208D00D49884205D00D4910
:10518000884202D00C49884204D1816801F00701AD
:10519000062903D0016841F0010101600020704739
:1051A000000001400004004000080040000C0040E6
:1051B00000040140004001400018004070B5044662
:1051C00090F83C000025012817D0012684F83C60A7
:1051D000022084F83D002068826822F0770222F4E1
:1051E0007F4282600868502838D00DDC20284FD0DC
:1051F00005DC90B3102811D14AE0022070BD3028A0
:1052000046D040280AD13BE060282FD070280DD02E
:10521000B0F5805F03D0B0F5005F12D0012584F8AF
:105220003D60002084F83C00284670BDCB68D1E981
:105230000121206802F005F92068816841F07701BA
:1052400009E0CB68D1E90121206802F0FAF8206872
:10525000816841F480418160E1E719E0CA684968EA
:10526000206802F0C3F95021206806E0CA68496846
:10527000206802F0CCF96021206802F0ECF8CEE75B
:10528000CA684968206802F0B1F940212068F4E753
:10529000226801461046F0E7704770B50446006882
:1052A00001694FF00005C943890715D4C168C94396
:1052B000890711D4E91E01610120207720688069E7
:1052C0008007204602D0FFF7E7FF04E000F0FDF87A
:1052D000204600F0BFF9257720680169C9434907D6
:1052E00017D4C168C943490713D46FF004010161A1
:1052F000022020772068806910F4407F204602D089
:10530000FFF7CAFF04E000F0E0F8204600F0A2F941
:10531000257720680169C943090716D4C168C943C4
:10532000090712D46FF0080101610420207720687A
:10533000C0698007204602D0FFF7AEFF04E000F00E
:10534000C4F8204600F086F9257720680169C94332
:10535000C90617D4C168C943C90613D46FF0100138
:105360000161082020772068C06910F4407F204642
:1053700002D0FFF791FF04E000F0A7F8204600F00C
:1053800069F9257720680169C943C90708D1C1684F
:10539000C943C90704D1891E0161204600F05CF9A8
:1053A00020680169C943090609D4C168C9430906CF
:1053B00005D46FF0800101612046FFF700FE2068F0
:1053C0000169C943490609D4C168C943490605D4DE
:1053D0006FF040010161204600F060F9206801692A
:1053E000C94389060BD4C168C943890607D46FF045
:1053F000200101612046BDE87040FFF7E1BD70BDAE
:1054000070B586B0044614216846FBF7D3F82068CF
:10541000B0F1804F28D115480024016841F0010106
:105420000160016801F001010591016841F002018C
:1054300001600068022500F0020005904FF4004072
:105440000090CDE901540126CDE90346694608489C
:10545000FDF780FB08200090CDE90154CDE903461B
:1054600069460448FDF776FB06B070BD303802404F
:10547000000002400004024070B5044690F83C0071
:10548000002501280FD0012084F83C006AB1042ACD
:105490000FD0082A11D00C2A13D00125002084F83F
:1054A0003C00284670BD022070BD206801F0DCFF82
:1054B000F4E7206802F008F8F0E7206802F03AF814
:1054C000ECE7206802F06AF8E8E709F0ABBE10B537
:1054D000040003D094F83D0010B107E0012010BD96
:1054E000002084F83C00204600F01EF8022084F8DA
:1054F0003D00211D206801F033FF012084F84600A3
:1055000084F83E0084F83F0084F8400084F84100AD
:1055100084F8420084F8430084F8440084F845008D
:1055200084F83D00002010BD08B50068B0F1804F40
:1055300012D10A48016841F00101016000680022AF
:1055400000F00100009011461C20FDF779FFBDE836
:1055500008401C20FDF766BF08BD0000403802402F
:1055600030B500250446022249B1042912D0082989
:105570004CD094F84100012853D0012030BD94F85C
:105580003E000128F9D184F83E202068C26842F02C
:10559000020209E094F83F000128EED184F83F2090
:1055A0002068C26842F00402C2600122206801F053
:1055B0003BFF21492068214A884201D0904203D113
:1055C000436C43F4004343642068884213D0B0F135
:1055D000804F10D01A4988420DD01A4988420AD00B
:1055E0001949884207D0904205D01849884202D014
:1055F0001749884204D1816801F00701062903D0C8
:10560000016841F001010160284630BD94F8400076
:105610000128B2D184F840202068C26842F0080214
:10562000C2E784F841200C2901D00125ECE720686D
:10563000C26842F01002B7E70000014000040140D8
:105640000004004000080040000C00400040014001
:10565000001800407047000010B500680D498842EE
:1056600016D10D4C606808F08BFE6070402805D1A3
:10567000606809F089FD6070FCF788FD09F0F2FBB5
:1056800007F054FE09F0A2FBBDE8104000F03CBB5F
:1056900010BD0000001400409C000020704770B551
:1056A000040004D094F83D00002510B106E001206C
:1056B00070BD84F83C50204600F022F8242084F885
:1056C0003D002068C16821F40051C160204601F00E
:1056D000B1FF2068016921F49041016120684169AE
:1056E00021F02A0141612068C16841F40051C16084
:1056F0002564202084F83D0084F83E00002070BD21
:1057000010B586B0044614216846FAF753FF1449D1
:105710002068884221D113480021026842F010021B
:105720000260006800F0100005900E48143802680E
:1057300042F001020260006800F0010005904FF4A1
:10574000C06000900220CDE90101032003900720F2
:10575000049069460448FDF7FDF906B010BD00004D
:105760000010014044380240000002402DE9F84397
:10577000044690F83D001F4616460D4620284CD1A1
:10578000C5B1BEB194F83C00012846D0012084F890
:105790003C004FF00008C4F84080212084F83D0010
:1057A000FDF7D0FAA6848146E684A068B0F5805F54
:1057B00003D004E00120BDE8F883206928B12E461B
:1057C0005FF0000584F83C800EE00026FAE78021B7
:1057D000204601F0B5FFA0B9AEB116F8010B216863
:1057E0004860E08C401EE084E08C4B464FF00002A5
:1057F00000970028EBD14FF04001204601F0A0FFB8
:1058000030B10320D7E735F8020BC0F30800E6E714
:10581000202084F83D000020CDE70220CBE7FEE702
:1058200001684A69D24352050FD46FF480624A611D
:10583000002140F8301F202242738173026942F038
:1058400004020261017301207047002070470000CC
:105850002DE9F843044600680D46DDE90897016824
:105860009846164641F4807101604B4600224FF085
:1058700001112046009700F065F848B120680068E3
:10588000C00502D54FF4007020640320BDE8F88302
:10589000216805F0FE0008613B464A46154920464E
:1058A00000F084F888B920684169806900903A4620
:1058B0004946204600F0C5F848B1206C042804D1C0
:1058C0002068016841F4007101600120DEE7F5B253
:1058D000B8F1010F09D02168300A08613A464946FB
:1058E000204600F0AEF80028E7D1206805610020CE
:1058F000CCE700000200010070B516460D460446D4
:105900000DE02046FFF78CFF08B1012070BD681C38
:1059100005D0FDF717FA801BA84207D835B12068DB
:105920004069C0434007ECD4002070BD002044F81B
:10593000300F20216173A073216941F020012161A2
:105940002073E2E72DE9F0471E4690460D460446D7
:10595000C1F30747DDF8209008E0701C06D0FDF782
:10596000F1F9A0EB0900B0420FD876B12068012F01
:1059700018D0806925EA00000004000C14D0002132
:105980004145EAD00020BDE8F087002044F8300F00
:1059900020216173A073216941F0200121612073EE
:1059A0000120F0E74069E5E70121E9E72DE9F0474B
:1059B0009A4691460E46044600254FF02008C1F352
:1059C000074725E020684069C043400514D420689B
:1059D000016841F40071016021686FF480604861E2
:1059E000256384F83D8084F83E50206C40F004002C
:1059F000206484F83C501FE0B9F1FF3F08D0FDF768
:105A0000A1F9A0EB0A0149450CD8B9F1000F09D062
:105A10002068012F13D0806926EA00000004000CE2
:105A20000BD0CFE744F8305F84F80D80A573206970
:105A300040F02000206125730120BDE8F087406917
:105A4000EAE770B516460D4604460DE02046FFF71E
:105A5000E7FE08B1012070BD681C05D0FDF772F9A2
:105A6000801BA84207D835B120684069C0430006B2
:105A7000ECD4002070BD002044F8300F2021617369
:105A8000A073216941F0200121612073E2E7000049
:105A900070B50D4C0B4D2560C4E901106815C4E9C3
:105AA00003300220C4E905020020C4E90720204693
:105AB000FDF7E4FA002803D0BDE87040FCF710BD04
:105AC00070BD000000380040E4B300200A460146E3
:105AD0000148FDF7E3BB0000E4B3002010B5B1F5C9
